:040000000201B9320E
:01000B0032C2
:0100130032BA
:01001B0032B2
:0100230032AA
:03002B0002035B72
:0300330002029234
:01003B003292
:01004300328A
:01004B003282
:01005300327A
:01005B003272
:01006300326A
:03006B00020295F9
:0300730002126511
:03007B00020A5B1B
:0300830002034332
:03008B000202ADC1
:030093000202F86E
:03009B00020A58FE
:0300A3000212B88E
:0300AB000212B985
:0300B3000212BA7C
:0300BB000212BD71
:0300C300021264C2
:0300CB000212819D
:0300D30002128294
:0300DB000212848A
:0300E300020E52B8
:0300EB00021336C7
:0300F300020A59A5
:0300FB00020A5A9C
:03010300020E5198
:03010B00020E538E
:03011300020E5485
:03011B00021319B3
:030123000212B60F
:03012B000212BB02
:030133000212BEF7
:03013B000212C0ED
:030143000212B7EE
:03014B000212BCE1
:030153000212BFD6
:03015B000212C1CC
:030163000213186C
:03016B00021285F8
:030173000212B0C5
:03017B000212B2BB
:030183000212B4B1
:03018B00021286D7
:030193000212B1A4
:03019B000212B39A
:0301A3000212B590
:0301AB00021283BA
:0301B300021263D2
:1C021200750800750900750A02750B00750CF4750D01750EF4750F01C200C2015B
:030240000201B602
:0301B600020942F9
:20024300AF827401B5180280157402B5180280127405B51802800F740AB51812800C7E2458
:2002630080107E12800C7E0080087E36800475820022EF60067D707F0080047D0E7F00ED3C
:20028300F4FFE5805207ED5E4FF58075820122C2DC32C0E0C082C083D2005391EF90E65D14
:2002A3007401F0D083D082D0E032C021C0E0C0F0C082C083C007C006C005C004C003C002FE
:2002C300C001C000C0D075D00075820012114F5391EF90E65D7410F0D0D0D000D001D0022F
:2002E300D003D004D005D006D007D083D082D0F0D0E0D02132C021C0E0C0F0C082C083C024
:2003030007C006C005C004C003C002C001C000C0D075D00075820112114F5391EF90E65D99
:200323007420F0D0D0D000D001D002D003D004D005D006D007D083D082D0F0D0E0D02132C2
:20034300C0E0C082C083D2015391EF90E65D7408F0D083D082D0E032C0E0C007C006C0D04C
:2003630075D000B2A2AE0EAF0F150E74FFB50E02150FEE4F700A850C0E850D0FB2A0D2A12C
:20038300C2CFD0D0D006D007D0E032E582FF30E00BADB17E004305088DB1800353B1F7EF42
:2003A30030E408AEB14306018EB12253B1FE22850A18751900905DC0121337AE82AF83ACA4
:2003C300097D00C3EC9EED64808FF063F08095F0400990E640E053E07FF02290E640E0FF67
:2003E30043078090E640EFF02285820A7401B50A0280057402B50A18AF0A74072FF50B906D
:20040300E618F090E61AE50BF01203B2758201227582002290E6F574FFF0000000E5BB60B3
:20042300FC90E6047480F000000090E618E4F000000090E61AE4F000000090E6047402F0B9
:2004430000000090E6047406F000000090E618E50BF000000090E61AE50BF000000090E661
:2004630004E4F02290E6F574FFF0000000E50870057E06FF80047E027F0090E648EEF0228B
:20048300D2871204177EE87F03EE24FFFCEF34FFFD8C068D07EC4D70F0E5BB30E7FB00004E
:2004A3000090E6D07428F000000090E6D1E4F0E50870057E06FF80047E047F008EBB22AFC8
:2004C3008290E680E030E7067D1C7E3D80047DA67E3DEF75F010A42416FBE435F0FCEB2D94
:2004E300FDEC3EFC7E80EFF508703590E612E4F090E61474E0F090E6E27401F08D828C8342
:200503008EF012131A90E625F074012DFAE43CFB8E078A828B838FF012131A90E624F022C0
:2005230090E61274D8F090E614E4F090E6D204F08D828C838EF012131A90E621F00DBD002E
:20054300010C8D828C838EF012131AFF90E62074075FF08D828C838EF012131AC423541F1C
:2005630090E64004F00203B2AF827E00EE75F007A4FCADF02473F582ED3413F583E493FBA5
:20058300B5070280080EBE12E375820022EC2473FCED3413FD74062CF582E43DF583E4935B
:2005A30090E601F075AF07759DE4759E008C828D83A3E49390E67CF08C828D83A3A3E493A8
:2005C30090E67CF07401F0E4F0F0F0F0F08C828D83A3A3A39390E67CF08C828D83A3A3A3BA
:2005E300A3E49390E67CF07401F0E4F0F0F0F0F08C828D83A3A3A3A3A39390E67CF07411BC
:20060300F0F0E4F0F0F0F0F0F0F0F0F0F0F0F0F07F0090E67CE4F00FBF600040F575820143
:2006230022AF82BF0002804FBF01028076BF02030206B4BF05030206C2BF0A030206D0BFA8
:2006430014030206DEBF32030206ECBF64030206FABF69028012BF6E02801CBF7802802624
:20066300BF96028030020708750C19750D0075CAC075CB6302070C750C32750D0075CAE038
:2006830075CBB102070C750C64750D0075CAF075CBD802070C750CFA750D0075CA6075CBB2
:2006A300F08066750CF4750D0175CA3075CBF88058750CE8750D0375CA1875CBFC804A752A
:2006C3000CC4750D0975CA7075CBFE803C750C88750D1375CA3875CBFF802E750C10750DFE
:2006E3002775CA9C75CBFF8020750CA8750D6175CAD875CBFF8012750C50750DC375CAECE1
:2007030075CBFF80047582002275820122AD18AE19AF1A8D828E838FF0E50812126675827E
:200723000122E58270068510821204C275820122758200227582012290E6BBE0FE7F00905C
:20074300E6BAE07C004207EC420690E6BFE0FC7D0090E6BEE07A004205EA420490E6A0E094
:2007630020E1F990E6B8E0FBBB40028072BBC002800302083BED4C700302083FC374409D36
:20078300E49C50067A407B0080048D028C0390E6A0E020E1F98A457546007547407548E78F
:2007A3007549008F438E44758251C007C006C005C004C002120DECD002D004D005D006D088
:2007C3000790E68AE4F000000090E68BEAF07B00EDC39AFDEC9BFCEA2FFFEB3EFE8096EDD9
:2007E3004C605990E68BE4F090E6A0E020E1F990E68BE0FB8B38753900753A40753BE775E4
:200803003C008F368E37758251C007C006C005C004C003120D56E582D003D004D005D006C0
:20082300D0077003F582227A00EB2FFFEA3EFEEDC39BFDEC9AFC80A77582002275820122F5
:2008430075820022AF82C007120467D007C2A0D2A1750EE8750F03BFE0004015EF24194009
:200863001090E68AE4F090E68BF090E6A0E020E1F9BFA2028023BFE0028021BFE10280281E
:20088300BFE202802FBFE3028033BFE4028047BFE502804BBFE65E805302073B90E740E01E
:2008A300F51875820002024390E740E0F51875820102024390E740E0F58202056B90E740D0
:2008C300E0FFBF010DD2A0C2A1850C0E850D0F1204837582012290E740E0F5820203EC9012
:2008E300E740E0F58212038E7582012290E740E0F5820206247582002290E613E4F090E694
:2009030015F0D28790E6C2E4F090E6C37480F090E6C0E4F090E6F4F01204677518017582E7
:200923000012024375180175820112024375820112056B7582021203EC7582000204C290BD
:20094300E600E054E74410F01208FCE500D2E890E668E0FF43070890E668EFF090E65CE01C
:20096300FF43070190E65CEFF0E0FF43071090E65CEFF0E0FF43072090E65CEFF0E0FF4373
:20098300070890E65CEFF0D2DDD2AF75CA3075CBF875C800D2ADD2CA90E680E043E00AF072
:2009A3009005DC1212C290E680E053E0F7F090E6727409F090E671E4F090E670F075B6FFDD
:2009C30075B4FF75B2FFC2A0D2A11000028003120E5510010280F390E682E043E0C0F09026
:2009E300E6817401F0AE877F004306018E8700000000000000E513701C90E682E030E6079C
:200A030090E682E020E0D090E682E030E70790E682E020E1C290E682E030E60790E682E0CD
:200A230020E00E90E682E030E7A090E682E030E1999000051212C290E680E0FF4307019069
:150A4300E680EFF090000F1212C290E680E053E0FEF00209CD05
:20137300308000030000EA1E8000030000AA180100020110CA100101020010CA0F0100027C
:2013930001108A0C0201020010CA0A01010200108A080302020010CA0602020200108A0578
:2013B30003020200108A040605020010CA0305040200108A0207070200108A010F0E02001A
:1E13D300108A961E1D0200108A784B4A0200108A6E96950200108A6AFAF90200108A1E
:203D000012010002FFFFFF40B5042A600302010203010A060002000000400100090289001B
:203D200001010080370904000001FF000000070586020002000904000101FF00010007050C
:203D400082010014010904000201FF00010007058201000C010904000301FF000100070502
:203D600082010004010904000401FF000100070582010004020904000501FF0001000705F5
:203D800082010004030904000601FF000100070582010004040904000701FF0001000705CD
:053DA000820100020495
:203DA6000902390002010080370904000001FF000000070586024000000904000101FF0010
:193DC600010007058201FF03010904000201FF00010007058201000201AF
:203DE000040309040E03480061006E00740065006B001603440053004F002D0036003000B1
:1E3E00003200320042004C00140343007500730074006F006D00200046005700000063
:010A5800326B
:010A5900326A
:010A5A003269
:010A5B003268
:200A5C00AF82E5272522F52CE5283523F52D752E02903C00E4F0EF2FFF903C00E0E06004FC
:200A7C007582002290E678E0FB74804BF0E0FB30E20C90000AC0071212C2D00780DB90E661
:200A9C0079EFF090E678E0FB20E007903C00E0E060F1903C00E0E060047582002290E6783E
:200ABC00E0FB20E2B490E678E0FB20E13B90E678E0FB74404BF090E678E0FB30E607903C1A
:200ADC0000E0E060F1903C00E0E0600475820022E52E14FB8B2E7003F5822290000AC00798
:200AFC001212C2D007020A757A007B00C3EA952CEB952D4003020BA6C3EA9522EB9523503F
:200B1C0016EA2524F8EB3525F9AC26888289838CF012131AFC801DEAC39522F8EB9523F906
:200B3C00E82529F8E9352AF9AE2B888289838EF012131AFC90E679ECF00ABA00010B90E671
:200B5C0078E0FE20E007903C00E0E060F1903C00E0E060047582002290E678E0FE30E20355
:200B7C00020A7590E678E0FE30E103020B0890E678E0FF74404FF090E678E0FF30E60790A9
:200B9C003C00E0E060F17582002290E678E0FF74404FF090E678E0FF30E607903C00E0E09D
:200BBC0060F1903C00E0E060047582002275820122AF82903C00E4F0EF2FFF4307017401F7
:200BDC00B52F08E4B5300474018001E4FE903C00E0E06004758200227C007D0090E678E098
:200BFC00FB74804BF0E0FB30E21090000AC007C0061212C2D006D00780D390E679EFF09047
:200C1C00E678E0FB20E007903C00E0E060F1903C00E0E060047582002290E678E0FB20E2C7
:200C3C00AC90E678E0FB20E11C90E678E0FB74404BF090E678E0FB30E607903C00E0E0607C
:200C5C00F175820022EE600990E678E0FB74204BF090E679E0E4F534F53574012534F8E4CF
:200C7C003535F9C3E8952FE99530506A90E678E0F920E007903C00E0E060F1903C00E0E0E7
:200C9C0060047582002290E678E0F930E203020BE974022534F8E43535F9E8B52F0DE9B564
:200CBC00300990E678E0F9742049F0A834A9350534E4B534020535AC34AD35E82531F8E96E
:200CDC003532F9AB3390E679E0FA888289838BF0121266020C7690E678E0FB20E007903CB6
:200CFC0000E0E060F1903C00E0E060047582002290E678E0FB30E203020BE990E678E0FF1D
:200D1C0074404FF0EC2531FCED3532FDAF3390E679E0FE8C828D838FF012126690E678E091
:200D3C00FF30E607903C00E0E060F1903C00E0E06004758200227582012285823DE4F5411D
:200D5C00F542AB36AC37C3E5419538E54295394003020DE87A0090E678E0FF30E4067A01BB
:200D7C008C078F3E8A070AEF243EF98B06A7068A070AEF243EF9AE41AF420541E4B54102ED
:200D9C000542EE253AFEEF353BFFAD3C8E828F838DF012131AF78A2275230075243E7525D4
:200DBC0000752640E4F527F528F529F52AF52B853D82C004C003120A5CE582D003D0047001
:200DDC0003F582220BBB00010C020D6275820122AF827E0090E678E0FD30E4067E01AD44F9
:200DFC008D4A8E050EED244AF9AC43A7048E2275230075244A752500752640E4F527F528B4
:200E1C00F529F52AF52B8F82C007120A5CE582D0077003F5822285452F8546308547318549
:150E3C0048328549338F82120BCDE5827003F58222758201229E
:010E5100326E
:010E5200326D
:010E5300326C
:010E5400326B
:0601E800E478FFF6D8FDEB
:12022E007512007513007514A675153D75161C75173D49
:200E550090E6B9E0FF24F45003020F5BEF240A83F582EF241083F583E473879D5BB35B5B24
:200E7500C95BD9F0083C0E0E0F0E0F0F0E0F0E0E0F0F120FD5E5826003020F7190E6A0E046
:200E9500FF74014FF0020F71121062E5826003020F7190E6A0E0FF74014FF0020F711210EB
:200EB500CEE5826003020F7190E6A0E0FF74014FF0020F71120843E5826003020F7112110C
:200ED5007A020F71120733AF8290E740EFF090E68AE4F090E68B04F0020F7190E6BAE0F59E
:200EF50082120737E582707490E6A0E0FF74014FF0806990E6BCE0FF751811751900751A62
:200F1500408F82120710E582700B90E6A0E0FF74014FF0804790E740E511F090E68AE4F07F
:200F350090E68B04F0803590E6BCE0FF90E6BAE0F5108F82120725E582702190E6A0E0FF90
:200F550074014FF0801690E6B9E0F582120847E582700990E6A0E0FF74014FF090E6A0E0CC
:200F7500FF74804FF022AF828F0653067FEE24F75003020FD1EE240A83F582EE240D83F57F
:200F950083E473AAAEC1D1C5D1C9D1CD0F0F0F0F0F0F0F0F0F90E6A022EF30E7067EA27F11
:200FB500E680047EA17FE68E828F832290E6A32290E6A42290E6A52290E6A6229000002246
:200FD50090E6B8E0FFBF8002801FBF81028005BF8273803490E740E4F090E741F090E68AAD
:200FF500F090E68B7402F08060E51325E0FFE512420790E740EFF090E741E4F090E68AF057
:2010150090E68B7402F0804190E6BCE0F582120F7BAE82AF838E048F05EE4F7003F582229D
:201035008C828D83E0FC30E0047F0180027F0090E740EFF090E741E4F090E68AF090E68BF9
:201055007402F08004758200227582012290E6B8E0FF6005BF0255801190E6BAE0FFBF0176
:2010750005751300804F7582002290E6BAE0703890E6BCE0F582120F7BAE82AF83E0FD5377
:2010950005FE8E828F83EDF090E6BCE0FF53070F90E6BCE05480C423541FFE90E6832FF069
:2010B500E0FF74204FF0800D7582002290E6B9E0F5820208477582012290E6B8E0FF600560
:2010D500BF026A801B90E6BAE0FFBF0202806790E6BAE0FFBF0105751301805A758200222C
:2010F50090E6BAE0704390E6BCE0F582120F7BAE82AF83EE4F7003F582228E828F83E0FD49
:201115004305018E828F83EDF090E6BCE0FF53070F90E6BCE05480C423541FFE90E6832F92
:20113500F0E0FF74204FF0800D7582002290E6B9E0F58202084775820122AF82D20210AF9D
:2011550002C202EF600E75141C75153D7516A675173D800C7514A675153D75161C75173DFF
:20117500A20292AF2290E6BBE0FFBF01028019BF02028029BF03028033BF0603021235BF35
:20119500070302124A0212597E007F3D8F0690E6B3EEF07E007F3D90E6B4EEF022AF1590D7
:2011B500E6B3EFF0AE1490E6B4EEF0227DE07E3D7F8090E6BAE0F5187B008B020BEAB518B8
:2011D5000280428D008E018F028D828E838FF012131A28F8E439F9880589068A0774012D26
:2011F500F9E43EFA8F0489828A838CF012131AF9B9030280067D007E007F00ED4E6006C344
:20121500E5189B50B5ED4E600D8E0790E6B3EFF090E6B4EDF02290E6A0E0FF74014FF022E3
:201235007E127F3D8F0690E6B3EEF07E127F3D90E6B4EEF022AF1790E6B3EFF0AE1690E633
:0E125500B4EEF02290E6A0E0FF74014FF0220C
:2001C6007900E94400601B7A009013F1780175923CE493F2A308B800020592D9F4DAF275BB
:0201E60092FF86
:011263003258
:011264003257
:011265003256
:1B12660020F71130F6138883A88220F509F6A8837583002280FEF280F5F02287
:01128100323A
:011282003239
:011283003238
:011284003237
:03004300023F0079
:203F00000202950002126500020A5B00020343000202AD000202F800020A58000212B70004
:203F20000212B8000212B9000212BA000212BD00021264000212810002128200021284000E
:203F4000020E52000212B70002133600020A5900020A5A00020E5100020E5300020E5400F6
:203F6000021319000212B7000212B7000212B7000212B6000212BB000212BE000212C00073
:203F80000212BC000212BF000212C10002131800021285000212B0000212B2000212B40091
:183FA000021286000212B1000212B3000212B50002128300021263000C
:011285003236
:011286003235
:2001EE007800E84400600A790075923CE4F309D8FC7801E84400600C7901903C00E4F0A3A5
:04020E00D8FCD9FA45
:201287007A10E4FBFCE58225E0F582E58333F583EB33FBEC33FCEB9518F5F0EC951940065B
:0912A700FCABF0438201DADD2208
:0112B000320B
:0112B100320A
:0112B2003209
:0112B3003208
:0112B4003207
:0112B5003206
:0112B6003205
:0112B7003204
:0112B8003203
:0112B9003202
:0112BA003201
:0112BB003200
:0112BC0032FF
:0112BD0032FE
:0112BE0032FD
:0112BF0032FC
:0112C00032FB
:0112C10032FA
:2012C200AE82AF8390E600E05418C423541FFD70057CB1FD801C90E600E05418C423541F3A
:2012E200FBBB01067A617B0180047AC27B028A048B058C188D19151874FFB518021519E5B1
:1613020018451970F1EE24FFFAEF34FFFB8A068B07EA4B70DD2210
:0113180032A2
:0113190032A1
:0D01B90075814B12136FE58260030201B6E1
:1C131A0020F71430F6148883A88220F507E6A88375830022E280F7E49322E022E2
:011336003284
:20133700C2D5E58330E70DD2D5E4C39582F582E49583F583E51930E70DB2D5E4C39518F531
:1813570018E49519F51912128730D50BE4C39582F582E49583F5832240
:04136F007582002261
:00000001FF
