:040000000201B9320E
:01000B0032C2
:0100130032BA
:01001B0032B2
:0100230032AA
:03002B0002035B72
:0300330002029234
:01003B003292
:01004300328A
:01004B003282
:01005300327A
:01005B003272
:01006300326A
:03006B00020295F9
:0300730002122F47
:03007B00020A2551
:0300830002034332
:03008B000202ADC1
:030093000202F86E
:03009B00020A2234
:0300A300021282C4
:0300AB00021283BB
:0300B300021284B2
:0300BB00021287A7
:0300C30002122EF8
:0300CB0002124BD3
:0300D30002124CCA
:0300DB0002124EC0
:0300E300020E1CEE
:0300EB00021300FD
:0300F300020A23DB
:0300FB00020A24D2
:03010300020E1BCE
:03010B00020E1DC4
:03011300020E1EBB
:03011B000212E3EA
:0301230002128045
:03012B0002128538
:030133000212882D
:03013B0002128A23
:0301430002128124
:03014B0002128617
:030153000212890C
:03015B0002128B02
:030163000212E2A3
:03016B0002124F2E
:0301730002127AFB
:03017B0002127CF1
:0301830002127EE7
:03018B000212500D
:0301930002127BDA
:03019B0002127DD0
:0301A30002127FC6
:0301AB0002124DF0
:0301B30002122D08
:1C021200750800750900750A02750B00750CF4750D01750EF4750F01C200C2015B
:030240000201B602
:0301B60002091526
:20024300AF827401B5180280157402B5180280127405B51802800F740AB51812800C7E2458
:2002630080107E12800C7E0080087E36800475820022EF60067D707F0080047D0E7F00ED3C
:20028300F4FFE5805207ED5E4FF58075820122C2DC32C0E0C082C083D2005391EF90E65D14
:2002A3007401F0D083D082D0E032C021C0E0C0F0C082C083C007C006C005C004C003C002FE
:2002C300C001C000C0D075D0007582001211195391EF90E65D7410F0D0D0D000D001D00265
:2002E300D003D004D005D006D007D083D082D0F0D0E0D02132C021C0E0C0F0C082C083C024
:2003030007C006C005C004C003C002C001C000C0D075D0007582011211195391EF90E65DCF
:200323007420F0D0D0D000D001D002D003D004D005D006D007D083D082D0F0D0E0D02132C2
:20034300C0E0C082C083D2015391EF90E65D7408F0D083D082D0E032C0E0C007C006C0D04C
:2003630075D000B2A2AE0EAF0F150E74FFB50E02150FEE4F700A850C0E850D0FB2A0D2A12C
:20038300C2CFD0D0D006D007D0E032850A18751900905DC0121301AE82AF83AC097D00C33B
:2003A300EC9EED64808FF063F08095F0400990E640E053E07FF02290E640E0FF4307809076
:2003C300E640EFF02285820A7401B50A0280057402B50A18AF0A74072FF50B90E618F09069
:2003E300E61AE50BF012038E758201227582002290E6F574FFF0000000E5BB60FC90E60400
:200403007480F000000090E618E4F000000090E61AE4F000000090E6047402F000000090BF
:20042300E6047406F000000090E618E50BF000000090E61AE50BF000000090E604E4F02217
:2004430090E6F574FFF0000000E50870057E06FF80047E027F0090E648EEF022D287120337
:20046300F37EE87F03EE24FFFCEF34FFFD8C068D07EC4D70F0E5BB30E7FB00000090E6D0BB
:200483007428F000000090E6D1E4F0E50870057E06FF80047E047F008EBB22AF8290E680B6
:2004A300E030E7067D1C7E3D80047DA67E3DEF75F010A42416FBE435F0FCEB2DFDEC3EFC09
:2004C3007E80EFF508703590E612E4F090E61474E0F090E6E27401F08D828C838EF01212E3
:2004E300E490E625F074012DFAE43CFB8E078A828B838FF01212E490E624F02290E61274F5
:20050300D8F090E614E4F090E6D204F08D828C838EF01212E490E621F00DBD00010C8D8265
:200523008C838EF01212E4FF90E62074075FF08D828C838EF01212E4C423541F90E640040C
:20054300F002038EAF827E00EE75F007A4FCADF0243DF582ED3413F583E493FBB50702809B
:20056300080EBE12E375820022EC243DFCED3413FD74062CF582E43DF583E49390E601F088
:2005830075AF07759DE4759E008C828D83A3E49390E67CF08C828D83A3A3E49390E67CF04D
:2005A3007401F0E4F0F0F0F0F08C828D83A3A3A39390E67CF08C828D83A3A3A3A3E4939012
:2005C300E67CF07401F0E4F0F0F0F0F08C828D83A3A3A3A3A39390E67CF07411F0F0E4F0D2
:2005E300F0F0F0F0F0F0F0F0F0F0F0F07F0090E67CE4F00FBF600040F575820122AF82BF06
:200603000002804FBF01028076BF0203020690BF050302069EBF0A030206ACBF1403020627
:20062300BABF32030206C8BF64030206D6BF69028012BF6E02801CBF78028026BF960280F8
:20064300300206E4750C19750D0075CAC075CB630206E8750C32750D0075CAE075CBB10286
:2006630006E8750C64750D0075CAF075CBD80206E8750CFA750D0075CA6075CBF0806675C4
:200683000CF4750D0175CA3075CBF88058750CE8750D0375CA1875CBFC804A750CC4750D43
:2006A3000975CA7075CBFE803C750C88750D1375CA3875CBFF802E750C10750D2775CA9C6E
:2006C30075CBFF8020750CA8750D6175CAD875CBFF8012750C50750DC375CAEC75CBFF8044
:2006E300047582002275820122AD18AE19AF1A8D828E838FF0E50812123075820122E5820A
:20070300700685108212049E75820122758200227582012290E6BBE0FE7F0090E6BAE07C2E
:20072300004207EC420690E6BFE0FC7D0090E6BEE07A004205EA420490E6A0E020E1F99026
:20074300E6B8E0FBBB40028072BBC0028003020817ED4C700302081BC374409DE49C500652
:200763007A407B0080048D028C0390E6A0E020E1F98A457546007547407548E77549008F38
:20078300438E44758251C007C006C005C004C002120DB6D002D004D005D006D00790E68A24
:2007A300E4F000000090E68BEAF07B00EDC39AFDEC9BFCEA2FFFEB3EFE8096ED4C6059906B
:2007C300E68BE4F090E6A0E020E1F990E68BE0FB8B38753900753A40753BE7753C008F3698
:2007E3008E37758251C007C006C005C004C003120D20E582D003D004D005D006D0077003CE
:20080300F582227A00EB2FFFEA3EFEEDC39BFDEC9AFC80A775820022758201227582002246
:20082300AF82C007120443D007C2A0D2A1750EE8750F03BFE0004015EF2419401090E68A56
:20084300E4F090E68BF090E6A0E020E1F9BFA2028023BFE0028021BFE1028028BFE202802B
:200863002FBFE3028033BFE4028047BFE502804BBFE655804A02071790E740E0F518758293
:200883000002024390E740E0F51875820102024390E740E0F58202054790E740E0FFBF0179
:2008A3000DD2A0C2A1850C0E850D0F12045F7582012290E740E0F5820203C87582012290FF
:2008C300E740E0F5820206007582002290E613E4F090E615F0D28790E6C2E4F090E6C3748C
:2008E30080F090E6C0E4F090E6F4F01204437518017582001202437518017582011202430F
:200903007582011205477582021203C875820002049E90E600E054E74410F01208CFE5006A
:20092300D2E890E668E0FF43070890E668EFF090E65CE0FF43070190E65CEFF0E0FF430758
:200943001090E65CEFF0E0FF43072090E65CEFF0E0FF43070890E65CEFF0D2DDD2AF75CA88
:200963003075CBF875C800D2ADD2CA90E680E043E00AF09005DC12128C90E680E053E0F7A0
:20098300F090E671E4F090E670F075B4FF75B2FFC2A0D2A11000028003120E1F1001028049
:2009A300F390E682E043E0C0F090E6817401F0AE877F004306018E8700000000000000E542
:2009C30013701C90E682E030E60790E682E020E0D090E682E030E70790E682E020E1C290B7
:2009E300E682E030E60790E682E020E00E90E682E030E7A090E682E030E1999000051212DF
:1F0A03008C90E680E0FF43070190E680EFF090000F12128C90E680E053E0FEF00209976B
:20133D00308000030000EA1E8000030000AA180100020110CA100101020010CA0F010002B2
:20135D0001108A0C0201020010CA0A01010200108A080302020010CA0602020200108A05AE
:20137D0003020200108A040605020010CA0305040200108A0207070200108A010F0E020050
:1E139D00108A961E1D0200108A784B4A0200108A6E96950200108A6AFAF90200108A54
:203D000012010002FFFFFF40B5042A600202010203010A060002000000400100090289001C
:203D200001010080370904000001FF000000070586020002000904000101FF00010007050C
:203D400082010014010904000201FF00010007058201000C010904000301FF000100070502
:203D600082010004010904000401FF000100070582010004020904000501FF0001000705F5
:203D800082010004030904000601FF000100070582010004040904000701FF0001000705CD
:053DA000820100020495
:203DA6000902390002010080370904000001FF000000070586024000000904000101FF0010
:193DC600010007058201FF03010904000201FF00010007058201000201AF
:203DE000040309040E03480061006E00740065006B001603440053004F002D0036003000B1
:1E3E00003200320042004C00140343007500730074006F006D00200046005700000063
:010A220032A1
:010A230032A0
:010A2400329F
:010A2500329E
:200A2600AF82E5272522F52CE5283523F52D752E02903C00E4F0EF2FFF903C00E0E0600432
:200A46007582002290E678E0FB74804BF0E0FB30E20C90000AC00712128CD00780DB90E6CD
:200A660079EFF090E678E0FB20E007903C00E0E060F1903C00E0E060047582002290E67874
:200A8600E0FB20E2B490E678E0FB20E13B90E678E0FB74404BF090E678E0FB30E607903C50
:200AA60000E0E060F1903C00E0E0600475820022E52E14FB8B2E7003F5822290000AC007CE
:200AC60012128CD007020A3F7A007B00C3EA952CEB952D4003020B70C3EA9522EB95235017
:200AE60016EA2524F8EB3525F9AC26888289838CF01212E4FC801DEAC39522F8EB9523F974
:200B0600E82529F8E9352AF9AE2B888289838EF01212E4FC90E679ECF00ABA00010B90E6DE
:200B260078E0FE20E007903C00E0E060F1903C00E0E060047582002290E678E0FE30E2038B
:200B4600020A3F90E678E0FE30E103020AD290E678E0FF74404FF090E678E0FF30E607904C
:200B66003C00E0E060F17582002290E678E0FF74404FF090E678E0FF30E607903C00E0E0D3
:200B860060F1903C00E0E060047582002275820122AF82903C00E4F0EF2FFF43070174012D
:200BA600B52F08E4B5300474018001E4FE903C00E0E06004758200227C007D0090E678E0CE
:200BC600FB74804BF0E0FB30E21090000AC007C00612128CD006D00780D390E679EFF090B3
:200BE600E678E0FB20E007903C00E0E060F1903C00E0E060047582002290E678E0FB20E2FE
:200C0600AC90E678E0FB20E11C90E678E0FB74404BF090E678E0FB30E607903C00E0E060B2
:200C2600F175820022EE600990E678E0FB74204BF090E679E0E4F534F53574012534F8E405
:200C46003535F9C3E8952FE99530506A90E678E0F920E007903C00E0E060F1903C00E0E01D
:200C660060047582002290E678E0F930E203020BB374022534F8E43535F9E8B52F0DE9B5D0
:200C8600300990E678E0F9742049F0A834A9350534E4B534020535AC34AD35E82531F8E9A4
:200CA6003532F9AB3390E679E0FA888289838BF0121230020C4090E678E0FB20E007903C58
:200CC60000E0E060F1903C00E0E060047582002290E678E0FB30E203020BB390E678E0FF89
:200CE60074404FF0EC2531FCED3532FDAF3390E679E0FE8C828D838FF012123090E678E0FE
:200D0600FF30E607903C00E0E060F1903C00E0E06004758200227582012285823DE4F54153
:200D2600F542AB36AC37C3E5419538E54295394003020DB27A0090E678E0FF30E4067A0127
:200D46008C078F3E8A070AEF243EF98B06A7068A070AEF243EF9AE41AF420541E4B5410223
:200D66000542EE253AFEEF353BFFAD3C8E828F838DF01212E4F78A2275230075243E752541
:200D860000752640E4F527F528F529F52AF52B853D82C004C003120A26E582D003D004706D
:200DA60003F582220BBB00010C020D2C75820122AF827E0090E678E0FD30E4067E01AD4465
:200DC6008D4A8E050EED244AF9AC43A7048E2275230075244A752500752640E4F527F528EA
:200DE600F529F52AF52B8F82C007120A26E582D0077003F5822285452F85463085473185B6
:150E060048328549338F82120B97E5827003F58222758201220A
:010E1B0032A4
:010E1C0032A3
:010E1D0032A2
:010E1E0032A1
:0601E800E478FFF6D8FDEB
:12022E007512007513007514A675153D75161C75173D49
:200E1F0090E6B9E0FF24F45003020F25EF240A83F582EF241083F583E4735167257D2525D4
:200E3F009325A3BAD2060E0E0F0E0F0F0E0F0E0E0E0F120F9FE5826003020F3B90E6A0E02D
:200E5F00FF74014FF0020F3B12102CE5826003020F3B90E6A0E0FF74014FF0020F3B1210F9
:200E7F0098E5826003020F3B90E6A0E0FF74014FF0020F3B12081FE5826003020F3B12113E
:200E9F0044020F3B12070FAF8290E740EFF090E68AE4F090E68B04F0020F3B90E6BAE0F59A
:200EBF0082120713E582707490E6A0E0FF74014FF0806990E6BCE0FF751811751900751ABC
:200EDF00408F821206ECE582700B90E6A0E0FF74014FF0804790E740E511F090E68AE4F0DB
:200EFF0090E68B04F0803590E6BCE0FF90E6BAE0F5108F82120701E582702190E6A0E0FFEB
:200F1F0074014FF0801690E6B9E0F582120823E582700990E6A0E0FF74014FF090E6A0E026
:200F3F00FF74804FF022AF828F0653067FEE24F75003020F9BEE240A83F582EE240D83F5EB
:200F5F0083E47374788B9B8F9B939B970F0F0F0F0F0F0F0F0F90E6A022EF30E7067EA27F2D
:200F7F00E680047EA17FE68E828F832290E6A32290E6A42290E6A52290E6A622900000227C
:200F9F0090E6B8E0FFBF8002801FBF81028005BF8273803490E740E4F090E741F090E68AE3
:200FBF00F090E68B7402F08060E51325E0FFE512420790E740EFF090E741E4F090E68AF08D
:200FDF0090E68B7402F0804190E6BCE0F582120F45AE82AF838E048F05EE4F7003F582220A
:200FFF008C828D83E0FC30E0047F0180027F0090E740EFF090E741E4F090E68AF090E68B30
:20101F007402F08004758200227582012290E6B8E0FF6005BF0255801190E6BAE0FFBF01AC
:20103F0005751300804F7582002290E6BAE0703890E6BCE0F582120F45AE82AF83E0FD53E3
:20105F0005FE8E828F83EDF090E6BCE0FF53070F90E6BCE05480C423541FFE90E6832FF09F
:20107F00E0FF74204FF0800D7582002290E6B9E0F5820208237582012290E6B8E0FF6005BA
:20109F00BF026A801B90E6BAE0FFBF0202806790E6BAE0FFBF0105751301805A7582002262
:2010BF0090E6BAE0704390E6BCE0F582120F45AE82AF83EE4F7003F582228E828F83E0FDB5
:2010DF004305018E828F83EDF090E6BCE0FF53070F90E6BCE05480C423541FFE90E6832FC9
:2010FF00F0E0FF74204FF0800D7582002290E6B9E0F58202082375820122AF82D20210AFF8
:20111F0002C202EF600E75141C75153D7516A675173D800C7514A675153D75161C75173D35
:20113F00A20292AF2290E6BBE0FFBF01028019BF02028029BF03028033BF06030211FFBFA2
:20115F0007030212140212237E007F3D8F0690E6B3EEF07E007F3D90E6B4EEF022AF159079
:20117F00E6B3EFF0AE1490E6B4EEF0227DE07E3D7F8090E6BAE0F5187B008B020BEAB518EE
:20119F000280428D008E018F028D828E838FF01212E428F8E439F9880589068A0774012D93
:2011BF00F9E43EFA8F0489828A838CF01212E4F9B9030280067D007E007F00ED4E6006C3B1
:2011DF00E5189B50B5ED4E600D8E0790E6B3EFF090E6B4EDF02290E6A0E0FF74014FF0221A
:2011FF007E127F3D8F0690E6B3EEF07E127F3D90E6B4EEF022AF1790E6B3EFF0AE1690E66A
:0E121F00B4EEF02290E6A0E0FF74014FF02242
:2001C6007900E94400601B7A009013BB780175923CE493F2A308B800020592D9F4DAF275F1
:0201E60092FF86
:01122D00328E
:01122E00328D
:01122F00328C
:1B12300020F71130F6138883A88220F509F6A8837583002280FEF280F5F022BD
:01124B003270
:01124C00326F
:01124D00326E
:01124E00326D
:03004300023F0079
:203F00000202950002122F00020A2500020343000202AD000202F800020A220002128100DC
:203F20000212820002128300021284000212870002122E0002124B0002124C0002124E00BE
:203F4000020E1C000212810002130000020A2300020A2400020E1B00020E1D00020E1E00A6
:203F60000212E30002128100021281000212810002128000021285000212880002128A0024
:203F8000021286000212890002128B000212E20002124F0002127A0002127C0002127E0042
:183FA0000212500002127B0002127D0002127F0002124D0002122D0050
:01124F00326C
:01125000326B
:2001EE007800E84400600A790075923CE4F309D8FC7801E84400600C7901903C00E4F0A3A5
:04020E00D8FCD9FA45
:201251007A10E4FBFCE58225E0F582E58333F583EB33FBEC33FCEB9518F5F0EC9519400691
:09127100FCABF0438201DADD223E
:01127A003241
:01127B003240
:01127C00323F
:01127D00323E
:01127E00323D
:01127F00323C
:01128000323B
:01128100323A
:011282003239
:011283003238
:011284003237
:011285003236
:011286003235
:011287003234
:011288003233
:011289003232
:01128A003231
:01128B003230
:20128C00AE82AF8390E600E05418C423541FFD70057CB1FD801C90E600E05418C423541F70
:2012AC00FBBB01067A617B0180047AC27B028A048B058C188D19151874FFB518021519E5E7
:1612CC0018451970F1EE24FFFAEF34FFFB8A068B07EA4B70DD2247
:0112E20032D9
:0112E30032D8
:0D01B90075814B121339E58260030201B617
:1C12E40020F71430F6148883A88220F507E6A88375830022E280F7E49322E02219
:0113000032BA
:20130100C2D5E58330E70DD2D5E4C39582F582E49583F583E51930E70DB2D5E4C39518F567
:1813210018E49519F51912125130D50BE4C39582F582E49583F58322AC
:041339007582002297
:00000001FF
