:04000000020059326F
:01000B0032C2
:0100130032BA
:01001B0032B2
:0100230032AA
:03002B000201FBD4
:0300330002013295
:01003B003292
:03004300023F0079
:01004B003282
:03005300023F0069
:1C00B200750800750900750A02750B00750CF4750D01750EF4750F01C200C201BD
:0300E000020056C5
:030056000207E9B5
:2000E300AF827401B54C0280157402B54C0280127405B54C02800F740AB54C12800C7E48C6
:2001030080107E24800C7E0080087E6C800475820022EF60067DE07F0080047D1C7F00EDD7
:20012300F4FFE5A05207ED5E4FF5A075820122C2DC32C0E0C082C083D2005391EF90E65D35
:200143007401F0D083D082D0E032C021C0E0C0F0C082C083C007C006C005C004C003C0025F
:20016300C001C000C0D075D0007582001212385391EF90E65D7410F0D0D0D000D001D002A6
:20018300D003D004D005D006D007D083D082D0F0D0E0D02132C021C0E0C0F0C082C083C085
:2001A30007C006C005C004C003C002C001C000C0D075D0007582011212385391EF90E65D11
:2001C3007420F0D0D0D000D001D002D003D004D005D006D007D083D082D0F0D0E0D0213224
:2001E300C0E0C082C083D2015391EF90E65D7408F0D083D082D0E032C0E0C007C006C0D0AE
:2002030075D000B287AE0EAF0F150E74FFB50E02150FEE4F700A850C0E850D0FB2A0D2A1A8
:20022300C2CFD0D0D006D007D0E032E582FF30E00BADB17E004305088DB1800353B1F7EFA3
:2002430030E408AEB14306018EB12253B1FE22850A4C754D00905DC0121417AE82AF83ACBC
:20026300097D00C3EC9EED64808FF063F08095F0400990E640E053E07FF02290E640E0FFC8
:2002830043078090E640EFF02285820A7401B50A0280057402B50A18AF0A74072FF50B90CE
:2002A300E618F090E61AE50BF0120252758201227582002290E6F574FFF000000000E5BBD6
:2002C30060FC90E6047480F00000000090E618E4F00000000090E61AE4F00000000090E625
:2002E300047402F00000000090E6047406F00000000090E618E50BF00000000090E61AE5CA
:200303000BF00000000090E604E4F02290E6F574FFF000000000E50870057E06FF80047EBA
:20032300027F0090E648EEF0221202B77EE87F03EE24FFFCEF34FFFD8C068D07EC4D70F0DD
:20034300E5BB30E7FB0000000090E6D07428F00000000090E6D1E4F0E50870057E06FF8096
:20036300047E047F008EBB22AF8290E680E030E7067D1C7E3D80047DA67E3DEF75F010A428
:200383002416FBE435F0FCEB2DFDEC3EFC7E80EFF508703590E612E4F090E61474E0F0909C
:2003A300E6E27401F08D828C838EF01213FA90E625F074012DFAE43CFB8E078A828B838FD2
:2003C300F01213FA90E624F02290E61274D8F090E614E4F090E6D204F08D828C838EF01253
:2003E30013FA90E621F00DBD00010C8D828C838EF01213FAFF90E62074075FF08D828C8357
:200403008EF01213FAC423541F90E64004F0020252AF827E00EE75F007A4FCADF0245FF524
:2004230082ED3414F583E493FBB5070280080EBE12E375820022EC245FFCED3414FD7406E1
:200443002CF582E43DF583E49390E601F075AF07759DE4759E008C828D83A3E49390E67C21
:20046300F08C828D83A3A3E49390E67CF07401F0E4F0F0F0F0F08C828D83A3A3A39390E6C3
:200483007CF08C828D83A3A3A3A3E49390E67CF07401F0E4F0F0F0F0F08C828D83A3A3A3EA
:2004A300A3A39390E67CF07444F0F0E4F0F0F0F0F0F0F0F0F0F0F0F0F07F0090E67CE4F08D
:2004C3000FBF600040F575820122AF82BF0002804FBF01028076BF020302055DBF05030232
:2004E300056BBF0A03020579BF1403020587BF3203020595BF64030205A3BF69028012BFFE
:200503006E02801CBF78028026BF960280300205B1750C19750D0075CAC075CB630205B5B4
:20052300750C32750D0075CAE075CBB10205B5750C64750D0075CAF075CBD80205B5750CCC
:20054300FA750D0075CA6075CBF08066750CF4750D0175CA3075CBF88058750CE8750D0302
:2005630075CA1875CBFC804A750CC4750D0975CA7075CBFE803C750C88750D1375CA387518
:20058300CBFF802E750C10750D2775CA9C75CBFF8020750CA8750D6175CAD875CBFF8012F8
:2005A300750C50750DC375CAEC75CBFF80047582002275820122AD4CAE4DAF4E8D828E83F0
:2005C3008FF0E50812134875820122E582700685108212036B758201227582002275820186
:2005E3002290E6BBE0FE7F0090E6BAE07C004207EC420690E6BFE0FC7D0090E6BEE07A0023
:200603004205EA420490E6A0E020E1F990E6B8E0FBBB40028073BBC00280030206E5ED4C51
:2006230070030206E9C374409DE49C50067A407B0080048D028C0390E6A0E020E1F98A45D3
:200643007546007547407548E77549008F438E44758251C007C006C005C004C002120E7F1B
:20066300D002D004D005D006D00790E68AE4F00000000090E68BEAF07B00EDC39AFDEC9B57
:20068300FCEA2FFFEB3EFE8095ED4C605990E68BE4F090E6A0E020E1F990E68BE0FB8B38B1
:2006A300753900753A40753BE7753C008F368E37758251C007C006C005C004C003120DEA9E
:2006C300E582D003D004D005D006D0077003F582227A00EB2FFFEA3EFEEDC39BFDEC9AFCF8
:2006E30080A7758200227582012275820022AF82C00712030FD007C2A0D2A1750EE8750FCD
:2007030003BFE0004015EF2419401090E68AE4F090E68BF090E6A0E020E1F9BFA2028023A8
:20072300BFE0028021BFE1028028BFE202802FBFE3028033BFE4028047BFE502804BBFE6FF
:200743005E80530205E490E740E0F54C7582000200E390E740E0F54C7582010200E390E79A
:2007630040E0F58202041490E740E0FFBF010DD2A0C2A1850C0E850D0F12032C75820122F2
:2007830090E740E0F58202028C90E740E0F58212022E7582012290E740E0F5820204CD75F8
:2007A30082002290E613E4F090E615F090E6C2F090E6C37480F090E6C0E4F090E6F4F012FF
:2007C300030F754C017582001200E3754C017582011200E375820112041475820212028CEC
:2007E30075820002036B90E600E054E74410F01209051207A6D2E890E668E0FF4307089082
:20080300E668EFF090E65CE0FF43070190E65CEFF0E0FF43071090E65CEFF0E0FF430720C8
:2008230090E65CEFF0E0FF43070890E65CEFF0D2DDD2AF75CA3075CBF875C800D2ADD2CAF3
:2008430090E680E043E00AF09005DC1213A390E680E053E0F7F090E672E4F090E671F09056
:20086300E670F075B109F5A0F58075B6FF75B4FF75B2FFC2A0D2A11000028003120EE31001
:20088300010280F390E682E043E0C0F090E6817401F0AE877F004306018E870000000000C5
:2008A3000000E513701C90E682E030E60790E682E020E0D090E682E030E70790E682E02026
:2008C300E1C290E682E030E60790E682E020E00E90E682E030E7A090E682E030E1999000F6
:2008E300051213A390E680E0FF43070190E680EFF090000F1213A390E680E053E0FEF002D3
:20090300087A7E107F3E754C30754D31754E32754F3375503475513575523675533775547E
:2009230038755539755641755742755843755944755A45755B4674182EFCE43FFD90E507C1
:20094300E0FB5303F0E4C4CBC4540F6BCB540FCB6BCB30E30244F0EB244CF987038C828D7D
:2009630083EBF074162EFCE43FFD90E507E0FB53030FEB244CF987038C828D83EBF0741427
:200983002EFCE43FFD90E508E0FB5303F0E4C4CBC4540F6BCB540FCB6BCB30E30244F0EB04
:2009A300244CF987038C828D83EBF074122EFCE43FFD90E508E0FB53030FEB244CF98703DD
:2009C3008C828D83EBF074102EFCE43FFD90E509E0FB5303F0E4C4CBC4540F6BCB540FCBB0
:2009E3006BCB30E30244F0EB244CF987038C828D83EBF0740E2EFCE43FFD90E509E0FB5326
:200A0300030FEB244CF987038C828D83EBF0740C2EFCE43FFD90E50AE0FB5303F0E4C4CB0D
:200A2300C4540F6BCB540FCB6BCB30E30244F0EB244CF987038C828D83EBF0740A2EFCE446
:200A43003FFD90E50AE0FB53030FEB244CF987038C828D83EBF074082EFCE43FFD90E50B7B
:200A6300E0FB5303F0E4C4CBC4540F6BCB540FCB6BCB30E30244F0EB244CF987038C828D5C
:200A830083EBF074062EFCE43FFD90E50BE0FB53030FEB244CF987038C828D83EBF0740422
:200AA3002EFCE43FFD90E50CE0FB5303F0E4C4CBC4540F6BCB540FCB6BCB30E30244F0EBDF
:200AC300244CF987038C828D83EBF074022EFEE43FFF90E50CE0FD53050FED244CF98705BC
:070AE3008E828F83EDF022EB
:20145F00308000030000EA1E8000030000AA180100020140CA100101020040CA0F0100022F
:20147F0001408A0C0201020040CA0A01010200408A080302020040CA0602020200408A059B
:20149F0003020200408A040605020040CA0305040200408A0207070200408A010F0E02006D
:1E14BF00408A961E1D0200408A784B4A0200408A6E96950200408A6AFAF90200408A41
:203D000012010002FFFFFF40B50422600402010203010A0600020000004001000902890022
:203D200001010080FA0904000001FF000000070586020002000904000101FF000100070549
:203D400082010014010904000201FF00010007058201000C010904000301FF000100070502
:203D600082010004010904000401FF000100070582010004020904000501FF0001000705F5
:203D800082010004030904000601FF000100070582010004040904000701FF0001000705CD
:053DA000820100020495
:203DA6000902390002010080FA0904000001FF000000070586024000000904000101FF004D
:193DC600010007058201FF03010904000201FF00010007058201000201AF
:203DE0000403090416034F00700065006E00480061006E00740065006B00160344005300F9
:203E00004F002D003600300032003200420045001A03300030003000300030003000300068
:0C3E2000300030003000300030000000A6
:200AEA0085822CE5272522FDE5283523FE752D02903C00E4F0903C00E06004758200229009
:200B0A00E678E0FB7A0043038090E678EBF0E030E21090000AC006C0051213A3D005D006EF
:200B2A0080D3E52C25E0FB90E679F090E678E020E006903C00E060F3903C00E0600475828E
:200B4A00002290E678E020E2AC90E678E020E14090E678E0FB43034090E678EBF090E678D8
:200B6A00E030E606903C00E060F3903C00E0600475820022E52D14FB8B2D7003F5822290D2
:200B8A00000AC006C0051213A3D005D006020AFF7A007B00C3EA9DEB9E4003020C34C3EA3E
:200BAA009522EB95235016EA2524F8EB3525F9AC26888289838CF01213FAFC801DEAC395A4
:200BCA0022F8EB9523F9E82529F8E9352AF9AF2B888289838FF01213FAFC90E679ECF00A87
:200BEA00BA00010B90E678E020E006903C00E060F3903C00E060047582002290E678E0302B
:200C0A00E203020AFF90E678E020E18890E678E0FF43074090E678EFF090E678E030E60675
:200C2A00903C00E060F37582002290E678E0FF43074090E678EFF090E678E030E606903CB8
:200C4A0000E060F3903C00E060047582002275820122858233903C00E4F004B52E0814B582
:200C6A002F0474018001E4FE903C00E06004758200227C007D0090E678E0FB43038090E638
:200C8A0078EBF0E030E20C90000AC0061213A3D00680D5E53325E0FB3395E0FA4303019015
:200CAA00E679EBF090E678E020E006903C00E060F3903C00E060047582002290E678E02006
:200CCA00E2A690E678E020E11E90E678E0FB43034090E678EBF090E678E030E606903C00C7
:200CEA00E060F375820022EE600F90E678E0FB7A0043032090E678EBF090E679E0E4F534F3
:200D0A00F53574012534F8E43535F9C3E8952EE9952F506C90E678E020E006903C00E060DB
:200D2A00F3903C00E060047582002290E678E030E203020C7274022534F8E43535F9E8B57F
:200D4A002E13E9B52F0F90E678E0F8790043002090E678E8F0A834A9350534E4B53402053D
:200D6A0035AC34AD35E82530F8E93531F9AF3290E679E0FB888289838FF0121348020D0C2D
:200D8A0090E678E020E006903C00E060F3903C00E060047582002290E678E030E203020C5C
:200DAA007290E678E0FF43074090E678EFF0EC2530FCED3531FDAF3290E679E08C828D8338
:200DCA008FF012134890E678E030E606903C00E060F3903C00E060047582002275820122F1
:200DEA0085823DE4F541F542AB36AC37C3E5419538E54295394003020E7B7A0090E678E0CF
:200E0A0030E4067A018C078F3EEA04FFEA243EF98B02A702EF04FAEF243EF9AE41AF42054F
:200E2A0041E4B541020542EE253AFEEF353BFFAD3C8E828F838DF01213FAF78A22752300B9
:200E4A0075243E752500752640E4F527F528F529F52AF52B853D82C004C003120AEAE5828A
:200E6A00D003D0047003F582220BBB00010C020DF675820122AF827E0090E678E030E4062C
:200E8A007E01AD448D4AEE04FDEE244AF9AE43A7068D2275230075244A752500752640E49C
:200EAA00F527F528F529F52AF52B8F82C007120AEAE582D0077003F5822285452E85462F78
:190ECA008547308548318549328F82120C5CE5827003F5822275820122FD
:06008800E478FFF6D8FD4C
:1200CE007512007513007514A675153D75161C75173DAB
:200EE30090E6B9E0FF24F45003021011EF240A83F582EF241083F583E4731531114D111101
:200F030069117990B2EC0F0F100F10100F100F0F0F0F121093E582600302102D90E6A0E041
:200F2300FF7E0043070190E6A0EFF002102D121127E582600302102D90E6A0E0FF7E0043A9
:200F4300070190E6A0EFF002102D1211A2E582600302102D90E6A0E0FF7E0043070190E650
:200F6300A0EFF002102D1206EDE582600302102D12126302102D1205DCAF8290E740EFF022
:200F830090E68AE4F090E68B04F002102D90E6BAE0F5821205E0E582600302102D90E6A0A9
:200FA300E0FF7E0043070190E6A0EFF002102D90E6BCE0FF754C11754D00754E408F821287
:200FC30005B9E582701190E6A0E0FF7E0043070190E6A0EFF0805390E740E511F090E68A45
:200FE300E4F090E68B04F0804190E6BCE0FF90E6BAE0F5108F821205CEE582702D90E6A02E
:20100300E0FF7E0043070190E6A0EFF0801C90E6B9E0F5821206F1E582700F90E6A0E0FF2A
:201023007E0043070190E6A0EFF090E6A0E0FF43078090E6A0EFF022AF82747F5FFE24F77D
:20104300500302108FEE240A83F582EE240D83F583E473686C7F8F838F878F8B101010103D
:20106300101010101090E6A022EF30E7067EA27FE680047EA17FE68E828F832290E6A322CD
:2010830090E6A42290E6A52290E6A6229000002290E6B8E0FFBF80028022BF81028008BF6B
:2010A3008202803702111F90E740E4F090E741F090E68AF090E68B7402F08064E51325E055
:2010C300FFE512420790E740EFF090E741E4F090E68AF090E68B7402F0804590E6BCE0F589
:2010E3008212103BAE82AF838E048F05EE4F7003F582228C828D83E0FC30E0067E017F002F
:2011030080047E007F0090E740EEF090E741E4F090E68AF090E68B7402F080047582002236
:201123007582012290E6B8E0FF6005BF0264801B90E6BAE0FFBF0105751300805E90E6BAF6
:20114300E0FFBF060280547582002290E6BAE0703D90E6BCE0F58212103BAE82AF83E0FD17
:201163005305FE8E828F83EDF090E6BCE0FF30E7098F057E004305108D0753071F90E68376
:20118300EFF07E0043072090E683EFF0800D7582002290E6B9E0F5820206F17582012290DE
:2011A300E6B8E0FF6008BF0202802902122B90E6BAE0FFBF020302123490E6BAE0FFBF01B2
:2011C30005751301806B90E6BAE0FFBF060280617582002290E6BAE0704A90E6BCE0F58270
:2011E30012103BAE82AF83EE4F7003F582228E828F83E0FD7C004305018E828F83EDF09091
:20120300E6BCE0FF30E7098F057E004305108D0753071F90E683EFF07E0043072090E683FA
:20122300EFF0800D7582002290E6B9E0F5820206F175820122AF827E0110AF027E00EF604F
:201243000E75141C75153D7516A675173D800C7514A675153D75161C75173DEE1392AF22C1
:2012630090E6BBE0FFBF01028019BF02028024BF0302802CBF060302131DBF070302132D24
:2012830002133A7E007F3D90E6B3EFF090E6B47400F02290E6B3E515F090E6B4E514F022C2
:2012A3007DE07E3D7F8090E6BAE0F54C7B008B020BEAB54C0280428D008E018F028D828EB7
:2012C300838FF01213FA28F8E439F9880589068A0774012DF9E43EFA8F0489828A838CF029
:2012E3001213FAF9B9030280067D007E007F00ED4E6006C3E54C9B50B5ED4E600F8D038E18
:201303000490E6B3ECF090E6B4EDF02290E6A0E0FF43070190E6A0EFF0227E127F3D90E67F
:20132300B3EFF090E6B47412F02290E6B3E517F090E6B4E516F02290E6A0E0FF430701903A
:05134300E6A0EFF0221E
:200066007900E94400601B7A009014DD780175923CE493F2A308B800020592D9F4DAF2752F
:0200860092FFE7
:1B13480020F71130F6138883A88220F509F6A8837583002280FEF280F5F022A4
:203F00000201350002145D00021452000201E30002014D000201980002144F0002139700AC
:203F20000213990002139A0002139B0002139E0002145C0002145E000213630002136500E9
:203F4000021454000213970002141600021450000214510002145300021455000214560012
:203F60000213F9000213970002139700021397000213980002139C0002139F000213A10067
:203F800002139D000213A0000213A2000213F8000213660002139100021393000213950083
:183FA000021367000213920002139400021396000213640002145B00A8
:011363003257
:011364003256
:011365003255
:011366003254
:011367003253
:20008E007800E84400600A790075923CE4F309D8FC7801E84400600C7901903C00E4F0A306
:0400AE00D8FCD9FAA7
:201368007A10E4FBFCE58225E0F582E58333F583EB33FBEC33FCEB954CF5F0EC954D400611
:09138800FCABF0438201DADD2226
:011391003229
:011392003228
:011393003227
:011394003226
:011395003225
:011396003224
:011397003223
:011398003222
:011399003221
:01139A003220
:01139B00321F
:01139C00321E
:01139D00321D
:01139E00321C
:01139F00321B
:0113A000321A
:0113A1003219
:0113A2003218
:2013A300AE82AF8390E600E05418C423541F70057CB1FD801C90E600E05418C423541FFB5A
:2013C300BB01067A617B0180047AC27B028A048B058C4C8D4D154C74FFB54C02154DE54C7A
:1513E300454D70F1EE24FFFAEF34FFFB8A068B07EA4B70DD2214
:0113F80032C2
:0113F90032C1
:0D00590075815B121457E5826003020056AA
:1C13FA0020F71430F6148883A88220F507E6A88375830022E280F7E49322E02202
:0114160032A3
:20141700C2D5E58330E70DD2D5E4C39582F582E49583F583E54D30E70DB2D5E4C3954CF5E8
:181437004CE4954DF54D12136830D50BE4C39582F582E49583F58322E1
:01144F00326A
:011450003269
:011451003268
:011452003267
:011453003266
:011454003265
:011455003264
:011456003263
:041457007582002278
:01145B00325E
:01145C00325D
:01145D00325C
:01145E00325B
:00000001FF
