:04000000020059326F
:01000B0032C2
:0100130032BA
:01001B0032B2
:0100230032AA
:03002B00020219B5
:0300330002015077
:01003B003292
:03004300023F0079
:01004B003282
:03005300023F0069
:1C00B200750800750900750A02750B00750CF4750D01750EF4750F01C200C201BD
:0300E000020056C5
:0300560002083D60
:2000E300E582FF30E00543B10A800353B1F5EF30E40543B101800353B1FE75820122AF823B
:200103007401B5180280157402B5180280127405B51802800F740AB51812800C7E2480103A
:200123007E12800C7E0080087E36800475820022EF60067D707F0080047D0E7F00EDF4FF1A
:20014300E5805207ED5E4FF58075820122C2DC32C0E0C082C083D2005391EF90E65D7401D3
:20016300F0D083D082D0E032C021C0E0C0F0C082C083C007C006C005C004C003C002C001F3
:20018300C000C0D075D00075820012117B5391EF90E65D7410F0D0D0D000D001D002D00332
:2001A300D004D005D006D007D083D082D0F0D0E0D02132C021C0E0C0F0C082C083C007C071
:2001C30006C005C004C003C002C001C000C0D075D00075820112117B5391EF90E65D7420E2
:2001E300F0D0D0D000D001D002D003D004D005D006D007D083D082D0F0D0E0D02132C0E0F8
:20020300C082C083D2015391EF90E65D7408F0D083D082D0E032C0E0C0D0B2A2E50E450F1F
:200223006019150E74FFB50E02150FE50E450F700A850C0E850D0FB2A0D2A1C2CFD0D0D0FC
:20024300E032850A18751900905DC012153EAE82AF83AC097D00C3EC9EED64808FF063F0BE
:200263008095F0400990E640E053E07FF02290E640E043E080F02285820A7401B50A0280C1
:20028300057402B50A18AF0A74072FF50B90E618F090E61AE50BF01202457582012275824E
:2002A300002290E6F574FFF000000000E5BB30E7FB90E6047480F00000000090E618E4F0D9
:2002C3000000000090E61AE4F00000000090E6047402F00000000090E6047406F0000000F3
:2002E3000090E618E50BF00000000090E61AE50BF00000000090E604E4F02290E6F574FFCF
:20030300F000000000E50870057E06FF80047E027F0090E648EEF022D2871202A57EE87FCD
:20032300031EBEFF011FEE4F70F7E5BB30E7FB0000000090E6D07428F00000000090E6D14D
:20034300E4F0E50870057E06FF80047E047F008EBB22AF8290E680E030E7067D1C7E3D80F9
:20036300047DA67E3DEF75F010A42416FBE435F0FCEB2DFDEC3EFC7E80EFF508703590E616
:2003830012E4F090E61474E0F090E6E27401F08D828C838EF012152190E625F074012DFADE
:2003A300E43CFB8E078A828B838FF012152190E624F02290E61274D8F090E614E4F090E665
:2003C300D204F08D828C838EF012152190E621F00DBD00010C8D828C838EF0121521FF909F
:2003E300E62074075FF08D828C838EF0121521C423541F90E64004F0020245AF827E00EE5C
:2004030075F005A4FCADF0244AF582ED3419F583E493FBB5070280080EBE19E37582002202
:20042300EC244AFCED3419FD8C828D83A3A3A3A3E49390E601F08C828D83A3E493FDA3E4E8
:2004430093FEA3E493FF75AF07759DE4759E007C208C031CEB60168D828E838FF01215212C
:20046300FBA3AD82AE8390E67CEBF080E47F608F061FEE600790E67CE4F080F3758201220F
:20048300E582FF70087B64FCFDFE020510EF249B401D8F18751900751A00751B009003E8B4
:2004A300E4F5F01212BBAB82AC83ADF0FE805EBF670A7B207C007D007E008051EF2437401F
:2004C300288F017A00E9249CF9EA34FF8918F5193395E0F51AF51B90000AE4F5F01212BB70
:2004E300AB82AC83ADF0FE80247A00EF2438FFEA34FF8F18F5193395E0F51AF51B9000640D
:20050300E4F5F01212BBAB82AC83ADF0FEC3EB9420EC9400ED9400EE64809480401474A088
:200523009B74869C74019D74808EF063F08095F0500475820022751802E4F519F51AF51B9E
:200543008B828C838DF0EEC006C005C004C003121359A882A983D003D004D005D006880C45
:20056300890D8B828C838DF0EE120D9EAC82AD83AEF0FFC004C005C006C00790240075F074
:20058300F474C912145EAC82AD83AEF0FFE58124FCF5818C828D838EF0EF120DCBAC82AD5C
:2005A300838CCA8DCB75820122AD18AE19AF1A8D828E838FF0E50812129D75820122E582CA
:2005C300700685108212035575820122758200227582012290E6BBE0FE7F0090E6BAE07CBA
:2005E300004207EC420690E6BFE0FC7D0090E6BEE07A004205EA420490E6A0E020E1F99068
:20060300E6B8E0FBBB40028073BBC00280030206D8ED4C70030206DCC374409DE49C500614
:200623007A407B0080048D028C0390E6A0E020E1F98A457546007547407548E77549008F79
:20064300438E44758251C007C006C005C004C002120CD5D002D004D005D006D00790E68A47
:20066300E4F00000000090E68BEAF07B00EDC39AFDEC9BFCEA2FFFEB3EFE8095ED4C60593D
:2006830090E68BE4F090E6A0E020E1F990E68BE0FB8B38753900753A40753BE7753C008F7F
:2006A300368E37758251C007C006C005C004C003120C40E582D003D004D005D006D00770BD
:2006C30003F582227A00EB2FFFEA3EFEEDC39BFDEC9AFC80A77582002275820122758200A7
:2006E30022AF82C0071202FED007C2A0D2A1850C0E850D0FBFE0004015EF2419401090E6F9
:200703008AE4F090E68BF090E6A0E020E1F9BFA2028023BFE0028021BFE1028028BFE20262
:20072300802FBFE3028033BFE4028046BFE502804ABFE659804E0205D790E740E0F5187512
:20074300820002010190E740E0F51875820102010190E740E0F5820203FE90E740E0FFBF0A
:20076300010CD2A0C2A1E4F50EF50F12031B7582012290E740E0F58202027A90E740E0F547
:20078300820200E390E740E0F5820204837582002290E613E4F090E615F0D28790E6C2E4F2
:2007A300F090E6C37480F090E6C0E4F090E6F4F01202FE7518017582001201017518017517
:2007C30082011201017582011203FE75820212027A7582000203557E107F3E751806AC18FA
:2007E3001518EC605474022EFBE43FFC8B018C02E5182407F582E434E5F583E0F853000F03
:200803007D00E824C7F582ED3419F583E49389828A83F074022BFBE43CFC8B068C07E51804
:200823002407F582E434E5F583E0C4540F9019C793FD8B828C83F080A52290E600E054E7B3
:200843004410F01207DA120794D2E890E668E043E008F090E65CE043E001F090E65CE04363
:20086300E010F090E65CE043E020F090E65CE043E008F0D2DDD2AF75CA3075CBF875C800CF
:20088300D2ADD2CA90E680E043E00AF09005DC1213B890E680E053E0F7F090E6727404F0B9
:2008A30090E671E4F090E670F075B10BF5A0F58075B6FF75B4FF75B2FFC2A0D2A11000020A
:2008C3008003120E2610010280F390E682E043E0C0F090E6817401F04387010000000000F4
:2008E3000000E513701C90E682E030E60790E682E020E0D690E682E030E70790E682E020E0
:20090300E1C890E682E030E60790E682E020E00E90E682E030E7A690E682E030E19F9000A3
:1D092300051213B890E680E043E001F090000F1213B890E680E053E0FEF00208C0AE
:20162A000F0E00000000000002000100000000005055550000000000000000000000000086
:20164A00010100000000000002000100000000005055550000000000000000000000000081
:20166A00FAFAFAFAFAF9000002000000000001005055555555555500000000000000000034
:20168A00FAFAFAFAFAF9000002000000000001005055555555555500000000000000000014
:2016AA00FAFAF90000000000020000010000000050555555000000000000000000000000E1
:2016CA00C8C8C7000000000002000001000000005055555500000000000000000000000057
:2016EA00FAFAF90000000000020000010000000050555555000000000000000000000000A1
:20170A00969500000000000002000100000000005055550000000000000000000000000097
:20172A00BBBB0000000000000200010000000000505555000000000000000000000000002C
:20174A0002010000000000000200010000000000505555000000000000000000000000007F
:20176A004B4A000000000000020001000000000050555500000000000000000000000000CD
:20178A002525000000000000020001000000000050555500000000000000000000000000F8
:2017AA00010000000000000002010000000000005055000000000000000000000000000076
:2017CA001E1D000000000000020001000000000050555500000000000000000000000000C7
:2017EA000101000000000000020001000000000050555500000000000000000000000000E0
:20180A00252500000000000002000100000000005055550000000000000000000000000077
:20182A00070700000000000002000100000000005055550000000000000000000000000093
:20184A000100000000000000020100000000000050550000000000000000000000000000D5
:20186A00050400000000000002000100000000005055550000000000000000000000000058
:20188A008000000000000000030000000000000000000000000000000000000000000000BB
:2018AA00060500000000000002000100000000005055550000000000000000000000000016
:2018CA0080000000000000000300000000000000000000000000000000000000000000007B
:2018EA000302000000000000020001000000000050555500000000000000000000000000DC
:20190A000202000000000000020001000000000050555500000000000000000000000000BC
:20192A0003020000000000000200010000000000505555000000000000000000000000009B
:20194A0030CA1880EA1E8A1880AA184A1880CA10EA1780CA0FAA17808A0C4A1780CA0A4A13
:20196A0016808A082A1980CA060A19808A05EA18808A04AA1880CA036A18808A022A188001
:20198A008A012A16808AA40A18808A96CA17808A8C8A17808A786A17808A712A1780CA6E73
:2019AA000A17808A6AEA1680CA69CA16808A68AA16808A678A1680CA666A16808A303132E5
:0D19CA003334353637383941424344454601
:203D000012010002FFFFFF40B5042A601002010203010A060002000000400100090289000E
:203D200001010080FA0904000001FF000000070586020002000904000101FF000100070549
:203D400082010014010904000201FF00010007058201000C010904000301FF000100070502
:203D600082010004010904000401FF000100070582010004020904000501FF0001000705F5
:203D800082010004030904000601FF000100070582010004040904000701FF0001000705CD
:053DA000820100020495
:203DA6000902390002010080FA0904000001FF000000070586024000000904000101FF004D
:193DC600010007058201FF03010904000201FF00010007058201000201AF
:203DE0000403090416034F00700065006E00480061006E00740065006B00160344005300F9
:203E00004F002D00360030003200320042004C001A03300030003000300030003000300061
:0C3E2000300030003000300030000000A6
:2009400085822CE5272522FDE5283523FE752D02903C00E4F0903C00E060047582002290B4
:20096000E678E0FB7A0043038090E678EBF0E030E21090000AC006C0051213B8D005D00686
:2009800080D3E52C25E0FB90E679F090E678E020E006903C00E060F3903C00E0600475823A
:2009A000002290E678E020E2AC90E678E020E14090E678E0FB43034090E678EBF090E67884
:2009C000E030E606903C00E060F3903C00E0600475820022E52D14FB8B2D7003F58222907E
:2009E000000AC006C0051213B8D005D0060209557A007B00C3EA9DEB9E4003020A8AC3EA2C
:200A00009522EB95235016EA2524F8EB3525F9AC26888289838CF0121521FC801DEAC39526
:200A200022F8EB9523F9E82529F8E9352AF9AF2B888289838FF0121521FC90E679ECF00A09
:200A4000BA00010B90E678E020E006903C00E060F3903C00E060047582002290E678E030D6
:200A6000E20302095590E678E020E18890E678E0FF43074090E678EFF090E678E030E606CC
:200A8000903C00E060F37582002290E678E0FF43074090E678EFF090E678E030E606903C64
:200AA00000E060F3903C00E060047582002275820122858233903C00E4F004B52E0814B52E
:200AC0002F0474018001E4FE903C00E06004758200227C007D0090E678E0FB43038090E6E4
:200AE00078EBF0E030E20C90000AC0061213B8D00680D5E53325E0FB3395E0FA43030190AC
:200B0000E679EBF090E678E020E006903C00E060F3903C00E060047582002290E678E020B1
:200B2000E2A690E678E020E11E90E678E0FB43034090E678EBF090E678E030E606903C0072
:200B4000E060F375820022EE600F90E678E0FB7A0043032090E678EBF090E679E0E4F5349E
:200B6000F53574012534F8E43535F9C3E8952EE9952F506C90E678E020E006903C00E06087
:200B8000F3903C00E060047582002290E678E030E203020AC874022534F8E43535F9E8B5D7
:200BA0002E13E9B52F0F90E678E0F8790043002090E678E8F0A834A9350534E4B5340205E9
:200BC00035AC34AD35E82530F8E93531F9AF3290E679E0FB888289838FF012129D020B6231
:200BE00090E678E020E006903C00E060F3903C00E060047582002290E678E030E203020A0A
:200C0000C890E678E0FF43074090E678EFF0EC2530FCED3531FDAF3290E679E08C828D838D
:200C20008FF012129D90E678E030E606903C00E060F3903C00E06004758200227582012248
:200C400085823DE4F541F542AB36AC37C3E5419538E54295394003020CD17A0090E678E026
:200C600030E4067A018C078F3EEA04FFEA243EF98B02A702EF04FAEF243EF9AE41AF4205FB
:200C800041E4B541020542EE253AFEEF353BFFAD3C8E828F838DF0121521F78A227523003C
:200CA00075243E752500752640E4F527F528F529F52AF52B853D82C004C003120940E582E1
:200CC000D003D0047003F582220BBB00010C020C4C75820122AF827E0090E678E030E40683
:200CE0007E01AD448D4AEE04FDEE244AF9AE43A7068D2275230075244A752500752640E448
:200D0000F527F528F529F52AF52B8F82C007120940E582D0077003F5822285452E85462FCE
:190D20008547308548318549328F82120AB2E5827003F582227582012254
:200D3900FB7A20E4FCFDFEFFE5822582F582E58333F583E5F033F5F0EB33FB4017DAE980F3
:200D590042E5822582F582E58333F583E5F033F5F0EB33FBEC33FCED33FDEE33FEEF33FF22
:200D7900EC9518ED9519EE951AEF951B4013EC9518FCED9519FDEE951AFEEF951BFF43826C
:050D990001DABEEB22AF
:06008800E478FFF6D8FD4C
:200D9E00FCABF0AA83A982749EF582C2D1EC30E716D2D1E9F42401F9EAF43400FAEBF43454
:0D0DBE0000FBECF43400FC1215EF02140EE3
:200DCB0012128BC3749E9582403979001215AC30D126E9F42401F582EAF43400F583EBF49F
:200DEB003400F5F0ECF43400700AE582458345F0700122E430E70F22EC20E71489828A83FF
:1B0E0B008BF02230D10AE4F582F583F5F074802274FFF582F583F5F0747F22FA
:1200CE007512007513007514A675153D75161C75173DAB
:200E260090E6B9E0FF24F45003020F54EF240A83F582EF241083F583E473587454905454EA
:200E4600AC54BCD3F52F0E0E0F0E0F0F0E0F0E0E0E0F120FD6E5826003020F7090E6A0E0F4
:200E6600FF7E0043070190E6A0EFF0020F7012106AE5826003020F7090E6A0E0FF7E0043A1
:200E8600070190E6A0EFF0020F701210E5E5826003020F7090E6A0E0FF7E0043070190E648
:200EA600A0EFF0020F701206E0E5826003020F701211A6020F701205CFAF8290E740EFF0F2
:200EC60090E68AE4F090E68B04F0020F7090E6BAE0F5821205D3E5826003020F7090E6A0F0
:200EE600E0FF7E0043070190E6A0EFF0020F7090E6BCE0FF751811751900751A408F82129F
:200F060005ACE582701190E6A0E0FF7E0043070190E6A0EFF0805390E740E511F090E68A0F
:200F2600E4F090E68B04F0804190E6BCE0FF90E6BAE0F5108F821205C1E582702D90E6A0F8
:200F4600E0FF7E0043070190E6A0EFF0801C90E6B9E0F5821206E4E582700F90E6A0E0FFF5
:200F66007E0043070190E6A0EFF090E6A0E0FF43078090E6A0EFF022AF82747F5FFE24F73B
:200F86005003020FD2EE240A83F582EE240D83F583E473ABAFC2D2C6D2CAD2CE0F0F0F0F62
:200FA6000F0F0F0F0F90E6A022EF30E7067EA27FE680047EA17FE68E828F832290E6A32290
:200FC60090E6A42290E6A52290E6A6229000002290E6B8E0FFBF80028022BF81028008BF29
:200FE6008202803702106290E740E4F090E741F090E68AF090E68B7402F08064E51325E0D1
:20100600FFE512420790E740EFF090E741E4F090E68AF090E68B7402F0804590E6BCE0F546
:2010260082120F7EAE82AF838E048F05EE4F7003F582228C828D83E0FC30E0067E017F00AA
:2010460080047E007F0090E740EEF090E741E4F090E68AF090E68B7402F0800475820022F4
:201066007582012290E6B8E0FF6005BF0264801B90E6BAE0FFBF0105751300805E90E6BAB4
:20108600E0FFBF060280547582002290E6BAE0703D90E6BCE0F582120F7EAE82AF83E0FD93
:2010A6005305FE8E828F83EDF090E6BCE0FF30E7098F057E004305108D0753071F90E68334
:2010C600EFF07E0043072090E683EFF0800D7582002290E6B9E0F5820206E47582012290A9
:2010E600E6B8E0FF6008BF0202802902116E90E6BAE0FFBF020302117790E6BAE0FFBF01EC
:2011060005751301806B90E6BAE0FFBF060280617582002290E6BAE0704A90E6BCE0F5822D
:20112600120F7EAE82AF83EE4F7003F582228E828F83E0FD7C004305018E828F83EDF0900C
:20114600E6BCE0FF30E7098F057E004305108D0753071F90E683EFF07E0043072090E683B8
:20116600EFF0800D7582002290E6B9E0F5820206E475820122AF827E0110AF027E00EF601A
:201186000E75141C75153D7516A675173D800C7514A675153D75161C75173DEE1392AF227F
:2011A60090E6BBE0FFBF01028019BF02028024BF0302802CBF0603021260BF07030212705E
:2011C60002127D7E007F3D90E6B3EFF090E6B47400F02290E6B3E515F090E6B4E514F0223E
:2011E6007DE07E3D7F8090E6BAE0F5187B008B020BEAB5180280428D008E018F028D828EDD
:20120600838FF012152128F8E439F9880589068A0774012DF9E43EFA8F0489828A838CF0BD
:20122600121521F9B9030280067D007E007F00ED4E6006C3E5189B50B5ED4E600F8D038EE0
:201246000490E6B3ECF090E6B4EDF02290E6A0E0FF43070190E6A0EFF0227E127F3D90E63D
:20126600B3EFF090E6B47412F02290E6B3E517F090E6B4E516F02290E6A0E0FF43070190F8
:05128600E6A0EFF022DC
:200066007900E94400601B7A009019D7780175923CE493F2A308B800020592D9F4DAF27530
:0200860092FFE7
:12128B00AA82AB83A2F73392D1F5826002D2F7ACF02268
:1B129D0020F71130F6138883A88220F509F6A8837583002280FEF280F5F02250
:203F00000201530002162800021579000202010002016B000201B600021576000213AC0001
:203F20000213AE000213AF000213B0000213B30002162700021629000212B8000212BA0053
:203F400002157B000213AC0002153D00021577000215780002157A0002157C000215AB00B7
:203F600002145D000213AC000213AC000213AC000213AD000213B1000213B4000213B6006F
:203F80000213B2000213B5000213B70002140D000213290002135400021356000213580022
:183FA00002132A0002135500021357000213AB000212B9000216260029
:0112B8003203
:0112B9003202
:0112BA003201
:2012BB00AAF0FBE5828518F0A4FCADF0E5838518F0A42DFDE435F0FEE5828519F0A42DFDC0
:2012DB00E5F03EFEE433FFEA8518F0A42EFEE5F03FFFE5838519F0A42EFEE5F03FFFE58232
:2012FB00851AF0A42EFEE5F03FFFEB8518F0A42FFFEA8519F0A42FFFE583851AF0A42FFF04
:0E131B00E582851BF0A42F8EF08D838C82223C
:011329003291
:01132A003290
:20008E007800E84400600A790075923CE4F309D8FC7801E84400600C7901903C00E4F0A306
:0400AE00D8FCD9FAA7
:20132B007A10E4FBFCE58225E0F582E58333F583EB33FBEC33FCEB9518F5F0EC95194006B6
:09134B00FCABF0438201DADD2263
:011354003266
:011355003265
:011356003264
:011357003263
:011358003262
:20135900FBC2D530E715D2D5E4C39582F582E49583F583E495F0F5F0E49BFBE51B30E71770
:20137900B2D5E4C39518F518E49519F519E4951AF51AE4951BF51BEB120D3930D513FBE44C
:12139900C39582F582E49583F583E495F0F5F0E49B228E
:0113AB00320F
:0113AC00320E
:0113AD00320D
:0113AE00320C
:0113AF00320B
:0113B000320A
:0113B1003209
:0113B2003208
:0113B3003207
:0113B4003206
:0113B5003205
:0113B6003204
:0113B7003203
:2013B800AE82AF8390E600E05418C423541F70057CB1FD801C90E600E05418C423541FFB45
:2013D800BB01067A617B0180047AC27B028A048B058C188D19151874FFB518021519E5189D
:1513F800451970F1EE24FFFAEF34FFFB8A068B07EA4B70DD2233
:01140D0032AC
:20140E00B98003EA13B34010EA2401FAE43BFBE43CFC50047C800582BC000EBB000BBA0022
:20142E0008E4F5F0F583F58222A2D1E582138CF092F78B838A8222E4F583F58275F080F4E2
:0F144E00A2D11322E4F583F58275F0C0747F22DA
:01145D00325C
:20145E0012157D30D502B2D1BF0009BC0003021452021445BC000302142FE583B4FF0BE5E7
:20147E0082B4FF0302145202142FE582B4FF03021445C395835007247F400B02142F2480E8
:20149E00145003021445F582C3ED9AEE9BEF9C40111582C3EA33F9EB33FAEC33FBE433FC91
:2014BE008005E4CCCBCAF9C08275F019C3E99DEA9EEB9FEC9400D5F002802D400EE99DF96F
:2014DE00EA9EFAEB9FFBEC9400FCC3B3E833F8E58233F582E58333F583C3E933F9EA33FACF
:2014FE00EB33FBEC33FC80C4B3E4F938FAE43582FBE43583FCD082500405827C801215EF27
:03151E000214268E
:0D00590075814B121622E5826003020056ED
:1C15210020F71430F6148883A88220F507E6A88375830022E280F7E49322E022D9
:01153D00327B
:20153E00C2D5E58330E70DD2D5E4C39582F582E49583F583E51930E70DB2D5E4C39518F528
:18155E0018E49519F51912132B30D50BE4C39582F582E49583F5832292
:011576003242
:011577003241
:011578003240
:01157900323F
:01157A00323E
:01157B00323D
:01157C00323C
:20157D00AA82AB83A2F73392D1F5826002D2F7ACF0E58124F9F8E6FD08E6FE0886F008E6D1
:0E159D00A2F73392D5F5836002D2F7AFF022A9
:0115AB00320D
:2015AC006040F82582500274FFF582E824F8501ECCCBCAF9E4CC24F85014CBCAF9E4CB2447
:2015CC00F8500BCAF9E4CA24F8500379002224086010F8C3EC13FCEB13FBEA13FAE913F9FA
:0315EC00D8F12211
:2015EF007804EC7011E58224F8500AF582E4C9CACBFCD8EF22EC7820058220E713D58201FB
:13160F0022C3E933F9EA33FAEB33FBEC33FCD8EA15822208
:0416220075820022AB
:011626003291
:011627003290
:01162800328F
:01162900328E
:00000001FF
