:04000000020059326F
:01000B0032C2
:0100130032BA
:01001B0032B2
:0100230032AA
:03002B00020219B5
:0300330002015077
:01003B003292
:03004300023F0079
:01004B003282
:03005300023F0069
:1C00B200750800750900750A02750B00750CF4750D01750EF4750F01C200C201BD
:0300E000020056C5
:030056000207E1BD
:2000E300E582FF30E00543B10A800353B1F5EF30E40543B101800353B1FE75820122AF823B
:200103007401B54C0280157402B54C0280127405B54C02800F740AB54C12800C7E2480106A
:200123007E12800C7E0080087E36800475820022EF60067D707F0080047D0E7F00EDF4FF1A
:20014300E5805207ED5E4FF58075820122C2DC32C0E0C082C083D2005391EF90E65D7401D3
:20016300F0D083D082D0E032C021C0E0C0F0C082C083C007C006C005C004C003C002C001F3
:20018300C000C0D075D0007582001213045391EF90E65D7410F0D0D0D000D001D002D003A7
:2001A300D004D005D006D007D083D082D0F0D0E0D02132C021C0E0C0F0C082C083C007C071
:2001C30006C005C004C003C002C001C000C0D075D0007582011213045391EF90E65D742057
:2001E300F0D0D0D000D001D002D003D004D005D006D007D083D082D0F0D0E0D02132C0E0F8
:20020300C082C083D2015391EF90E65D7408F0D083D082D0E032C0E0C0D0B2A2E50E450F1F
:200223006019150E74FFB50E02150FE50E450F700A850C0E850D0FB2A0D2A1C2CFD0D0D0FC
:20024300E032850A4C754D00905DC01216C7AE82AF83AC097D00C3EC9EED64808FF063F0CC
:200263008095F0400990E640E053E07FF02290E640E043E080F02285820A7401B50A0280C1
:20028300057402B50A18AF0A74072FF50B90E618F090E61AE50BF01202457582012275824E
:2002A300002290E6F574FFF000000000E5BB30E7FB90E6047480F00000000090E618E4F0D9
:2002C3000000000090E61AE4F00000000090E6047402F00000000090E6047406F0000000F3
:2002E3000090E618E50BF00000000090E61AE50BF00000000090E604E4F02290E6F574FFCF
:20030300F000000000E50870057E06FF80047E027F0090E648EEF022D2871202A57EE87FCD
:2003230003EE24FFFCEF34FFFD8C068D07EC4D70F0E5BB30E7FB0000000090E6D07428F048
:200343000000000090E6D1E4F0E50870057E06FF80047E047F008EBB22AF8290E680E03073
:20036300E7067D1C7E3D80047DA67E3DEF75F010A42416FBE435F0FCEB2DFDEC3EFC7E805C
:20038300EFF508703590E612E4F090E61474E0F090E6E27401F08D828C838EF01216AA90E4
:2003A300E625F074012DFAE43CFB8E078A828B838FF01216AA90E624F02290E61274D8F018
:2003C30090E614E4F090E6D204F08D828C838EF01216AA90E621F00DBD00010C8D828C8396
:2003E3008EF01216AAFF90E62074075FF08D828C838EF01216AAC423541F90E64004F002D7
:200403000245AF827E00EE75F005A4FCADF024D3F582ED341AF583E493FBB5070280080E67
:20042300BE19E375820022EC24D3FCED341AFD8C828D83A3A3A3A3E49390E601F08C828DAC
:2004430083A3E493FDA3E493FEA3E493FF75AF07759DE4759E007C208C031CEB60168D82E3
:200463008E838FF01216AAFBA3AD82AE8390E67CEBF080E47F608F061FEE600790E67CE42A
:20048300F080F375820122E582FF70087B64FCFDFE020517EF249B401D8F4C754D00754E9F
:2004A30000754F009003E8E4F5F0121444AB82AC83ADF0FE805EBF670A7B207C007D007EB0
:2004C300008051EF243740288F017A00E9249CF9EA34FF894CF54D3395E0F54EF54F9000F7
:2004E3000AE4F5F0121444AB82AC83ADF0FE80247A00EF2438FFEA34FF8F4CF54D3395E07B
:20050300F54EF54F900064E4F5F0121444AB82AC83ADF0FEC3EB9420EC9400ED9400EE647E
:20052300809480401474A09B74869C74019D74808EF063F08095F0500475820022754C027F
:20054300E4F54DF54EF54F8B828C838DF0EEC006C005C004C0031214E2A882A983D003D051
:2005630004D005D006880C890D8B828C838DF0EE120F27AC82AD83AEF0FFC004C005C00686
:20058300C00790240075F0F474C91215E7AC82AD83AEF0FFE58124FCF5818C828D838EF0A6
:2005A300EF120F54AC82AD838CCA8DCB75820122AD4CAE4DAF4E8D828E838FF0E50812140B
:2005C3002675820122E582700685108212035C75820122758200227582012290E6BBE0FE17
:2005E3007F0090E6BAE07C004207EC420690E6BFE0FC7D0090E6BEE07A004205EA4204904D
:20060300E6A0E020E1F990E6B8E0FBBB40028073BBC00280030206DFED4C70030206E3C33D
:2006230074409DE49C50067A407B0080048D028C0390E6A0E020E1F98A4575460075474043
:200643007548E77549008F438E44758251C007C006C005C004C002120E5ED002D004D00578
:20066300D006D00790E68AE4F00000000090E68BEAF07B00EDC39AFDEC9BFCEA2FFFEB3E95
:20068300FE8095ED4C605990E68BE4F090E6A0E020E1F990E68BE0FB8B38753900753A4051
:2006A300753BE7753C008F368E37758251C007C006C005C004C003120DC9E582D003D0044E
:2006C300D005D006D0077003F582227A00EB2FFFEA3EFEEDC39BFDEC9AFC80A775820022C6
:2006E3007582012275820022AF82C0071202FED007C2A0D2A1850C0E850D0FBFE0004015DA
:20070300EF2419401090E68AE4F090E68BF090E6A0E020E1F9BFA2028023BFE0028021BF9E
:20072300E1028028BFE202802FBFE3028033BFE4028046BFE502804ABFE659804E0205DEF6
:2007430090E740E0F54C75820002010190E740E0F54C75820102010190E740E0F5820204DB
:200763000590E740E0FFBF010CD2A0C2A1E4F50EF50F12031B7582012290E740E0F58202F5
:20078300027A90E740E0F5820200E390E740E0F58202048A7582002290E613E4F090E61548
:2007A300F0D28790E6C2E4F090E6C37480F090E6C0E4F090E6F4F01202FE754C0175820095
:2007C300120101754C0175820112010175820112040575820212027A75820002035C90E6CC
:2007E30000E054E74410F01208E412079BD2E890E668E043E008F090E65CE043E001F090FC
:20080300E65CE043E010F090E65CE043E020F090E65CE043E008F0D2DDD2AF75CA3075CBFF
:20082300F875C800D2ADD2CA90E680E043E00AF09005DC12154190E680E053E0F7F090E633
:20084300727404F090E671E4F090E670F075B10BF5A0F58075B6FF75B4FF75B2FFC2A0D243
:20086300A11000028003120FAF10010280F390E682E043E0C0F090E6817401F04387010017
:20088300000000000000E513701C90E682E030E60790E682E020E0D690E682E030E70790A8
:2008A300E682E020E1C890E682E030E60790E682E020E00E90E682E030E7A690E682E030AC
:2008C300E19F90000512154190E680E043E001F090000F12154190E680E053E0FEF00208A6
:2008E300647E107F3E754C30754D31754E32754F3375503475513575523675533775543885
:20090300755539755641755742755843755944755A45755B4674182EFCE43FFD90E507E039
:20092300FB5303F0E4C4CBC4540F6BCB540FCB6BCB30E30244F0EB244CF987038C828D83FA
:20094300EBF074162EFCE43FFD90E507E0FB53030FEB244CF987038C828D83EBF074142E9C
:20096300FCE43FFD90E508E0FB5303F0E4C4CBC4540F6BCB540FCB6BCB30E30244F0EB242E
:200983004CF987038C828D83EBF074122EFCE43FFD90E508E0FB53030FEB244CF987038C95
:2009A300828D83EBF074102EFCE43FFD90E509E0FB5303F0E4C4CBC4540F6BCB540FCB6BF1
:2009C300CB30E30244F0EB244CF987038C828D83EBF0740E2EFCE43FFD90E509E0FB5303AE
:2009E3000FEB244CF987038C828D83EBF0740C2EFCE43FFD90E50AE0FB5303F0E4C4CBC46D
:200A0300540F6BCB540FCB6BCB30E30244F0EB244CF987038C828D83EBF0740A2EFCE43FEB
:200A2300FD90E50AE0FB53030FEB244CF987038C828D83EBF074082EFCE43FFD90E50BE0FA
:200A4300FB5303F0E4C4CBC4540F6BCB540FCB6BCB30E30244F0EB244CF987038C828D83D9
:200A6300EBF074062EFCE43FFD90E50BE0FB53030FEB244CF987038C828D83EBF074042E97
:200A8300FCE43FFD90E50CE0FB5303F0E4C4CBC4540F6BCB540FCB6BCB30E30244F0EB2409
:200AA3004CF987038C828D83EBF074022EFEE43FFF90E50CE0FD53050FED244CF987058E72
:060AC300828F83EDF0229A
:2017B3000F0E000000000000020001000000000050555500000000000000000000000000FC
:2017D3000101000000000000020001000000000050555500000000000000000000000000F7
:2017F300FAFAFAFAFAF90000020000000000010050555555555555000000000000000000AA
:20181300FAFAFAFAFAF9000002000000000001005055555555555500000000000000000089
:20183300FAFAF9000000000002000001000000005055555500000000000000000000000056
:20185300C8C8C70000000000020000010000000050555555000000000000000000000000CC
:20187300FAFAF9000000000002000001000000005055555500000000000000000000000016
:2018930096950000000000000200010000000000505555000000000000000000000000000D
:2018B300BBBB000000000000020001000000000050555500000000000000000000000000A2
:2018D3000201000000000000020001000000000050555500000000000000000000000000F5
:2018F3004B4A00000000000002000100000000005055550000000000000000000000000043
:2019130025250000000000000200010000000000505555000000000000000000000000006D
:201933000100000000000000020100000000000050550000000000000000000000000000EB
:201953001E1D0000000000000200010000000000505555000000000000000000000000003C
:20197300010100000000000002000100000000005055550000000000000000000000000055
:201993002525000000000000020001000000000050555500000000000000000000000000ED
:2019B300070700000000000002000100000000005055550000000000000000000000000009
:2019D30001000000000000000201000000000000505500000000000000000000000000004B
:2019F3000504000000000000020001000000000050555500000000000000000000000000CE
:201A1300800000000000000003000000000000000000000000000000000000000000000030
:201A330006050000000000000200010000000000505555000000000000000000000000008B
:201A53008000000000000000030000000000000000000000000000000000000000000000F0
:201A7300030200000000000002000100000000005055550000000000000000000000000051
:201A9300020200000000000002000100000000005055550000000000000000000000000032
:201AB300030200000000000002000100000000005055550000000000000000000000000011
:201AD30030531A80EA1E131A80AA18D31980CA10731980CA0F3319808A0CD31880CA0AD3C0
:201AF30017808A08B31A80CA06931A808A05731A808A04331A80CA03F319808A02B3198038
:201B13008A01B317808AA49319808A965319808A8C1319808A78F318808A71B31880CA6EAA
:1D1B33009318808A6A731880CA695318808A683318808A67131880CA66F317808AB0
:203D000012010002FFFFFF40B5042A601002010203010A060002000000400100090289000E
:203D200001010080FA0904000001FF000000070586020002000904000101FF000100070549
:203D400082010014010904000201FF00010007058201000C010904000301FF000100070502
:203D600082010004010904000401FF000100070582010004020904000501FF0001000705F5
:203D800082010004030904000601FF000100070582010004040904000701FF0001000705CD
:053DA000820100020495
:203DA6000902390002010080FA0904000001FF000000070586024000000904000101FF004D
:193DC600010007058201FF03010904000201FF00010007058201000201AF
:203DE0000403090416034F00700065006E00480061006E00740065006B00160344005300F9
:203E00004F002D00360030003200320042004C001A03300030003000300030003000300061
:0C3E2000300030003000300030000000A6
:200AC90085822CE5272522FDE5283523FE752D02903C00E4F0903C00E0600475820022902A
:200AE900E678E0FB7A0043038090E678EBF0E030E21090000AC006C005121541D005D00671
:200B090080D3E52C25E0FB90E679F090E678E020E006903C00E060F3903C00E060047582AF
:200B2900002290E678E020E2AC90E678E020E14090E678E0FB43034090E678EBF090E678F9
:200B4900E030E606903C00E060F3903C00E0600475820022E52D14FB8B2D7003F5822290F3
:200B6900000AC006C005121541D005D006020ADE7A007B00C3EA9DEB9E4003020C13C3EA01
:200B89009522EB95235016EA2524F8EB3525F9AC26888289838CF01216AAFC801DEAC39512
:200BA90022F8EB9523F9E82529F8E9352AF9AF2B888289838FF01216AAFC90E679ECF00AF5
:200BC900BA00010B90E678E020E006903C00E060F3903C00E060047582002290E678E0304C
:200BE900E203020ADE90E678E020E18890E678E0FF43074090E678EFF090E678E030E606B8
:200C0900903C00E060F37582002290E678E0FF43074090E678EFF090E678E030E606903CD9
:200C290000E060F3903C00E060047582002275820122858233903C00E4F004B52E0814B5A3
:200C49002F0474018001E4FE903C00E06004758200227C007D0090E678E0FB43038090E659
:200C690078EBF0E030E20C90000AC006121541D00680D5E53325E0FB3395E0FA4303019096
:200C8900E679EBF090E678E020E006903C00E060F3903C00E060047582002290E678E02027
:200CA900E2A690E678E020E11E90E678E0FB43034090E678EBF090E678E030E606903C00E8
:200CC900E060F375820022EE600F90E678E0FB7A0043032090E678EBF090E679E0E4F53414
:200CE900F53574012534F8E43535F9C3E8952EE9952F506C90E678E020E006903C00E060FD
:200D0900F3903C00E060047582002290E678E030E203020C5174022534F8E43535F9E8B5C1
:200D29002E13E9B52F0F90E678E0F8790043002090E678E8F0A834A9350534E4B53402055E
:200D490035AC34AD35E82530F8E93531F9AF3290E679E0FB888289838FF0121426020CEB91
:200D690090E678E020E006903C00E060F3903C00E060047582002290E678E030E203020C7D
:200D89005190E678E0FF43074090E678EFF0EC2530FCED3531FDAF3290E679E08C828D837A
:200DA9008FF012142690E678E030E606903C00E060F3903C00E06004758200227582012233
:200DC90085823DE4F541F542AB36AC37C3E5419538E54295394003020E5A7A0090E678E011
:200DE90030E4067A018C078F3EEA04FFEA243EF98B02A702EF04FAEF243EF9AE41AF420571
:200E090041E4B541020542EE253AFEEF353BFFAD3C8E828F838DF01216AAF78A2275230027
:200E290075243E752500752640E4F527F528F529F52AF52B853D82C004C003120AC9E582CC
:200E4900D003D0047003F582220BBB00010C020DD575820122AF827E0090E678E030E4066E
:200E69007E01AD448D4AEE04FDEE244AF9AE43A7068D2275230075244A752500752640E4BD
:200E8900F527F528F529F52AF52B8F82C007120AC9E582D0077003F5822285452E85462FBA
:190EA9008547308548318549328F82120C3BE5827003F58222758201223F
:200EC200FB7A20E4FCFDFEFFE5822582F582E58333F583E5F033F5F0EB33FB4017DAE98069
:200EE20042E5822582F582E58333F583E5F033F5F0EB33FBEC33FCED33FDEE33FEEF33FF98
:200F0200EC954CED954DEE954EEF954F4013EC954CFCED954DFDEE954EFEEF954FFF438241
:050F220001DABEEB2224
:06008800E478FFF6D8FD4C
:200F2700FCABF0AA83A982749EF582C2D1EC30E716D2D1E9F42401F9EAF43400FAEBF434C9
:0D0F470000FBECF43400FC12177802159743
:200F5400121414C3749E95824039790012173530D126E9F42401F582EAF43400F583EBF4FE
:200F74003400F5F0ECF43400700AE582458345F0700122E430E70F22EC20E71489828A8374
:1B0F94008BF02230D10AE4F582F583F5F074802274FFF582F583F5F0747F2270
:1200CE007512007513007514A675153D75161C75173DAB
:200FAF0090E6B9E0FF24F450030210DDEF240A83F582EF241083F583E473E1FDDD19DDDDA0
:200FCF0035DD455C7EB80F0F1010101010101010101012115FE58260030210F990E6A0E00E
:200FEF00FF7E0043070190E6A0EFF00210F91211F3E58260030210F990E6A0E0FF7E004379
:20100F00070190E6A0EFF00210F912126EE58260030210F990E6A0E0FF7E0043070190E61E
:20102F00A0EFF00210F91206E7E58260030210F912132F0210F91205D6AF8290E740EFF030
:20104F0090E68AE4F090E68B04F00210F990E6BAE0F5821205DAE58260030210F990E6A04A
:20106F00E0FF7E0043070190E6A0EFF00210F990E6BCE0FF754C11754D00754E408F8212EE
:20108F0005B3E582701190E6A0E0FF7E0043070190E6A0EFF0805390E740E511F090E68A7E
:2010AF00E4F090E68B04F0804190E6BCE0FF90E6BAE0F5108F821205C8E582702D90E6A067
:2010CF00E0FF7E0043070190E6A0EFF0801C90E6B9E0F5821206EBE582700F90E6A0E0FF64
:2010EF007E0043070190E6A0EFF090E6A0E0FF43078090E6A0EFF022AF82747F5FFE24F7B1
:20110F00500302115BEE240A83F582EE240D83F583E47334384B5B4F5B535B571111111173
:20112F00111111111190E6A022EF30E7067EA27FE680047EA17FE68E828F832290E6A322FB
:20114F0090E6A42290E6A52290E6A6229000002290E6B8E0FFBF80028022BF81028008BF9E
:20116F00820280370211EB90E740E4F090E741F090E68AF090E68B7402F08064E51325E0BC
:20118F00FFE512420790E740EFF090E741E4F090E68AF090E68B7402F0804590E6BCE0F5BC
:2011AF0082121107AE82AF838E048F05EE4F7003F582228C828D83E0FC30E0067E017F0095
:2011CF0080047E007F0090E740EEF090E741E4F090E68AF090E68B7402F08004758200226A
:2011EF007582012290E6B8E0FF6005BF0264801B90E6BAE0FFBF0105751300805E90E6BA2A
:20120F00E0FFBF060280547582002290E6BAE0703D90E6BCE0F582121107AE82AF83E0FD7D
:20122F005305FE8E828F83EDF090E6BCE0FF30E7098F057E004305108D0753071F90E683A9
:20124F00EFF07E0043072090E683EFF0800D7582002290E6B9E0F5820206EB758201229017
:20126F00E6B8E0FF6008BF020280290212F790E6BAE0FFBF020302130090E6BAE0FFBF014C
:20128F0005751301806B90E6BAE0FFBF060280617582002290E6BAE0704A90E6BCE0F582A3
:2012AF00121107AE82AF83EE4F7003F582228E828F83E0FD7C004305018E828F83EDF090F7
:2012CF00E6BCE0FF30E7098F057E004305108D0753071F90E683EFF07E0043072090E6832E
:2012EF00EFF0800D7582002290E6B9E0F5820206EB75820122AF827E0110AF027E00EF6089
:20130F000E75141C75153D7516A675173D800C7514A675153D75161C75173DEE1392AF22F4
:20132F0090E6BBE0FFBF01028019BF02028024BF0302802CBF06030213E9BF07030213F9BF
:20134F000214067E007F3D90E6B3EFF090E6B47400F02290E6B3E515F090E6B4E514F02228
:20136F007DE07E3D7F8090E6BAE0F54C7B008B020BEAB54C0280428D008E018F028D828EEA
:20138F00838FF01216AA28F8E439F9880589068A0774012DF9E43EFA8F0489828A838CF0A9
:2013AF001216AAF9B9030280067D007E007F00ED4E6006C3E54C9B50B5ED4E600F8D038E98
:2013CF000490E6B3ECF090E6B4EDF02290E6A0E0FF43070190E6A0EFF0227E127F3D90E6B3
:2013EF00B3EFF090E6B47412F02290E6B3E517F090E6B4E516F02290E6A0E0FF430701906E
:05140F00E6A0EFF02251
:200066007900E94400601B7A00901B50780175923CE493F2A308B800020592D9F4DAF275B5
:0200860092FFE7
:12141400AA82AB83A2F73392D1F5826002D2F7ACF022DD
:1B14260020F71130F6138883A88220F509F6A8837583002280FEF280F5F022C5
:203F0000020153000217B100021702000202010002016B000201B6000216FF0002153500D7
:203F200002153700021538000215390002153C000217B0000217B2000214410002144300FD
:203F400002170400021535000216C600021700000217010002170300021705000217340060
:203F60000215E6000215350002153500021535000215360002153A0002153D0002153F0018
:203F800002153B0002153E0002154000021596000214B2000214DD000214DF000214E100CF
:183FA0000214B3000214DE000214E00002153400021442000217AF00EB
:011441003278
:011442003277
:011443003276
:20144400AAF0FBE582854CF0A4FCADF0E583854CF0A42DFDE435F0FEE582854DF0A42DFD99
:20146400E5F03EFEE433FFEA854CF0A42EFEE5F03FFFE583854DF0A42EFEE5F03FFFE5823F
:20148400854EF0A42EFEE5F03FFFEB854CF0A42FFFEA854DF0A42FFFE583854EF0A42FFFA9
:0E14A400E582854FF0A42F8EF08D838C82227E
:0114B2003207
:0114B3003206
:20008E007800E84400600A790075923CE4F309D8FC7801E84400600C7901903C00E4F0A306
:0400AE00D8FCD9FAA7
:2014B4007A10E4FBFCE58225E0F582E58333F583EB33FBEC33FCEB954CF5F0EC954D4006C4
:0914D400FCABF0438201DADD22D9
:0114DD0032DC
:0114DE0032DB
:0114DF0032DA
:0114E00032D9
:0114E10032D8
:2014E200FBC2D530E715D2D5E4C39582F582E49583F583E495F0F5F0E49BFBE54F30E717B2
:20150200B2D5E4C3954CF54CE4954DF54DE4954EF54EE4954FF54FEB120EC230D513FBE497
:12152200C39582F582E49583F583E495F0F5F0E49B2203
:011534003284
:011535003283
:011536003282
:011537003281
:011538003280
:01153900327F
:01153A00327E
:01153B00327D
:01153C00327C
:01153D00327B
:01153E00327A
:01153F003279
:011540003278
:20154100AE82AF8390E600E05418C423541F70057CB1FD801C90E600E05418C423541FFBBA
:20156100BB01067A617B0180047AC27B028A048B058C4C8D4D154C74FFB54C02154DE54CDA
:15158100454D70F1EE24FFFAEF34FFFB8A068B07EA4B70DD2274
:011596003222
:20159700B98003EA13B34010EA2401FAE43BFBE43CFC50047C800582BC000EBB000BBA0098
:2015B70008E4F5F0F583F58222A2D1E582138CF092F78B838A8222E4F583F58275F080F458
:0F15D700A2D11322E4F583F58275F0C0747F2250
:0115E60032D2
:2015E70012170630D502B2D1BF0009BC00030215DB0215CEBC00030215B8E583B4FF0BE534
:2016070082B4FF030215DB0215B8E582B4FF030215CEC395835007247F400B0215B8248035
:201627001450030215CEF582C3ED9AEE9BEF9C40111582C3EA33F9EB33FAEC33FBE433FC7C
:201647008005E4CCCBCAF9C08275F019C3E99DEA9EEB9FEC9400D5F002802D400EE99DF9E4
:20166700EA9EFAEB9FFBEC9400FCC3B3E833F8E58233F582E58333F583C3E933F9EA33FA44
:20168700EB33FBEC33FC80C4B3E4F938FAE43582FBE43583FCD082500405827C8012177811
:0316A7000215AF7A
:0D00590075815B1217ABE582600302005653
:1C16AA0020F71430F6148883A88220F507E6A88375830022E280F7E49322E0224F
:0116C60032F1
:2016C700C2D5E58330E70DD2D5E4C39582F582E49583F583E54D30E70DB2D5E4C3954CF536
:1816E7004CE4954DF54D1214B430D50BE4C39582F582E49583F58322E2
:0116FF0032B8
:0117000032B6
:0117010032B5
:0117020032B4
:0117030032B3
:0117040032B2
:0117050032B1
:20170600AA82AB83A2F73392D1F5826002D2F7ACF0E58124F9F8E6FD08E6FE0886F008E646
:0E172600A2F73392D5F5836002D2F7AFF0221E
:011734003282
:201735006040F82582500274FFF582E824F8501ECCCBCAF9E4CC24F85014CBCAF9E4CB24BC
:20175500F8500BCAF9E4CA24F8500379002224086010F8C3EC13FCEB13FBEA13FAE913F96F
:03177500D8F12286
:201778007804EC7011E58224F8500AF582E4C9CACBFCD8EF22EC7820058220E713D5820170
:1317980022C3E933F9EA33FAEB33FBEC33FCD8EA1582227E
:0417AB007582002221
:0117AF003207
:0117B0003206
:0117B1003205
:0117B2003204
:00000001FF
