:04000000020059326F
:01000B0032C2
:0100130032BA
:01001B0032B2
:0100230032AA
:03002B000201FBD4
:0300330002013295
:01003B003292
:03004300023F0079
:01004B003282
:03005300023F0069
:1C00B200750800750900750A02750B00750CF4750D01750EF4750F01C200C201BD
:0300E000020056C5
:030056000207ECB2
:2000E300AF827401B54C0280157402B54C0280127405B54C02800F740AB54C12800C7E24EA
:2001030080107E12800C7E0080087E36800475820022EF60067D707F0080047D0E7F00ED9D
:20012300F4FFE5805207ED5E4FF58075820122C2DC32C0E0C082C083D2005391EF90E65D75
:200143007401F0D083D082D0E032C021C0E0C0F0C082C083C007C006C005C004C003C0025F
:20016300C001C000C0D075D00075820012123B5391EF90E65D7410F0D0D0D000D001D002A3
:20018300D003D004D005D006D007D083D082D0F0D0E0D02132C021C0E0C0F0C082C083C085
:2001A30007C006C005C004C003C002C001C000C0D075D00075820112123B5391EF90E65D0E
:2001C3007420F0D0D0D000D001D002D003D004D005D006D007D083D082D0F0D0E0D0213224
:2001E300C0E0C082C083D2015391EF90E65D7408F0D083D082D0E032C0E0C007C006C0D0AE
:2002030075D000B2A2AE0EAF0F150E74FFB50E02150FEE4F700A850C0E850D0FB2A0D2A18D
:20022300C2CFD0D0D006D007D0E032E582FF30E00BADB17E004305088DB1800353B1F7EFA3
:2002430030E408AEB14306018EB12253B1FE22850A4C754D00905DC012141AAE82AF83ACB9
:20026300097D00C3EC9EED64808FF063F08095F0400990E640E053E07FF02290E640E0FFC8
:2002830043078090E640EFF02285820A7401B50A0280057402B50A18AF0A74072FF50B90CE
:2002A300E618F090E61AE50BF0120252758201227582002290E6F574FFF000000000E5BBD6
:2002C30060FC90E6047480F00000000090E618E4F00000000090E61AE4F00000000090E625
:2002E300047402F00000000090E6047406F00000000090E618E50BF00000000090E61AE5CA
:200303000BF00000000090E604E4F02290E6F574FFF000000000E50870057E06FF80047EBA
:20032300027F0090E648EEF022D2871202B77EE87F03EE24FFFCEF34FFFD8C068D07EC4DE4
:2003430070F0E5BB30E7FB0000000090E6D07428F00000000090E6D1E4F0E50870057E06B5
:20036300FF80047E047F008EBB22AF8290E680E030E7067D1C7E3D80047DA67E3DEF75F05D
:2003830010A42416FBE435F0FCEB2DFDEC3EFC7E80EFF508703590E612E4F090E61474E068
:2003A300F090E6E27401F08D828C838EF01213FD90E625F074012DFAE43CFB8E078A828B61
:2003C300838FF01213FD90E624F02290E61274D8F090E614E4F090E6D204F08D828C838E40
:2003E300F01213FD90E621F00DBD00010C8D828C838EF01213FDFF90E62074075FF08D825E
:200403008C838EF01213FDC423541F90E64004F0020252AF827E00EE75F007A4FCADF02466
:2004230062F582ED3414F583E493FBB5070280080EBE12E375820022EC2462FCED3414FD01
:2004430074062CF582E43DF583E49390E601F075AF07759DE4759E008C828D83A3E4939009
:20046300E67CF08C828D83A3A3E49390E67CF0E4F0F0F0F0F0F08C828D83A3A3A39390E6D6
:200483007CF08C828D83A3A3A3A3E49390E67CF07401F0E4F0F0F0F0F08C828D83A3A3A3EA
:2004A300A3A39390E67CF07411F0F0E4F0F0F0F0F0F0F0F0F0F0F0F0F07F0090E67CE4F0C0
:2004C3000FBF600040F575820122AF82BF0002804FBF01028076BF020302055DBF05030232
:2004E300056BBF0A03020579BF1403020587BF3203020595BF64030205A3BF69028012BFFE
:200503006E02801CBF78028026BF960280300205B1750C19750D0075CAC075CB630205B5B4
:20052300750C32750D0075CAE075CBB10205B5750C64750D0075CAF075CBD80205B5750CCC
:20054300FA750D0075CA6075CBF08066750CF4750D0175CA3075CBF88058750CE8750D0302
:2005630075CA1875CBFC804A750CC4750D0975CA7075CBFE803C750C88750D1375CA387518
:20058300CBFF802E750C10750D2775CA9C75CBFF8020750CA8750D6175CAD875CBFF8012F8
:2005A300750C50750DC375CAEC75CBFF80047582002275820122AD4CAE4DAF4E8D828E83F0
:2005C3008FF0E50812134B75820122E582700685108212036D758201227582002275820181
:2005E3002290E6BBE0FE7F0090E6BAE07C004207EC420690E6BFE0FC7D0090E6BEE07A0023
:200603004205EA420490E6A0E020E1F990E6B8E0FBBB40028073BBC00280030206E5ED4C51
:2006230070030206E9C374409DE49C50067A407B0080048D028C0390E6A0E020E1F98A45D3
:200643007546007547407548E77549008F438E44758251C007C006C005C004C002120E8218
:20066300D002D004D005D006D00790E68AE4F00000000090E68BEAF07B00EDC39AFDEC9B57
:20068300FCEA2FFFEB3EFE8095ED4C605990E68BE4F090E6A0E020E1F990E68BE0FB8B38B1
:2006A300753900753A40753BE7753C008F368E37758251C007C006C005C004C003120DED9B
:2006C300E582D003D004D005D006D0077003F582227A00EB2FFFEA3EFEEDC39BFDEC9AFCF8
:2006E30080A7758200227582012275820022AF82C00712030FD007C2A0D2A1750EE8750FCD
:2007030003BFE0004015EF2419401090E68AE4F090E68BF090E6A0E020E1F9BFA2028023A8
:20072300BFE0028021BFE1028028BFE202802FBFE3028033BFE4028047BFE502804BBFE6FF
:200743005E80530205E490E740E0F54C7582000200E390E740E0F54C7582010200E390E79A
:2007630040E0F58202041690E740E0FFBF010DD2A0C2A1850C0E850D0F12032C75820122F0
:2007830090E740E0F58202028C90E740E0F58212022E7582012290E740E0F5820204CD75F8
:2007A30082002290E613E4F090E615F0D28790E6C2E4F090E6C37480F090E6C0E4F090E6B8
:2007C300F4F012030F754C017582001200E3754C017582011200E375820112041675820294
:2007E30012028C75820002036D90E600E054E74410F01209081207A6D2E890E668E0FF437C
:20080300070890E668EFF090E65CE0FF43070190E65CEFF0E0FF43071090E65CEFF0E0FF93
:2008230043072090E65CEFF0E0FF43070890E65CEFF0D2DDD2AF75CA3075CBF875C800D2D2
:20084300ADD2CA90E680E043E00AF09005DC1213A690E680E053E0F7F090E672E4F090E6FB
:2008630071F090E670F075B109F5A0F58075B6FF75B4FF75B2FFC2A0D2A110000280031211
:200883000EE610010280F390E682E043E0C0F090E6817401F0AE877F004306018E870000C1
:2008A3000000000000E513701C90E682E030E60790E682E020E0D090E682E030E70790E6A8
:2008C30082E020E1C290E682E030E60790E682E020E00E90E682E030E7A090E682E030E19D
:2008E300999000051213A690E680E0FF43070190E680EFF090000F1213A690E680E053E094
:20090300FEF002087D7E107F3E754C30754D31754E32754F3375503475513575523675538B
:2009230037755438755539755641755742755843755944755A45755B4674182EFCE43FFD3D
:2009430090E507E0FB5303F0E4C4CBC4540F6BCB540FCB6BCB30E30244F0EB244CF987039C
:200963008C828D83EBF074162EFCE43FFD90E507E0FB53030FEB244CF987038C828D83EB04
:20098300F074142EFCE43FFD90E508E0FB5303F0E4C4CBC4540F6BCB540FCB6BCB30E302AB
:2009A30044F0EB244CF987038C828D83EBF074122EFCE43FFD90E508E0FB53030FEB244C41
:2009C300F987038C828D83EBF074102EFCE43FFD90E509E0FB5303F0E4C4CBC4540F6BCB5B
:2009E300540FCB6BCB30E30244F0EB244CF987038C828D83EBF0740E2EFCE43FFD90E50926
:200A0300E0FB53030FEB244CF987038C828D83EBF0740C2EFCE43FFD90E50AE0FB5303F052
:200A2300E4C4CBC4540F6BCB540FCB6BCB30E30244F0EB244CF987038C828D83EBF0740AE1
:200A43002EFCE43FFD90E50AE0FB53030FEB244CF987038C828D83EBF074082EFCE43FFDED
:200A630090E50BE0FB5303F0E4C4CBC4540F6BCB540FCB6BCB30E30244F0EB244CF9870377
:200A83008C828D83EBF074062EFCE43FFD90E50BE0FB53030FEB244CF987038C828D83EBEF
:200AA300F074042EFCE43FFD90E50CE0FB5303F0E4C4CBC4540F6BCB540FCB6BCB30E30296
:200AC30044F0EB244CF987038C828D83EBF074022EFEE43FFF90E50CE0FD53050FED244C22
:0A0AE300F987058E828F83EDF02263
:20146200308000030000EA1E8000030000AA180100020110CA100101020010CA0F0100028C
:2014820001108A0C0201020010CA0A01010200108A080302020010CA0602020200108A0588
:2014A20003020200108A040605020010CA0305040200108A0207070200108A010F0E02002A
:1E14C200108A961E1D0200108A784B4A0200108A6E96950200108A6AFAF90200108A2E
:203D000012010002FFFFFF40B5042A600402010203010A060002000000400100090289001A
:203D200001010080FA0904000001FF000000070586020002000904000101FF000100070549
:203D400082010014010904000201FF00010007058201000C010904000301FF000100070502
:203D600082010004010904000401FF000100070582010004020904000501FF0001000705F5
:203D800082010004030904000601FF000100070582010004040904000701FF0001000705CD
:053DA000820100020495
:203DA6000902390002010080FA0904000001FF000000070586024000000904000101FF004D
:193DC600010007058201FF03010904000201FF00010007058201000201AF
:203DE0000403090416034F00700065006E00480061006E00740065006B00160344005300F9
:203E00004F002D00360030003200320042004C001A03300030003000300030003000300061
:0C3E2000300030003000300030000000A6
:200AED0085822CE5272522FDE5283523FE752D02903C00E4F0903C00E06004758200229006
:200B0D00E678E0FB7A0043038090E678EBF0E030E21090000AC006C0051213A6D005D006E9
:200B2D0080D3E52C25E0FB90E679F090E678E020E006903C00E060F3903C00E0600475828B
:200B4D00002290E678E020E2AC90E678E020E14090E678E0FB43034090E678EBF090E678D5
:200B6D00E030E606903C00E060F3903C00E0600475820022E52D14FB8B2D7003F5822290CF
:200B8D00000AC006C0051213A6D005D006020B027A007B00C3EA9DEB9E4003020C37C3EA31
:200BAD009522EB95235016EA2524F8EB3525F9AC26888289838CF01213FDFC801DEAC3959E
:200BCD0022F8EB9523F9E82529F8E9352AF9AF2B888289838FF01213FDFC90E679ECF00A81
:200BED00BA00010B90E678E020E006903C00E060F3903C00E060047582002290E678E03028
:200C0D00E203020B0290E678E020E18890E678E0FF43074090E678EFF090E678E030E6066E
:200C2D00903C00E060F37582002290E678E0FF43074090E678EFF090E678E030E606903CB5
:200C4D0000E060F3903C00E060047582002275820122858233903C00E4F004B52E0814B57F
:200C6D002F0474018001E4FE903C00E06004758200227C007D0090E678E0FB43038090E635
:200C8D0078EBF0E030E20C90000AC0061213A6D00680D5E53325E0FB3395E0FA430301900F
:200CAD00E679EBF090E678E020E006903C00E060F3903C00E060047582002290E678E02003
:200CCD00E2A690E678E020E11E90E678E0FB43034090E678EBF090E678E030E606903C00C4
:200CED00E060F375820022EE600F90E678E0FB7A0043032090E678EBF090E679E0E4F534F0
:200D0D00F53574012534F8E43535F9C3E8952EE9952F506C90E678E020E006903C00E060D8
:200D2D00F3903C00E060047582002290E678E030E203020C7574022534F8E43535F9E8B579
:200D4D002E13E9B52F0F90E678E0F8790043002090E678E8F0A834A9350534E4B53402053A
:200D6D0035AC34AD35E82530F8E93531F9AF3290E679E0FB888289838FF012134B020D0F24
:200D8D0090E678E020E006903C00E060F3903C00E060047582002290E678E030E203020C59
:200DAD007590E678E0FF43074090E678EFF0EC2530FCED3531FDAF3290E679E08C828D8332
:200DCD008FF012134B90E678E030E606903C00E060F3903C00E060047582002275820122EB
:200DED0085823DE4F541F542AB36AC37C3E5419538E54295394003020E7E7A0090E678E0C9
:200E0D0030E4067A018C078F3EEA04FFEA243EF98B02A702EF04FAEF243EF9AE41AF42054C
:200E2D0041E4B541020542EE253AFEEF353BFFAD3C8E828F838DF01213FDF78A22752300B3
:200E4D0075243E752500752640E4F527F528F529F52AF52B853D82C004C003120AEDE58284
:200E6D00D003D0047003F582220BBB00010C020DF975820122AF827E0090E678E030E40626
:200E8D007E01AD448D4AEE04FDEE244AF9AE43A7068D2275230075244A752500752640E499
:200EAD00F527F528F529F52AF52B8F82C007120AEDE582D0077003F5822285452E85462F72
:190ECD008547308548318549328F82120C5FE5827003F5822275820122F7
:06008800E478FFF6D8FD4C
:1200CE007512007513007514A675153D75161C75173DAB
:200EE60090E6B9E0FF24F45003021014EF240A83F582EF241083F583E473183414501414E9
:200F06006C147C93B5EF0F0F100F10100F100F0F0F0F121096E582600302103090E6A0E026
:200F2600FF7E0043070190E6A0EFF002103012112AE582600302103090E6A0E0FF7E00439D
:200F4600070190E6A0EFF00210301211A5E582600302103090E6A0E0FF7E0043070190E644
:200F6600A0EFF00210301206EDE58260030210301212660210301205DCAF8290E740EFF013
:200F860090E68AE4F090E68B04F002103090E6BAE0F5821205E0E582600302103090E6A0A0
:200FA600E0FF7E0043070190E6A0EFF002103090E6BCE0FF754C11754D00754E408F821281
:200FC60005B9E582701190E6A0E0FF7E0043070190E6A0EFF0805390E740E511F090E68A42
:200FE600E4F090E68B04F0804190E6BCE0FF90E6BAE0F5108F821205CEE582702D90E6A02B
:20100600E0FF7E0043070190E6A0EFF0801C90E6B9E0F5821206F1E582700F90E6A0E0FF27
:201026007E0043070190E6A0EFF090E6A0E0FF43078090E6A0EFF022AF82747F5FFE24F77A
:201046005003021092EE240A83F582EE240D83F583E4736B6F829286928A928E101010101C
:20106600101010101090E6A022EF30E7067EA27FE680047EA17FE68E828F832290E6A322CA
:2010860090E6A42290E6A52290E6A6229000002290E6B8E0FFBF80028022BF81028008BF68
:2010A6008202803702112290E740E4F090E741F090E68AF090E68B7402F08064E51325E04F
:2010C600FFE512420790E740EFF090E741E4F090E68AF090E68B7402F0804590E6BCE0F586
:2010E6008212103EAE82AF838E048F05EE4F7003F582228C828D83E0FC30E0067E017F0029
:2011060080047E007F0090E740EEF090E741E4F090E68AF090E68B7402F080047582002233
:201126007582012290E6B8E0FF6005BF0264801B90E6BAE0FFBF0105751300805E90E6BAF3
:20114600E0FFBF060280547582002290E6BAE0703D90E6BCE0F58212103EAE82AF83E0FD11
:201166005305FE8E828F83EDF090E6BCE0FF30E7098F057E004305108D0753071F90E68373
:20118600EFF07E0043072090E683EFF0800D7582002290E6B9E0F5820206F17582012290DB
:2011A600E6B8E0FF6008BF0202802902122E90E6BAE0FFBF020302123790E6BAE0FFBF01A9
:2011C60005751301806B90E6BAE0FFBF060280617582002290E6BAE0704A90E6BCE0F5826D
:2011E60012103EAE82AF83EE4F7003F582228E828F83E0FD7C004305018E828F83EDF0908B
:20120600E6BCE0FF30E7098F057E004305108D0753071F90E683EFF07E0043072090E683F7
:20122600EFF0800D7582002290E6B9E0F5820206F175820122AF827E0110AF027E00EF604C
:201246000E75141C75153D7516A675173D800C7514A675153D75161C75173DEE1392AF22BE
:2012660090E6BBE0FFBF01028019BF02028024BF0302802CBF0603021320BF07030213301B
:2012860002133D7E007F3D90E6B3EFF090E6B47400F02290E6B3E515F090E6B4E514F022BC
:2012A6007DE07E3D7F8090E6BAE0F54C7B008B020BEAB54C0280428D008E018F028D828EB4
:2012C600838FF01213FD28F8E439F9880589068A0774012DF9E43EFA8F0489828A838CF023
:2012E6001213FDF9B9030280067D007E007F00ED4E6006C3E54C9B50B5ED4E600F8D038E12
:201306000490E6B3ECF090E6B4EDF02290E6A0E0FF43070190E6A0EFF0227E127F3D90E67C
:20132600B3EFF090E6B47412F02290E6B3E517F090E6B4E516F02290E6A0E0FF4307019037
:05134600E6A0EFF0221B
:200066007900E94400601B7A009014E0780175923CE493F2A308B800020592D9F4DAF2752C
:0200860092FFE7
:1B134B0020F71130F6138883A88220F509F6A8837583002280FEF280F5F022A1
:203F00000201350002146000021455000201E30002014D00020198000214520002139A00A0
:203F200002139C0002139D0002139E000213A10002145F00021461000213660002136800D1
:203F40000214570002139A00021419000214530002145400021456000214580002145900FA
:203F60000213FC0002139A0002139A0002139A0002139B0002139F000213A2000213A4004F
:203F80000213A0000213A3000213A5000213FB00021369000213940002139600021398006B
:183FA00002136A000213950002139700021399000213670002145E0096
:011366003254
:011367003253
:011368003252
:011369003251
:01136A003250
:20008E007800E84400600A790075923CE4F309D8FC7801E84400600C7901903C00E4F0A306
:0400AE00D8FCD9FAA7
:20136B007A10E4FBFCE58225E0F582E58333F583EB33FBEC33FCEB954CF5F0EC954D40060E
:09138B00FCABF0438201DADD2223
:011394003226
:011395003225
:011396003224
:011397003223
:011398003222
:011399003221
:01139A003220
:01139B00321F
:01139C00321E
:01139D00321D
:01139E00321C
:01139F00321B
:0113A000321A
:0113A1003219
:0113A2003218
:0113A3003217
:0113A4003216
:0113A5003215
:2013A600AE82AF8390E600E05418C423541F70057CB1FD801C90E600E05418C423541FFB57
:2013C600BB01067A617B0180047AC27B028A048B058C4C8D4D154C74FFB54C02154DE54C77
:1513E600454D70F1EE24FFFAEF34FFFB8A068B07EA4B70DD2211
:0113FB0032BF
:0113FC0032BE
:0D00590075815B12145AE5826003020056A7
:1C13FD0020F71430F6148883A88220F507E6A88375830022E280F7E49322E022FF
:0114190032A0
:20141A00C2D5E58330E70DD2D5E4C39582F582E49583F583E54D30E70DB2D5E4C3954CF5E5
:18143A004CE4954DF54D12136B30D50BE4C39582F582E49583F58322DB
:011452003267
:011453003266
:011454003265
:011455003264
:011456003263
:011457003262
:011458003261
:011459003260
:04145A007582002275
:01145E00325B
:01145F00325A
:011460003259
:011461003258
:00000001FF
