:04000000020059326F
:01000B0032C2
:0100130032BA
:01001B0032B2
:0100230032AA
:03002B00020219B5
:0300330002015077
:01003B003292
:03004300023F0079
:01004B003282
:03005300023F0069
:1C00B200750800750900750A02750B00750CF4750D01750EF4750F01C200C201BD
:0300E000020056C5
:030056000207D5C9
:2000E300E582FF30E00543B108800353B1F7EF30E40543B101800353B1FE75820122AF823B
:200103007401B54C0280157402B54C0280127405B54C02800F740AB54C12800C7E48801046
:200123007E24800C7E0080087E6C800475820022EF60067DE07F0080047D1C7F00EDF4FF54
:20014300E5A05207ED5E4FF5A075820122C2DC32C0E0C082C083D2005391EF90E65D740193
:20016300F0D083D082D0E032C021C0E0C0F0C082C083C007C006C005C004C003C002C001F3
:20018300C000C0D075D0007582001212F85391EF90E65D7410F0D0D0D000D001D002D003B4
:2001A300D004D005D006D007D083D082D0F0D0E0D02132C021C0E0C0F0C082C083C007C071
:2001C30006C005C004C003C002C001C000C0D075D0007582011212F85391EF90E65D742064
:2001E300F0D0D0D000D001D002D003D004D005D006D007D083D082D0F0D0E0D02132C0E0F8
:20020300C082C083D2015391EF90E65D7408F0D083D082D0E032C0E0C0D0B287E50E450F3A
:200223006019150E74FFB50E02150FE50E450F700A850C0E850D0FB2A0D2A1C2CFD0D0D0FC
:20024300E032850A4C754D00905DC01216BBAE82AF83AC097D00C3EC9EED64808FF063F0D8
:200263008095F0400990E640E053E07FF02290E640E043E080F02285820A7401B50A0280C1
:20028300057402B50A18AF0A74072FF50B90E618F090E61AE50BF01202457582012275824E
:2002A300002290E6F574FFF000000000E5BB30E7FB90E6047480F00000000090E618E4F0D9
:2002C3000000000090E61AE4F00000000090E6047402F00000000090E6047406F0000000F3
:2002E3000090E618E50BF00000000090E61AE50BF00000000090E604E4F02290E6F574FFCF
:20030300F000000000E50870057E06FF80047E027F0090E648EEF0221202A57EE87F031E05
:20032300BEFF011FEE4F70F7E5BB30E7FB0000000090E6D07428F00000000090E6D1E4F09A
:20034300E50870057E06FF80047E047F008EBB22AF8290E680E030E7067D1C7E3D80047D4C
:20036300A67E3DEF75F010A42416FBE435F0FCEB2DFDEC3EFC7E80EFF508703590E612E4A1
:20038300F090E61474E0F090E6E27401F08D828C838EF012169E90E625F074012DFAE43C36
:2003A300FB8E078A828B838FF012169E90E624F02290E61274D8F090E614E4F090E6D20431
:2003C300F08D828C838EF012169E90E621F00DBD00010C8D828C838EF012169EFF90E62073
:2003E30074075FF08D828C838EF012169EC423541F90E64004F0020245AF827E00EE75F07F
:2004030005A4FCADF024C7F582ED341AF583E493FBB5070280080EBE19E375820022EC24D9
:20042300C7FCED341AFD8C828D83A3A3A3A3E49390E601F08C828D83A3E493FDA3E493FEE9
:20044300A3E493FF75AF07759DE4759E007C208C031CEB60168D828E838FF012169EFBA3A1
:20046300AD82AE8390E67CEBF080E47F608F061FEE600790E67CE4F080F375820122E58246
:20048300FF70087B64FCFDFE02050EEF249B401D8F4C754D00754E00754F009003E8E4F574
:2004A300F0121438AB82AC83ADF0FE805EBF670A7B207C007D007E008051EF243740288FC2
:2004C300017A00E9249CF9EA34FF894CF54D3395E0F54EF54F90000AE4F5F0121438AB82AB
:2004E300AC83ADF0FE80247A00EF2438FFEA34FF8F4CF54D3395E0F54EF54F900064E4F591
:20050300F0121438AB82AC83ADF0FEC3EB9420EC9400ED9400EE64809480401474A09B74D3
:20052300869C74019D74808EF063F08095F0500475820022754C02E4F54DF54EF54F8B82D0
:200543008C838DF0EEC006C005C004C0031214D6A882A983D003D004D005D006880C890D3E
:200563008B828C838DF0EE120F1BAC82AD83AEF0FFC004C005C006C00790240075F0F47423
:20058300C91215DBAC82AD83AEF0FFE58124FCF5818C828D838EF0EF120F48AC82AD838CB8
:2005A300CA8DCB75820122AD4CAE4DAF4E8D828E838FF0E50812141A75820122E582700648
:2005C30085108212035375820122758200227582012290E6BBE0FE7F0090E6BAE07C0042F0
:2005E30007EC420690E6BFE0FC7D0090E6BEE07A004205EA420490E6A0E020E1F990E6B80C
:20060300E0FBBB40028073BBC00280030206D6ED4C70030206DAC374409DE49C50067A40FC
:200623007B0080048D028C0390E6A0E020E1F98A457546007547407548E77549008F438E62
:2006430044758251C007C006C005C004C002120E52D002D004D005D006D00790E68AE4F0C5
:200663000000000090E68BEAF07B00EDC39AFDEC9BFCEA2FFFEB3EFE8095ED4C605990E69B
:200683008BE4F090E6A0E020E1F990E68BE0FB8B38753900753A40753BE7753C008F368E31
:2006A30037758251C007C006C005C004C003120DBDE582D003D004D005D006D0077003F50B
:2006C30082227A00EB2FFFEA3EFEEDC39BFDEC9AFC80A7758200227582012275820022AFCE
:2006E30082C0071202FED007C2A0D2A1850C0E850D0FBFE0004015EF2419401090E68AE45C
:20070300F090E68BF090E6A0E020E1F9BFA2028023BFE0028021BFE1028028BFE202802F21
:20072300BFE3028033BFE4028046BFE502804ABFE659804E0205D590E740E0F54C7582000D
:2007430002010190E740E0F54C75820102010190E740E0F5820203FC90E740E0FFBF010C4D
:20076300D2A0C2A1E4F50EF50F12031B7582012290E740E0F58202027A90E740E0F58202D0
:2007830000E390E740E0F5820204817582002290E613E4F090E615F090E6C2F090E6C37418
:2007A30080F090E6C0E4F090E6F4F01202FE754C01758200120101754C01758201120101B5
:2007C3007582011203FC75820212027A75820002035390E600E054E74410F01208D8120757
:2007E30092D2E890E668E043E008F090E65CE043E001F090E65CE043E010F090E65CE04341
:20080300E020F090E65CE043E008F0D2DDD2AF75CA3075CBF875C800D2ADD2CA90E680E013
:2008230043E00AF09005DC12153590E680E053E0F7F090E6727404F090E671E4F090E670EA
:20084300F075B109F5A0F58075B6FF75B4FF75B2FFC2A0D2A11000028003120FA3100102B3
:2008630080F390E682E043E0C0F090E6817401F043870100000000000000E513701C90E636
:2008830082E030E60790E682E020E0D690E682E030E70790E682E020E1C890E682E030E6A3
:2008A3000790E682E020E00E90E682E030E7A690E682E030E19F90000512153590E680E064
:2008C30043E001F090000F12153590E680E053E0FEF00208587E107F3E754C30754D317509
:2008E3004E32754F3375503475513575523675533775543875553975564175574275584360
:20090300755944755A45755B4674182EFCE43FFD90E507E0FB5303F0E4C4CBC4540F6BCB55
:20092300540FCB6BCB30E30244F0EB244CF987038C828D83EBF074162EFCE43FFD90E507E0
:20094300E0FB53030FEB244CF987038C828D83EBF074142EFCE43FFD90E508E0FB5303F00D
:20096300E4C4CBC4540F6BCB540FCB6BCB30E30244F0EB244CF987038C828D83EBF074129A
:200983002EFCE43FFD90E508E0FB53030FEB244CF987038C828D83EBF074102EFCE43FFDA8
:2009A30090E509E0FB5303F0E4C4CBC4540F6BCB540FCB6BCB30E30244F0EB244CF987033A
:2009C3008C828D83EBF0740E2EFCE43FFD90E509E0FB53030FEB244CF987038C828D83EBAA
:2009E300F0740C2EFCE43FFD90E50AE0FB5303F0E4C4CBC4540F6BCB540FCB6BCB30E30251
:200A030044F0EB244CF987038C828D83EBF0740A2EFCE43FFD90E50AE0FB53030FEB244CE6
:200A2300F987038C828D83EBF074082EFCE43FFD90E50BE0FB5303F0E4C4CBC4540F6BCB00
:200A4300540FCB6BCB30E30244F0EB244CF987038C828D83EBF074062EFCE43FFD90E50BCB
:200A6300E0FB53030FEB244CF987038C828D83EBF074042EFCE43FFD90E50CE0FB5303F0F8
:200A8300E4C4CBC4540F6BCB540FCB6BCB30E30244F0EB244CF987038C828D83EBF0740289
:1A0AA3002EFEE43FFF90E50CE0FD53050FED244CF987058E828F83EDF02223
:2017A7000F0E00000000000002000100000000005055550000000000000000000000000008
:2017C700010100000000000002000100000000005055550000000000000000000000000003
:2017E700FAFAFAFAFAF90000020000000000010050555555555555000000000000000000B6
:20180700FAFAFAFAFAF9000002000000000001005055555555555500000000000000000095
:20182700FAFAF9000000000002000001000000005055555500000000000000000000000062
:20184700C8C8C70000000000020000010000000050555555000000000000000000000000D8
:20186700FAFAF9000000000002000001000000005055555500000000000000000000000022
:20188700969500000000000002000100000000005055550000000000000000000000000019
:2018A700BBBB000000000000020001000000000050555500000000000000000000000000AE
:2018C700020100000000000002000100000000005055550000000000000000000000000001
:2018E7004B4A0000000000000200010000000000505555000000000000000000000000004F
:20190700252500000000000002000100000000005055550000000000000000000000000079
:201927000100000000000000020100000000000050550000000000000000000000000000F7
:201947001E1D00000000000002000100000000005055550000000000000000000000000048
:20196700010100000000000002000100000000005055550000000000000000000000000061
:201987002525000000000000020001000000000050555500000000000000000000000000F9
:2019A700070700000000000002000100000000005055550000000000000000000000000015
:2019C700010000000000000002010000000000005055000000000000000000000000000057
:2019E7000504000000000000020001000000000050555500000000000000000000000000DA
:201A070080000000000000000300000000000000000000000000000000000000000000003C
:201A2700060500000000000002000100000000005055550000000000000000000000000097
:201A47008000000000000000030000000000000000000000000000000000000000000000FC
:201A670003020000000000000200010000000000505555000000000000000000000000005D
:201A870002020000000000000200010000000000505555000000000000000000000000003E
:201AA70003020000000000000200010000000000505555000000000000000000000000001D
:201AC70030471A80EA1E071A80AA18C71980CA10671980CA0F2719808A0CC71880CA0AC720
:201AE70017808A08A71A80CA06871A808A05671A808A04271A80CA03E719808A02A719808C
:201B07008A01A717808AA48719808A964719808A8C0719808A78E718808A71A71880CA6EFE
:1D1B27008718808A6A671880CA694718808A682718808A67071880CA66E717808A04
:203D000012010002FFFFFF40B50422601002010203010A0600020000004001000902890016
:203D200001010080FA0904000001FF000000070586020002000904000101FF000100070549
:203D400082010014010904000201FF00010007058201000C010904000301FF000100070502
:203D600082010004010904000401FF000100070582010004020904000501FF0001000705F5
:203D800082010004030904000601FF000100070582010004040904000701FF0001000705CD
:053DA000820100020495
:203DA6000902390002010080FA0904000001FF000000070586024000000904000101FF004D
:193DC600010007058201FF03010904000201FF00010007058201000201AF
:203DE0000403090416034F00700065006E00480061006E00740065006B00160344005300F9
:203E00004F002D003600300032003200420045001A03300030003000300030003000300068
:0C3E2000300030003000300030000000A6
:200ABD0085822CE5272522FDE5283523FE752D02903C00E4F0903C00E06004758200229036
:200ADD00E678E0FB7A0043038090E678EBF0E030E21090000AC006C005121535D005D00689
:200AFD0080D3E52C25E0FB90E679F090E678E020E006903C00E060F3903C00E060047582BC
:200B1D00002290E678E020E2AC90E678E020E14090E678E0FB43034090E678EBF090E67805
:200B3D00E030E606903C00E060F3903C00E0600475820022E52D14FB8B2D7003F5822290FF
:200B5D00000AC006C005121535D005D006020AD27A007B00C3EA9DEB9E4003020C07C3EA31
:200B7D009522EB95235016EA2524F8EB3525F9AC26888289838CF012169EFC801DEAC3952A
:200B9D0022F8EB9523F9E82529F8E9352AF9AF2B888289838FF012169EFC90E679ECF00A0D
:200BBD00BA00010B90E678E020E006903C00E060F3903C00E060047582002290E678E03058
:200BDD00E203020AD290E678E020E18890E678E0FF43074090E678EFF090E678E030E606D0
:200BFD00903C00E060F37582002290E678E0FF43074090E678EFF090E678E030E606903CE6
:200C1D0000E060F3903C00E060047582002275820122858233903C00E4F004B52E0814B5AF
:200C3D002F0474018001E4FE903C00E06004758200227C007D0090E678E0FB43038090E665
:200C5D0078EBF0E030E20C90000AC006121535D00680D5E53325E0FB3395E0FA43030190AE
:200C7D00E679EBF090E678E020E006903C00E060F3903C00E060047582002290E678E02033
:200C9D00E2A690E678E020E11E90E678E0FB43034090E678EBF090E678E030E606903C00F4
:200CBD00E060F375820022EE600F90E678E0FB7A0043032090E678EBF090E679E0E4F53420
:200CDD00F53574012534F8E43535F9C3E8952EE9952F506C90E678E020E006903C00E06009
:200CFD00F3903C00E060047582002290E678E030E203020C4574022534F8E43535F9E8B5DA
:200D1D002E13E9B52F0F90E678E0F8790043002090E678E8F0A834A9350534E4B53402056A
:200D3D0035AC34AD35E82530F8E93531F9AF3290E679E0FB888289838FF012141A020CDFB5
:200D5D0090E678E020E006903C00E060F3903C00E060047582002290E678E030E203020C89
:200D7D004590E678E0FF43074090E678EFF0EC2530FCED3531FDAF3290E679E08C828D8392
:200D9D008FF012141A90E678E030E606903C00E060F3903C00E0600475820022758201224B
:200DBD0085823DE4F541F542AB36AC37C3E5419538E54295394003020E4E7A0090E678E029
:200DDD0030E4067A018C078F3EEA04FFEA243EF98B02A702EF04FAEF243EF9AE41AF42057D
:200DFD0041E4B541020542EE253AFEEF353BFFAD3C8E828F838DF012169EF78A2275230040
:200E1D0075243E752500752640E4F527F528F529F52AF52B853D82C004C003120ABDE582E4
:200E3D00D003D0047003F582220BBB00010C020DC975820122AF827E0090E678E030E40686
:200E5D007E01AD448D4AEE04FDEE244AF9AE43A7068D2275230075244A752500752640E4C9
:200E7D00F527F528F529F52AF52B8F82C007120ABDE582D0077003F5822285452E85462FD2
:190E9D008547308548318549328F82120C2FE5827003F582227582012257
:200EB600FB7A20E4FCFDFEFFE5822582F582E58333F583E5F033F5F0EB33FB4017DAE98075
:200ED60042E5822582F582E58333F583E5F033F5F0EB33FBEC33FCED33FDEE33FEEF33FFA4
:200EF600EC954CED954DEE954EEF954F4013EC954CFCED954DFDEE954EFEEF954FFF43824E
:050F160001DABEEB2230
:06008800E478FFF6D8FD4C
:200F1B00FCABF0AA83A982749EF582C2D1EC30E716D2D1E9F42401F9EAF43400FAEBF434D5
:0D0F3B0000FBECF43400FC12176C02158B67
:200F4800121408C3749E95824039790012172930D126E9F42401F582EAF43400F583EBF422
:200F68003400F5F0ECF43400700AE582458345F0700122E430E70F22EC20E71489828A8380
:1B0F88008BF02230D10AE4F582F583F5F074802274FFF582F583F5F0747F227C
:1200CE007512007513007514A675153D75161C75173DAB
:200FA30090E6B9E0FF24F450030210D1EF240A83F582EF241083F583E473D5F1D10DD1D100
:200FC30029D1395072AC0F0F10101010101010101010121153E58260030210ED90E6A0E07A
:200FE300FF7E0043070190E6A0EFF00210ED1211E7E58260030210ED90E6A0E0FF7E0043A9
:20100300070190E6A0EFF00210ED121262E58260030210ED90E6A0E0FF7E0043070190E64E
:20102300A0EFF00210ED1206DEE58260030210ED1213230210ED1205CDAF8290E740EFF07E
:2010430090E68AE4F090E68B04F00210ED90E6BAE0F5821205D1E58260030210ED90E6A077
:20106300E0FF7E0043070190E6A0EFF00210ED90E6BCE0FF754C11754D00754E408F821206
:2010830005AAE582701190E6A0E0FF7E0043070190E6A0EFF0805390E740E511F090E68A93
:2010A300E4F090E68B04F0804190E6BCE0FF90E6BAE0F5108F821205BFE582702D90E6A07C
:2010C300E0FF7E0043070190E6A0EFF0801C90E6B9E0F5821206E2E582700F90E6A0E0FF79
:2010E3007E0043070190E6A0EFF090E6A0E0FF43078090E6A0EFF022AF82747F5FFE24F7BD
:20110300500302114FEE240A83F582EE240D83F583E473282C3F4F434F474F4B11111111F7
:20112300111111111190E6A022EF30E7067EA27FE680047EA17FE68E828F832290E6A32207
:2011430090E6A42290E6A52290E6A6229000002290E6B8E0FFBF80028022BF81028008BFAA
:20116300820280370211DF90E740E4F090E741F090E68AF090E68B7402F08064E51325E0D4
:20118300FFE512420790E740EFF090E741E4F090E68AF090E68B7402F0804590E6BCE0F5C8
:2011A300821210FBAE82AF838E048F05EE4F7003F582228C828D83E0FC30E0067E017F00AE
:2011C30080047E007F0090E740EEF090E741E4F090E68AF090E68B7402F080047582002276
:2011E3007582012290E6B8E0FF6005BF0264801B90E6BAE0FFBF0105751300805E90E6BA36
:20120300E0FFBF060280547582002290E6BAE0703D90E6BCE0F5821210FBAE82AF83E0FD96
:201223005305FE8E828F83EDF090E6BCE0FF30E7098F057E004305108D0753071F90E683B5
:20124300EFF07E0043072090E683EFF0800D7582002290E6B9E0F5820206E275820122902C
:20126300E6B8E0FF6008BF020280290212EB90E6BAE0FFBF02030212F490E6BAE0FFBF0171
:2012830005751301806B90E6BAE0FFBF060280617582002290E6BAE0704A90E6BCE0F582AF
:2012A3001210FBAE82AF83EE4F7003F582228E828F83E0FD7C004305018E828F83EDF09010
:2012C300E6BCE0FF30E7098F057E004305108D0753071F90E683EFF07E0043072090E6833A
:2012E300EFF0800D7582002290E6B9E0F5820206E275820122AF827E0110AF027E00EF609E
:201303000E75141C75153D7516A675173D800C7514A675153D75161C75173DEE1392AF2200
:2013230090E6BBE0FFBF01028019BF02028024BF0302802CBF06030213DDBF07030213EDE3
:201343000213FA7E007F3D90E6B3EFF090E6B47400F02290E6B3E515F090E6B4E514F02241
:201363007DE07E3D7F8090E6BAE0F54C7B008B020BEAB54C0280428D008E018F028D828EF6
:20138300838FF012169E28F8E439F9880589068A0774012DF9E43EFA8F0489828A838CF0C1
:2013A30012169EF9B9030280067D007E007F00ED4E6006C3E54C9B50B5ED4E600F8D038EB0
:2013C3000490E6B3ECF090E6B4EDF02290E6A0E0FF43070190E6A0EFF0227E127F3D90E6BF
:2013E300B3EFF090E6B47412F02290E6B3E517F090E6B4E516F02290E6A0E0FF430701907A
:05140300E6A0EFF0225D
:200066007900E94400601B7A00901B44780175923CE493F2A308B800020592D9F4DAF275C1
:0200860092FFE7
:12140800AA82AB83A2F73392D1F5826002D2F7ACF022E9
:1B141A0020F71130F6138883A88220F509F6A8837583002280FEF280F5F022D1
:203F0000020153000217A5000216F6000202010002016B000201B6000216F3000215290008
:203F200002152B0002152C0002152D00021530000217A4000217A60002143500021437005D
:203F40000216F800021529000216BA000216F4000216F5000216F7000216F90002172800C5
:203F60000215DA0002152900021529000215290002152A0002152E00021531000215330078
:203F800002152F00021532000215340002158A000214A6000214D1000214D3000214D5002F
:183FA0000214A7000214D2000214D40002152800021436000217A30033
:011435003284
:011436003283
:011437003282
:20143800AAF0FBE582854CF0A4FCADF0E583854CF0A42DFDE435F0FEE582854DF0A42DFDA5
:20145800E5F03EFEE433FFEA854CF0A42EFEE5F03FFFE583854DF0A42EFEE5F03FFFE5824B
:20147800854EF0A42EFEE5F03FFFEB854CF0A42FFFEA854DF0A42FFFE583854EF0A42FFFB5
:0E149800E582854FF0A42F8EF08D838C82228A
:0114A6003213
:0114A7003212
:20008E007800E84400600A790075923CE4F309D8FC7801E84400600C7901903C00E4F0A306
:0400AE00D8FCD9FAA7
:2014A8007A10E4FBFCE58225E0F582E58333F583EB33FBEC33FCEB954CF5F0EC954D4006D0
:0914C800FCABF0438201DADD22E5
:0114D10032E8
:0114D20032E7
:0114D30032E6
:0114D40032E5
:0114D50032E4
:2014D600FBC2D530E715D2D5E4C39582F582E49583F583E495F0F5F0E49BFBE54F30E717BE
:2014F600B2D5E4C3954CF54CE4954DF54DE4954EF54EE4954FF54FEB120EB630D513FBE4B0
:12151600C39582F582E49583F583E495F0F5F0E49B220F
:011528003290
:01152900328F
:01152A00328E
:01152B00328D
:01152C00328C
:01152D00328B
:01152E00328A
:01152F003289
:011530003288
:011531003287
:011532003286
:011533003285
:011534003284
:20153500AE82AF8390E600E05418C423541F70057CB1FD801C90E600E05418C423541FFBC6
:20155500BB01067A617B0180047AC27B028A048B058C4C8D4D154C74FFB54C02154DE54CE6
:15157500454D70F1EE24FFFAEF34FFFB8A068B07EA4B70DD2280
:01158A00322E
:20158B00B98003EA13B34010EA2401FAE43BFBE43CFC50047C800582BC000EBB000BBA00A4
:2015AB0008E4F5F0F583F58222A2D1E582138CF092F78B838A8222E4F583F58275F080F464
:0F15CB00A2D11322E4F583F58275F0C0747F225C
:0115DA0032DE
:2015DB001216FA30D502B2D1BF0009BC00030215CF0215C2BC00030215ACE583B4FF0BE571
:2015FB0082B4FF030215CF0215ACE582B4FF030215C2C395835007247F400B0215AC248072
:20161B001450030215C2F582C3ED9AEE9BEF9C40111582C3EA33F9EB33FAEC33FBE433FC94
:20163B008005E4CCCBCAF9C08275F019C3E99DEA9EEB9FEC9400D5F002802D400EE99DF9F0
:20165B00EA9EFAEB9FFBEC9400FCC3B3E833F8E58233F582E58333F583C3E933F9EA33FA50
:20167B00EB33FBEC33FC80C4B3E4F938FAE43582FBE43583FCD082500405827C8012176C29
:03169B000215A392
:0D00590075815B12179FE58260030200565F
:1C169E0020F71430F6148883A88220F507E6A88375830022E280F7E49322E0225B
:0116BA0032FD
:2016BB00C2D5E58330E70DD2D5E4C39582F582E49583F583E54D30E70DB2D5E4C3954CF542
:1816DB004CE4954DF54D1214A830D50BE4C39582F582E49583F58322FA
:0116F30032C4
:0116F40032C3
:0116F50032C2
:0116F60032C1
:0116F70032C0
:0116F80032BF
:0116F90032BE
:2016FA00AA82AB83A2F73392D1F5826002D2F7ACF0E58124F9F8E6FD08E6FE0886F008E653
:0E171A00A2F73392D5F5836002D2F7AFF0222A
:01172800328E
:201729006040F82582500274FFF582E824F8501ECCCBCAF9E4CC24F85014CBCAF9E4CB24C8
:20174900F8500BCAF9E4CA24F8500379002224086010F8C3EC13FCEB13FBEA13FAE913F97B
:03176900D8F12292
:20176C007804EC7011E58224F8500AF582E4C9CACBFCD8EF22EC7820058220E713D582017C
:13178C0022C3E933F9EA33FAEB33FBEC33FCD8EA1582228A
:04179F00758200222D
:0117A3003213
:0117A4003212
:0117A5003211
:0117A6003210
:00000001FF
