:04000000020059326F
:01000B0032C2
:0100130032BA
:01001B0032B2
:0100230032AA
:03002B00020219B5
:0300330002015077
:01003B003292
:03004300023F0079
:01004B003282
:03005300023F0069
:1C00B200750800750900750A02750B00750CF4750D01750EF4750F01C200C201BD
:0300E000020056C5
:030056000207AFEF
:2000E300E582FF30E0055380FB8003438004EF30E4055380BF800343804075820122AF82FF
:200103007401B54C0280157402B54C0280127405B54C02800F740AB54C12800C7E2280106C
:200123007E11800C7E0080087E33800475820022EF60067D307F0080047D037F00EDF4FF69
:20014300E5805207ED5E4FF58075820122C2DC32C0E0C082C083D2005391EF90E65D7401D3
:20016300F0D083D082D0E032C021C0E0C0F0C082C083C007C006C005C004C003C002C001F3
:20018300C000C0D075D0007582001212C95391EF90E65D7410F0D0D0D000D001D002D003E3
:2001A300D004D005D006D007D083D082D0F0D0E0D02132C021C0E0C0F0C082C083C007C071
:2001C30006C005C004C003C002C001C000C0D075D0007582011212C95391EF90E65D742093
:2001E300F0D0D0D000D001D002D003D004D005D006D007D083D082D0F0D0E0D02132C0E0F8
:20020300C082C083D2015391EF90E65D7408F0D083D082D0E032B287C2CF32850A4C754D51
:2002230000905DC012168CAE82AF83AC097D00C3EC9EED64808FF063F08095F0400990E612
:2002430040E053E07FF02290E640E043E080F02285820A7401B50A0280057402B50A18AFA4
:200263000A74072FF50B90E618F090E61AE50BF012021E758201227582002290E6F574FF96
:20028300F000000000E5BB30E7FB90E6047480F00000000090E618E4F00000000090E61A69
:2002A300E4F00000000090E6047402F00000000090E6047406F00000000090E618E50BF035
:2002C3000000000090E61AE50BF00000000090E604E4F02290E6F574FFF000000000E50880
:2002E30070057E06FF80047E027F0090E648EEF02212027E7EE87F03EE24FFFCEF34FFFD1C
:200303008C068D07EC4D70F0E5BB30E7FB0000000090E6D07428F00000000090E6D1E4F07C
:20032300E50870057E06FF80047E047F008EBB22AF8290E680E030E7067D1C7E3D80047D6C
:20034300A67E3DEF75F010A42416FBE435F0FCEB2DFDEC3EFC7E80EFF508703590E612E4C1
:20036300F090E61474E0F090E6E27401F08D828C838EF012166F90E625F074012DFAE43C85
:20038300FB8E078A828B838FF012166F90E624F02290E61274D8F090E614E4F090E6D20480
:2003A300F08D828C838EF012166F90E621F00DBD00010C8D828C838EF012166FFF90E620F1
:2003C30074075FF08D828C838EF012166FC423541F90E64004F002021EAF827E00EE75F0F5
:2003E30005A4FCADF02458F582ED341AF583E493FBB5070280080EBE17E375820022EC246B
:2004030058FCED341AFD8C828D83A3A3A3A3E49390E601F08C828D83A3E493FDA3E493FE78
:20042300A3E493FF75AF07759DE4759E007C208C031CEB60168D828E838FF012166FFBA3F0
:20044300AD82AE8390E67CEBF080E47F608F061FEE600790E67CE4F080F375820122E58266
:20046300FF70087B64FCFDFE0204EEEF249B401D8F4C754D00754E00754F009003E8E4F5B5
:20048300F0121409AB82AC83ADF0FE805EBF670A7B207C007D007E008051EF243740288F11
:2004A300017A00E9249CF9EA34FF894CF54D3395E0F54EF54F90000AE4F5F0121409AB82FA
:2004C300AC83ADF0FE80247A00EF2438FFEA34FF8F4CF54D3395E0F54EF54F900064E4F5B1
:2004E300F0121409AB82AC83ADF0FEC3EB9420EC9400ED9400EE64809480401474A09B7423
:20050300869C74019D74808EF063F08095F0500475820022754C02E4F54DF54EF54F8B82F0
:200523008C838DF0EEC006C005C004C0031214A7A882A983D003D004D005D006880C890D8D
:200543008B828C838DF0EE120EECAC82AD83AEF0FFC004C005C006C00790240075F0F47473
:20056300C91215ACAC82AD83AEF0FFE58124FCF5818C828D838EF0EF120F19AC82AD838C36
:20058300CA8DCB75820122AD4CAE4DAF4E8D828E838FF0E5081213EB75820122E582700698
:2005A30085108212033375820122758200227582012290E6BBE0FE7F0090E6BAE07C004230
:2005C30007EC420690E6BFE0FC7D0090E6BEE07A004205EA420490E6A0E020E1F990E6B82C
:2005E300E0FBBB40028073BBC00280030206B6ED4C70030206BAC374409DE49C50067A405D
:200603007B0080048D028C0390E6A0E020E1F98A457546007547407548E77549008F438E82
:2006230044758251C007C006C005C004C002120E23D002D004D005D006D00790E68AE4F014
:200643000000000090E68BEAF07B00EDC39AFDEC9BFCEA2FFFEB3EFE8095ED4C605990E6BB
:200663008BE4F090E6A0E020E1F990E68BE0FB8B38753900753A40753BE7753C008F368E51
:2006830037758251C007C006C005C004C003120D8EE582D003D004D005D006D0077003F55A
:2006A30082227A00EB2FFFEA3EFEEDC39BFDEC9AFC80A7758200227582012275820022AFEE
:2006C30082C0071202D7D007850C0E850D0FBFE0004015EF2419401090E68AE4F090E68B87
:2006E300F090E6A0E020E1F9BFA2028023BFE0028021BFE1028028BFE202802FBFE302800F
:2007030033BFE4028044BFE5028048BFE657804C0205B590E740E0F54C75820002010190E5
:20072300E740E0F54C75820102010190E740E0F5820203DC90E740E0FFBF010AD283E4F5F5
:200743000EF50F1202F47582012290E740E0F58202025390E740E0F5820200E390E740E073
:20076300F5820204617582002290E613E4F090E615F090E6C2F090E6C37480F090E6C0E448
:20078300F090E6F4F01202D7754C01758200120101754C017582011201017582011203DC9D
:2007A30075820212025375820002033390E600E054E74410F01208A912076CD2E890E668F2
:2007C300E043E008F090E65CE043E001F090E65CE043E010F090E65CE043E020F090E65CC9
:2007E300E043E008F0D2DDD2AF75CA3075CBF875C800D2ADD2CA90E680E043E00AF0900544
:20080300DC12150690E680E053E0F7F090E672E4F090E671F090E670F0F5B1F5A0F580F5CE
:20082300B6F5B475B2FF1000028003120F7410010280F390E682E043E0C0F090E681740169
:20084300F043870100000000000000E513701C90E682E030E60790E682E020E0D690E682BB
:20086300E030E70790E682E020E1C890E682E030E60790E682E020E00E90E682E030E7A666
:2008830090E682E030E19F90000512150690E680E043E001F090000F12150690E680E0532C
:2008A300E0FEF00208297E0C7F3E754C30754D31754E32754F3375503475513575523675B7
:2008C3005337755438755539755641755742755843755944755A45755B4674182EFCE43F48
:2008E300FD90E507E0FB5303F0E4C4CBC4540F6BCB540FCB6BCB30E30244F0EB244CF98703
:20090300038C828D83EBF074162EFCE43FFD90E507E0FB53030FEB244CF987038C828D834C
:20092300EBF074142EFCE43FFD90E508E0FB5303F0E4C4CBC4540F6BCB540FCB6BCB30E322
:200943000244F0EB244CF987038C828D83EBF074122EFCE43FFD90E508E0FB53030FEB24EB
:200963004CF987038C828D83EBF074102EFCE43FFD90E509E0FB5303F0E4C4CBC4540F6B3A
:20098300CB540FCB6BCB30E30244F0EB244CF987038C828D83EBF0740E2EFCE43FFD90E5C4
:2009A30009E0FB53030FEB244CF987038C828D83EBF0740C2EFCE43FFD90E50AE0FB53039A
:2009C300F0E4C4CBC4540F6BCB540FCB6BCB30E30244F0EB244CF987038C828D83EBF0745C
:2009E3000A2EFCE43FFD90E50AE0FB53030FEB244CF987038C828D83EBF074082EFCE43F41
:200A0300FD90E50BE0FB5303F0E4C4CBC4540F6BCB540FCB6BCB30E30244F0EB244CF987DD
:200A2300038C828D83EBF074062EFCE43FFD90E50BE0FB53030FEB244CF987038C828D8337
:200A4300EBF074042EFCE43FFD90E50CE0FB5303F0E4C4CBC4540F6BCB540FCB6BCB30E30D
:200A63000244F0EB244CF987038C828D83EBF074022EFEE43FFF90E50CE0FD53050FED24CC
:0B0A83004CF987058E828F83EDF02276
:201778000F0E00000000000002000100000000005055550000000000000000000000000037
:20179800010100000000000002000100000000005055550000000000000000000000000032
:2017B800FAFAFAFAFAF90000020000000000010050555555555555000000000000000000E5
:2017D800FAFAF90000000000020000010000000050555555000000000000000000000000B2
:2017F800C8C8C7000000000002000001000000005055555500000000000000000000000028
:20181800FAFAF9000000000002000001000000005055555500000000000000000000000071
:20183800969500000000000002000100000000005055550000000000000000000000000068
:20185800BBBB000000000000020001000000000050555500000000000000000000000000FD
:20187800020100000000000002000100000000005055550000000000000000000000000050
:201898004B4A0000000000000200010000000000505555000000000000000000000000009E
:2018B8002525000000000000020001000000000050555500000000000000000000000000C9
:2018D800010000000000000002010000000000005055000000000000000000000000000047
:2018F8001E1D00000000000002000100000000005055550000000000000000000000000098
:201918000101000000000000020001000000000050555500000000000000000000000000B0
:20193800070700000000000002000100000000005055550000000000000000000000000084
:201958000100000000000000020100000000000050550000000000000000000000000000C6
:20197800050400000000000002000100000000005055550000000000000000000000000049
:201998008000000000000000030000000000000000000000000000000000000000000000AC
:2019B800060500000000000002000100000000005055550000000000000000000000000007
:2019D80080000000000000000300000000000000000000000000000000000000000000006C
:2019F8000302000000000000020001000000000050555500000000000000000000000000CD
:201A18000202000000000000020001000000000050555500000000000000000000000000AD
:201A380003020000000000000200010000000000505555000000000000000000000000008C
:201A580030D81980EA1E981980AA18581980CA10181980CA0FD818808A0C781880CA0A98FB
:201A780017808A08381A80CA06181A808A05F819808A04B81980CA037819808A0238198097
:201A98008A017817808A96F818808A8CB818808A789818808A71581880CA6E3818808A6A65
:131AB800181880CA69F817808A68D817808A66B817808A7F
:203D000012010002FFFFFF40B50421601002010203010A0600020000004001000902890017
:203D200001010080FA0904000001FF000000070586020002000904000101FF000100070549
:203D400082010014010904000201FF00010007058201000C010904000301FF000100070502
:203D600082010004010904000401FF000100070582010004020904000501FF0001000705F5
:203D800082010004030904000601FF000100070582010004040904000701FF0001000705CD
:053DA000820100020495
:203DA6000902390002010080FA0904000001FF000000070586024000000904000101FF004D
:193DC600010007058201FF03010904000201FF00010007058201000201AF
:203DE0000403090416034F00700065006E00480061006E00740065006B00120344005300FD
:203E00004F002D0036003000320031001A0330003000300030003000300030003000300090
:083E200030003000300000000A
:200A8E0085822CE5272522FDE5283523FE752D02903C00E4F0903C00E06004758200229065
:200AAE00E678E0FB7A0043038090E678EBF0E030E21090000AC006C005121506D005D006E7
:200ACE0080D3E52C25E0FB90E679F090E678E020E006903C00E060F3903C00E060047582EB
:200AEE00002290E678E020E2AC90E678E020E14090E678E0FB43034090E678EBF090E67835
:200B0E00E030E606903C00E060F3903C00E0600475820022E52D14FB8B2D7003F58222902E
:200B2E00000AC006C005121506D005D006020AA37A007B00C3EA9DEB9E4003020BD8C3EAEE
:200B4E009522EB95235016EA2524F8EB3525F9AC26888289838CF012166FFC801DEAC39588
:200B6E0022F8EB9523F9E82529F8E9352AF9AF2B888289838FF012166FFC90E679ECF00A6B
:200B8E00BA00010B90E678E020E006903C00E060F3903C00E060047582002290E678E03087
:200BAE00E203020AA390E678E020E18890E678E0FF43074090E678EFF090E678E030E6062E
:200BCE00903C00E060F37582002290E678E0FF43074090E678EFF090E678E030E606903C15
:200BEE0000E060F3903C00E060047582002275820122858233903C00E4F004B52E0814B5DF
:200C0E002F0474018001E4FE903C00E06004758200227C007D0090E678E0FB43038090E694
:200C2E0078EBF0E030E20C90000AC006121506D00680D5E53325E0FB3395E0FA430301900C
:200C4E00E679EBF090E678E020E006903C00E060F3903C00E060047582002290E678E02062
:200C6E00E2A690E678E020E11E90E678E0FB43034090E678EBF090E678E030E606903C0023
:200C8E00E060F375820022EE600F90E678E0FB7A0043032090E678EBF090E679E0E4F5344F
:200CAE00F53574012534F8E43535F9C3E8952EE9952F506C90E678E020E006903C00E06038
:200CCE00F3903C00E060047582002290E678E030E203020C1674022534F8E43535F9E8B538
:200CEE002E13E9B52F0F90E678E0F8790043002090E678E8F0A834A9350534E4B53402059A
:200D0E0035AC34AD35E82530F8E93531F9AF3290E679E0FB888289838FF01213EB020CB043
:200D2E0090E678E020E006903C00E060F3903C00E060047582002290E678E030E203020CB8
:200D4E001690E678E0FF43074090E678EFF0EC2530FCED3531FDAF3290E679E08C828D83F0
:200D6E008FF01213EB90E678E030E606903C00E060F3903C00E060047582002275820122AA
:200D8E0085823DE4F541F542AB36AC37C3E5419538E54295394003020E1F7A0090E678E087
:200DAE0030E4067A018C078F3EEA04FFEA243EF98B02A702EF04FAEF243EF9AE41AF4205AC
:200DCE0041E4B541020542EE253AFEEF353BFFAD3C8E828F838DF012166FF78A227523009E
:200DEE0075243E752500752640E4F527F528F529F52AF52B853D82C004C003120A8EE58243
:200E0E00D003D0047003F582220BBB00010C020D9A75820122AF827E0090E678E030E406E4
:200E2E007E01AD448D4AEE04FDEE244AF9AE43A7068D2275230075244A752500752640E4F8
:200E4E00F527F528F529F52AF52B8F82C007120A8EE582D0077003F5822285452E85462F30
:190E6E008547308548318549328F82120C00E5827003F5822275820122B5
:200E8700FB7A20E4FCFDFEFFE5822582F582E58333F583E5F033F5F0EB33FB4017DAE980A4
:200EA70042E5822582F582E58333F583E5F033F5F0EB33FBEC33FCED33FDEE33FEEF33FFD3
:200EC700EC954CED954DEE954EEF954F4013EC954CFCED954DFDEE954EFEEF954FFF43827D
:050EE70001DABEEB2260
:06008800E478FFF6D8FD4C
:200EEC00FCABF0AA83A982749EF582C2D1EC30E716D2D1E9F42401F9EAF43400FAEBF43405
:0D0F0C0000FBECF43400FC12173D02155CF4
:200F19001213D9C3749E9582403979001216FA30D126E9F42401F582EAF43400F583EBF4B1
:200F39003400F5F0ECF43400700AE582458345F0700122E430E70F22EC20E71489828A83AF
:1B0F59008BF02230D10AE4F582F583F5F074802274FFF582F583F5F0747F22AB
:1200CE007512007513007514A675153D75161C75173DAB
:200F740090E6B9E0FF24F450030210A2EF240A83F582EF241083F583E473A6C2A2DEA2A278
:200F9400FAA20A21437D0F0F100F10100F1010101010121124E58260030210BE90E6A0E023
:200FB400FF7E0043070190E6A0EFF00210BE1211B8E58260030210BE90E6A0E0FF7E004365
:200FD400070190E6A0EFF00210BE121233E58260030210BE90E6A0E0FF7E0043070190E60B
:200FF400A0EFF00210BE1206BEE58260030210BE1212F40210BE1205ADAF8290E740EFF0AB
:2010140090E68AE4F090E68B04F00210BE90E6BAE0F5821205B1E58260030210BE90E6A024
:20103400E0FF7E0043070190E6A0EFF00210BE90E6BCE0FF754C11754D00754E408F821264
:20105400058AE582701190E6A0E0FF7E0043070190E6A0EFF0805390E740E511F090E68AE2
:20107400E4F090E68B04F0804190E6BCE0FF90E6BAE0F5108F8212059FE582702D90E6A0CB
:20109400E0FF7E0043070190E6A0EFF0801C90E6B9E0F5821206C2E582700F90E6A0E0FFC8
:2010B4007E0043070190E6A0EFF090E6A0E0FF43078090E6A0EFF022AF82747F5FFE24F7EC
:2010D4005003021120EE240A83F582EE240D83F583E473F9FD1020142018201C10101111FF
:2010F400111111111190E6A022EF30E7067EA27FE680047EA17FE68E828F832290E6A32237
:2011140090E6A42290E6A52290E6A6229000002290E6B8E0FFBF80028022BF81028008BFD9
:20113400820280370211B090E740E4F090E741F090E68AF090E68B7402F08064E51325E032
:20115400FFE512420790E740EFF090E741E4F090E68AF090E68B7402F0804590E6BCE0F5F7
:20117400821210CCAE82AF838E048F05EE4F7003F582228C828D83E0FC30E0067E017F000C
:2011940080047E007F0090E740EEF090E741E4F090E68AF090E68B7402F0800475820022A5
:2011B4007582012290E6B8E0FF6005BF0264801B90E6BAE0FFBF0105751300805E90E6BA65
:2011D400E0FFBF060280547582002290E6BAE0703D90E6BCE0F5821210CCAE82AF83E0FDF5
:2011F4005305FE8E828F83EDF090E6BCE0FF30E7098F057E004305108D0753071F90E683E5
:20121400EFF07E0043072090E683EFF0800D7582002290E6B9E0F5820206C275820122907B
:20123400E6B8E0FF6008BF020280290212BC90E6BAE0FFBF02030212C590E6BAE0FFBF01FE
:2012540005751301806B90E6BAE0FFBF060280617582002290E6BAE0704A90E6BCE0F582DE
:201274001210CCAE82AF83EE4F7003F582228E828F83E0FD7C004305018E828F83EDF0906E
:20129400E6BCE0FF30E7098F057E004305108D0753071F90E683EFF07E0043072090E68369
:2012B400EFF0800D7582002290E6B9E0F5820206C275820122AF827E0110AF027E00EF60ED
:2012D4000E75141C75153D7516A675173D800C7514A675153D75161C75173DEE1392AF2230
:2012F40090E6BBE0FFBF01028019BF02028024BF0302802CBF06030213AEBF07030213BE71
:201314000213CB7E007F3D90E6B3EFF090E6B47400F02290E6B3E515F090E6B4E514F0229F
:201334007DE07E3D7F8090E6BAE0F54C7B008B020BEAB54C0280428D008E018F028D828E25
:20135400838FF012166F28F8E439F9880589068A0774012DF9E43EFA8F0489828A838CF01F
:2013740012166FF9B9030280067D007E007F00ED4E6006C3E54C9B50B5ED4E600F8D038E0E
:201394000490E6B3ECF090E6B4EDF02290E6A0E0FF43070190E6A0EFF0227E127F3D90E6EE
:2013B400B3EFF090E6B47412F02290E6B3E517F090E6B4E516F02290E6A0E0FF43070190A9
:0513D400E6A0EFF0228D
:200066007900E94400601B7A00901ACB780175923CE493F2A308B800020592D9F4DAF2753B
:0200860092FFE7
:1213D900AA82AB83A2F73392D1F5826002D2F7ACF02219
:1B13EB0020F71130F6138883A88220F509F6A8837583002280FEF280F5F02201
:203F000002015300021776000216C7000202010002016B000201B6000216C4000214FA00C5
:203F20000214FC000214FD000214FE000215010002177500021777000214060002140800D8
:203F40000216C9000214FA0002168B000216C5000216C6000216C8000216CA000216F9003F
:203F60000215AB000214FA000214FA000214FA000214FB000214FF000215020002150400F5
:203F800002150000021503000215050002155B00021477000214A2000214A4000214A600A7
:183FA000021478000214A3000214A5000214F90002140700021774004E
:0114060032B3
:0114070032B2
:0114080032B1
:20140900AAF0FBE582854CF0A4FCADF0E583854CF0A42DFDE435F0FEE582854DF0A42DFDD4
:20142900E5F03EFEE433FFEA854CF0A42EFEE5F03FFFE583854DF0A42EFEE5F03FFFE5827A
:20144900854EF0A42EFEE5F03FFFEB854CF0A42FFFEA854DF0A42FFFE583854EF0A42FFFE4
:0E146900E582854FF0A42F8EF08D838C8222B9
:011477003242
:011478003241
:20008E007800E84400600A790075923CE4F309D8FC7801E84400600C7901903C00E4F0A306
:0400AE00D8FCD9FAA7
:201479007A10E4FBFCE58225E0F582E58333F583EB33FBEC33FCEB954CF5F0EC954D4006FF
:09149900FCABF0438201DADD2214
:0114A2003217
:0114A3003216
:0114A4003215
:0114A5003214
:0114A6003213
:2014A700FBC2D530E715D2D5E4C39582F582E49583F583E495F0F5F0E49BFBE54F30E717ED
:2014C700B2D5E4C3954CF54CE4954DF54DE4954EF54EE4954FF54FEB120E8730D513FBE40E
:1214E700C39582F582E49583F583E495F0F5F0E49B223F
:0114F90032C0
:0114FA0032BF
:0114FB0032BE
:0114FC0032BD
:0114FD0032BC
:0114FE0032BB
:0114FF0032BA
:0115000032B8
:0115010032B7
:0115020032B6
:0115030032B5
:0115040032B4
:0115050032B3
:20150600AE82AF8390E600E05418C423541F70057CB1FD801C90E600E05418C423541FFBF5
:20152600BB01067A617B0180047AC27B028A048B058C4C8D4D154C74FFB54C02154DE54C15
:15154600454D70F1EE24FFFAEF34FFFB8A068B07EA4B70DD22AF
:01155B00325D
:20155C00B98003EA13B34010EA2401FAE43BFBE43CFC50047C800582BC000EBB000BBA00D3
:20157C0008E4F5F0F583F58222A2D1E582138CF092F78B838A8222E4F583F58275F080F493
:0F159C00A2D11322E4F583F58275F0C0747F228B
:0115AB00320D
:2015AC001216CB30D502B2D1BF0009BC00030215A0021593BC000302157DE583B4FF0BE55C
:2015CC0082B4FF030215A002157DE582B4FF03021593C395835007247F400B02157D24805D
:2015EC00145003021593F582C3ED9AEE9BEF9C40111582C3EA33F9EB33FAEC33FBE433FCF3
:20160C008005E4CCCBCAF9C08275F019C3E99DEA9EEB9FEC9400D5F002802D400EE99DF91F
:20162C00EA9EFAEB9FFBEC9400FCC3B3E833F8E58233F582E58333F583C3E933F9EA33FA7F
:20164C00EB33FBEC33FC80C4B3E4F938FAE43582FBE43583FCD082500405827C8012173D87
:03166C00021574F0
:0D00590075815B121770E58260030200568E
:1C166F0020F71430F6148883A88220F507E6A88375830022E280F7E49322E0228A
:01168B00322C
:20168C00C2D5E58330E70DD2D5E4C39582F582E49583F583E54D30E70DB2D5E4C3954CF571
:1816AC004CE4954DF54D12147930D50BE4C39582F582E49583F5832258
:0116C40032F3
:0116C50032F2
:0116C60032F1
:0116C70032F0
:0116C80032EF
:0116C90032EE
:0116CA0032ED
:2016CB00AA82AB83A2F73392D1F5826002D2F7ACF0E58124F9F8E6FD08E6FE0886F008E682
:0E16EB00A2F73392D5F5836002D2F7AFF0225A
:0116F90032BE
:2016FA006040F82582500274FFF582E824F8501ECCCBCAF9E4CC24F85014CBCAF9E4CB24F8
:20171A00F8500BCAF9E4CA24F8500379002224086010F8C3EC13FCEB13FBEA13FAE913F9AA
:03173A00D8F122C1
:20173D007804EC7011E58224F8500AF582E4C9CACBFCD8EF22EC7820058220E713D58201AB
:13175D0022C3E933F9EA33FAEB33FBEC33FCD8EA158222B9
:04177000758200225C
:011774003242
:011775003241
:011776003240
:01177700323F
:00000001FF
