:04000000020059326F
:01000B0032C2
:0100130032BA
:01001B0032B2
:0100230032AA
:03002B000201FBD4
:0300330002013295
:01003B003292
:03004300023F0079
:01004B003282
:03005300023F0069
:1C00B200750800750900750A02750B00750CF4750D01750EF4750F01C200C201BD
:0300E000020056C5
:030056000207C3DB
:2000E300AF827401B54C0280157402B54C0280127405B54C02800F740AB54C12800C7E48C6
:2001030080107E24800C7E0080087E6C800475820022EF60067DE07F0080047D1C7F00EDD7
:20012300F4FFE5A05207ED5E4FF5A075820122C2DC32C0E0C082C083D2005391EF90E65D35
:200143007401F0D083D082D0E032C021C0E0C0F0C082C083C007C006C005C004C003C0025F
:20016300C001C000C0D075D0007582001212125391EF90E65D7410F0D0D0D000D001D002CC
:20018300D003D004D005D006D007D083D082D0F0D0E0D02132C021C0E0C0F0C082C083C085
:2001A30007C006C005C004C003C002C001C000C0D075D0007582011212125391EF90E65D37
:2001C3007420F0D0D0D000D001D002D003D004D005D006D007D083D082D0F0D0E0D0213224
:2001E300C0E0C082C083D2015391EF90E65D7408F0D083D082D0E032C0E0C0D0B287E50E0F
:20020300450F6019150E74FFB50E02150FE50E450F700A850C0E850D0FB2A0D2A1C2CFD068
:20022300D0D0E032E582FF30E00BADB17E004305088DB1800353B1F7EF30E408AEB14306ED
:20024300018EB12253B1FE22850A4C754D00905DC01213F1AE82AF83AC097D00C3EC9EEDE7
:2002630064808FF063F08095F0400990E640E053E07FF02290E640E0FF43078090E640EF19
:20028300F02285820A7401B50A0280057402B50A18AF0A74072FF50B90E618F090E61AE5DA
:2002A3000BF012024B758201227582002290E6F574FFF000000000E5BB30E7FB90E6047440
:2002C30080F00000000090E618E4F00000000090E61AE4F00000000090E6047402F0000005
:2002E300000090E6047406F00000000090E618E50BF00000000090E61AE50BF00000000039
:2003030090E604E4F02290E6F574FFF000000000E50870057E06FF80047E027F0090E64876
:20032300EEF0221202B07EE87F03EE24FFFCEF34FFFD8C068D07EC4D70F0E5BB30E7FB0071
:2003430000000090E6D07428F00000000090E6D1E4F0E50870057E06FF80047E047F008EB5
:20036300BB22AF8290E680E030E7067D1C7E3D80047DA67E3DEF75F010A42416FBE435F07D
:20038300FCEB2DFDEC3EFC7E80EFF508703590E612E4F090E61474E0F090E6E27401F08D20
:2003A300828C838EF01213D490E625F074012DFAE43CFB8E078A828B838FF01213D490E653
:2003C30024F02290E61274D8F090E614E4F090E6D204F08D828C838EF01213D490E621F06A
:2003E3000DBD00010C8D828C838EF01213D4FF90E62074075FF08D828C838EF01213D4C4D6
:2004030023541F90E64004F002024BAF827E00EE75F005A4FCADF024F9F582ED3416F583C3
:20042300E493FBB5070280080EBE16E375820022EC24F9FCED3416FD8C828D83A3A3A3A340
:20044300E49390E601F08C828D83A3E493FDA3E493FEA3E493FF75AF07759DE4759E007CA5
:20046300208C031CEB60168D828E838FF01213D4FBA3AD82AE8390E67CEBF080E47F608F18
:20048300061FEE600790E67CE4F080F375820122AF82BF00028064BF010302052ABF0203FE
:2004A300020538BF0503020546BF0A03020554BF1403020562BF3203020570BF64030205E8
:2004C3007EBF69028017BF6A028021BF6E02802BBF78028035BF9602803F02058C750C1903
:2004E300750D0075CAC075CB63020590750C1E750D0075CACB75CB7D020590750C32750D8A
:200503000075CAE075CBB1020590750C64750D0075CAF075CBD8020590750CFA750D00757A
:20052300CA6075CBF08066750CF4750D0175CA3075CBF88058750CE8750D0375CA1875CB7C
:20054300FC804A750CC4750D0975CA7075CBFE803C750C88750D1375CA3875CBFF802E75E2
:200563000C10750D2775CA9C75CBFF8020750CA8750D6175CAD875CBFF8012750C50750DB2
:20058300C375CAEC75CBFF80047582002275820122AD4CAE4DAF4E8D828E838FF0E50812E5
:2005A300132275820122E582700685108212036575820122758200227582012290E6BBE01D
:2005C300FE7F0090E6BAE07C004207EC420690E6BFE0FC7D0090E6BEE07A004205EA4204FF
:2005E30090E6A0E020E1F990E6B8E0FBBB40028073BBC00280030206C0ED4C70030206C4CF
:20060300C374409DE49C50067A407B0080048D028C0390E6A0E020E1F98A457546007547E0
:20062300407548E77549008F438E44758251C007C006C005C004C002120E59D002D004D062
:2006430005D006D00790E68AE4F00000000090E68BEAF07B00EDC39AFDEC9BFCEA2FFFEBEE
:200663003EFE8095ED4C605990E68BE4F090E6A0E020E1F990E68BE0FB8B38753900753A73
:2006830040753BE7753C008F368E37758251C007C006C005C004C003120DC4E582D003D037
:2006A30004D005D006D0077003F582227A00EB2FFFEA3EFEEDC39BFDEC9AFC80A775820004
:2006C300227582012275820022AF82C007120309D007C2A0D2A1850C0E850D0FBFE00040E1
:2006E30015EF2419401090E68AE4F090E68BF090E6A0E020E1F9BFA2028023BFE002802169
:20070300BFE1028028BFE202802FBFE3028033BFE4028046BFE502804ABFE65D805202052D
:20072300BF90E740E0F54C7582000200E390E740E0F54C7582010200E390E740E0F582027E
:20074300040E90E740E0FFBF010CD2A0C2A1E4F50EF50F1203267582012290E740E0F582FF
:2007630002028590E740E0F5821202277582012290E740E0F5820204937582002290E61341
:20078300E4F090E615F090E6C2F090E6C37480F090E6C0E4F090E6F4F0120309754C017509
:2007A30082001200E3754C017582011200E375820112040E75820212028575820002036501
:2007C30090E600E054E74410F01208DF120780D2E890E668E0FF43070890E668EFF090E6B3
:2007E3005CE0FF43070190E65CEFF0E0FF43071090E65CEFF0E0FF43072090E65CEFF0E0FB
:20080300FF43070890E65CEFF0D2DDD2AF75CA3075CBF875C800D2ADD2CA90E680E043E0AB
:200823000AF09005DC12137D90E680E053E0F7F090E672E4F090E671F090E670F075B10920
:20084300F5A0F58075B6FF75B4FF75B2FFC2A0D2A11000028003120EBD10010280F390E6D0
:2008630082E043E0C0F090E6817401F0AE877F004306018E8700000000000000E513701C4D
:2008830090E682E030E60790E682E020E0D090E682E030E70790E682E020E1C290E682E04F
:2008A30030E60790E682E020E00E90E682E030E7A090E682E030E19990000512137D90E674
:2008C30080E0FF43070190E680EFF090000F12137D90E680E053E0FEF00208547E107F3EB5
:2008E300754C30754D31754E32754F33755034755135755236755337755438755539755666
:2009030041755742755843755944755A45755B4674182EFCE43FFD90E507E0FB5303F0E4E2
:20092300C4CBC4540F6BCB540FCB6BCB30E30244F0EB244CF987038C828D83EBF074162E8C
:20094300FCE43FFD90E507E0FB53030FEB244CF987038C828D83EBF074142EFCE43FFD9083
:20096300E508E0FB5303F0E4C4CBC4540F6BCB540FCB6BCB30E30244F0EB244CF987038C7F
:20098300828D83EBF074122EFCE43FFD90E508E0FB53030FEB244CF987038C828D83EBF083
:2009A30074102EFCE43FFD90E509E0FB5303F0E4C4CBC4540F6BCB540FCB6BCB30E302443A
:2009C300F0EB244CF987038C828D83EBF0740E2EFCE43FFD90E509E0FB53030FEB244CF96F
:2009E30087038C828D83EBF0740C2EFCE43FFD90E50AE0FB5303F0E4C4CBC4540F6BCB54E3
:200A03000FCB6BCB30E30244F0EB244CF987038C828D83EBF0740A2EFCE43FFD90E50AE07C
:200A2300FB53030FEB244CF987038C828D83EBF074082EFCE43FFD90E50BE0FB5303F0E431
:200A4300C4CBC4540F6BCB540FCB6BCB30E30244F0EB244CF987038C828D83EBF074062E7B
:200A6300FCE43FFD90E50BE0FB53030FEB244CF987038C828D83EBF074042EFCE43FFD906E
:200A8300E50CE0FB5303F0E4C4CBC4540F6BCB540FCB6BCB30E30244F0EB244CF987038C5A
:200AA300828D83EBF074022EFEE43FFF90E50CE0FD53050FED244CF987058E828F83EDF05C
:010AC3002210
:201439000F0E00000000000002000100000000005055550000000000000000000000000079
:20145900010100000000000002000100000000005055550000000000000000000000000074
:20147900FAFAFAFAFAF9000002000000000001005055555555555500000000000000000027
:20149900FAFAF90000000000020000010000000050555555000000000000000000000000F4
:2014B900C8C8C700000000000200000100000000505555550000000000000000000000006A
:2014D900FAFAF90000000000020000010000000050555555000000000000000000000000B4
:2014F9009695000000000000020001000000000050555500000000000000000000000000AB
:201519000201000000000000020001000000000050555500000000000000000000000000B2
:201539004B4A00000000000002000100000000005055550000000000000000000000000000
:2015590025250000000000000200010000000000505555000000000000000000000000002B
:201579000100000000000000020100000000000050550000000000000000000000000000A9
:201599001E1D000000000000020001000000000050555500000000000000000000000000FA
:2015B900010100000000000002000100000000005055550000000000000000000000000013
:2015D9000707000000000000020001000000000050555500000000000000000000000000E7
:2015F900010000000000000002010000000000005055000000000000000000000000000029
:201619000504000000000000020001000000000050555500000000000000000000000000AB
:2016390080000000000000000300000000000000000000000000000000000000000000000E
:20165900060500000000000002000100000000005055550000000000000000000000000069
:201679008000000000000000030000000000000000000000000000000000000000000000CE
:2016990003020000000000000200010000000000505555000000000000000000000000002F
:2016B900020200000000000002000100000000005055550000000000000000000000000010
:2016D9000302000000000000020001000000000050555500000000000000000000000000EF
:2016F90030791680EA1E391680AA18F91580CA10B91580CA0F7915808A0C191580CA0A59EB
:2017190014808A08D91680CA06B916808A059916808A04591680CA031916808A02D915804B
:201739008A013914808A969915808A8C5915808A783915808A6EF914808A6AD91480CA69FD
:0E175900B914808A689914808A667914808A8F
:203D000012010002FFFFFF40B50422600702010203010A060002000000400100090289001F
:203D200001010080FA0904000001FF000000070586020002000904000101FF000100070549
:203D400082010014010904000201FF00010007058201000C010904000301FF000100070502
:203D600082010004010904000401FF000100070582010004020904000501FF0001000705F5
:203D800082010004030904000601FF000100070582010004040904000701FF0001000705CD
:053DA000820100020495
:203DA6000902390002010080FA0904000001FF000000070586024000000904000101FF004D
:193DC600010007058201FF03010904000201FF00010007058201000201AF
:203DE0000403090416034F00700065006E00480061006E00740065006B00160344005300F9
:203E00004F002D003600300032003200420045001A03300030003000300030003000300068
:0C3E2000300030003000300030000000A6
:200AC40085822CE5272522FDE5283523FE752D02903C00E4F0903C00E0600475820022902F
:200AE400E678E0FB7A0043038090E678EBF0E030E21090000AC006C00512137DD005D0063C
:200B040080D3E52C25E0FB90E679F090E678E020E006903C00E060F3903C00E060047582B4
:200B2400002290E678E020E2AC90E678E020E14090E678E0FB43034090E678EBF090E678FE
:200B4400E030E606903C00E060F3903C00E0600475820022E52D14FB8B2D7003F5822290F8
:200B6400000AC006C00512137DD005D006020AD97A007B00C3EA9DEB9E4003020C0EC3EAD6
:200B84009522EB95235016EA2524F8EB3525F9AC26888289838CF01213D4FC801DEAC395F0
:200BA40022F8EB9523F9E82529F8E9352AF9AF2B888289838FF01213D4FC90E679ECF00AD3
:200BC400BA00010B90E678E020E006903C00E060F3903C00E060047582002290E678E03051
:200BE400E203020AD990E678E020E18890E678E0FF43074090E678EFF090E678E030E606C2
:200C0400903C00E060F37582002290E678E0FF43074090E678EFF090E678E030E606903CDE
:200C240000E060F3903C00E060047582002275820122858233903C00E4F004B52E0814B5A8
:200C44002F0474018001E4FE903C00E06004758200227C007D0090E678E0FB43038090E65E
:200C640078EBF0E030E20C90000AC00612137DD00680D5E53325E0FB3395E0FA4303019061
:200C8400E679EBF090E678E020E006903C00E060F3903C00E060047582002290E678E0202C
:200CA400E2A690E678E020E11E90E678E0FB43034090E678EBF090E678E030E606903C00ED
:200CC400E060F375820022EE600F90E678E0FB7A0043032090E678EBF090E679E0E4F53419
:200CE400F53574012534F8E43535F9C3E8952EE9952F506C90E678E020E006903C00E06002
:200D0400F3903C00E060047582002290E678E030E203020C4C74022534F8E43535F9E8B5CB
:200D24002E13E9B52F0F90E678E0F8790043002090E678E8F0A834A9350534E4B534020563
:200D440035AC34AD35E82530F8E93531F9AF3290E679E0FB888289838FF0121322020CE6A0
:200D640090E678E020E006903C00E060F3903C00E060047582002290E678E030E203020C82
:200D84004C90E678E0FF43074090E678EFF0EC2530FCED3531FDAF3290E679E08C828D8384
:200DA4008FF012132290E678E030E606903C00E060F3903C00E0600475820022758201223D
:200DC40085823DE4F541F542AB36AC37C3E5419538E54295394003020E557A0090E678E01B
:200DE40030E4067A018C078F3EEA04FFEA243EF98B02A702EF04FAEF243EF9AE41AF420576
:200E040041E4B541020542EE253AFEEF353BFFAD3C8E828F838DF01213D4F78A2275230005
:200E240075243E752500752640E4F527F528F529F52AF52B853D82C004C003120AC4E582D6
:200E4400D003D0047003F582220BBB00010C020DD075820122AF827E0090E678E030E40678
:200E64007E01AD448D4AEE04FDEE244AF9AE43A7068D2275230075244A752500752640E4C2
:200E8400F527F528F529F52AF52B8F82C007120AC4E582D0077003F5822285452E85462FC4
:190EA4008547308548318549328F82120C36E5827003F582227582012249
:06008800E478FFF6D8FD4C
:1200CE007512007513007514A675153D75161C75173DAB
:200EBD0090E6B9E0FF24F45003020FEBEF240A83F582EF241083F583E473EF0BEB27EBEB32
:200EDD0043EB536A8CC60E0F0F0F0F0F0F0F0F0F0F0F12106DE582600302100790E6A0E09D
:200EFD00FF7E0043070190E6A0EFF0021007121101E582600302100790E6A0E0FF7E004342
:200F1D00070190E6A0EFF002100712117CE582600302100790E6A0E0FF7E0043070190E6E8
:200F3D00A0EFF00210071206C8E582600302100712123D0210071205B7AF8290E740EFF02A
:200F5D0090E68AE4F090E68B04F002100790E6BAE0F5821205BBE582600302100790E6A040
:200F7D00E0FF7E0043070190E6A0EFF002100790E6BCE0FF754C11754D00754E408F8212D3
:200F9D000594E582701190E6A0E0FF7E0043070190E6A0EFF0805390E740E511F090E68A90
:200FBD00E4F090E68B04F0804190E6BCE0FF90E6BAE0F5108F821205A9E582702D90E6A079
:200FDD00E0FF7E0043070190E6A0EFF0801C90E6B9E0F5821206CCE582700F90E6A0E0FF76
:200FFD007E0043070190E6A0EFF090E6A0E0FF43078090E6A0EFF022AF82747F5FFE24F7A4
:20101D005003021069EE240A83F582EE240D83F583E473424659695D6961696510101010DF
:20103D00101010101090E6A022EF30E7067EA27FE680047EA17FE68E828F832290E6A322F3
:20105D0090E6A42290E6A52290E6A6229000002290E6B8E0FFBF80028022BF81028008BF91
:20107D00820280370210F990E740E4F090E741F090E68AF090E68B7402F08064E51325E0A2
:20109D00FFE512420790E740EFF090E741E4F090E68AF090E68B7402F0804590E6BCE0F5AF
:2010BD0082121015AE82AF838E048F05EE4F7003F582228C828D83E0FC30E0067E017F007B
:2010DD0080047E007F0090E740EEF090E741E4F090E68AF090E68B7402F08004758200225D
:2010FD007582012290E6B8E0FF6005BF0264801B90E6BAE0FFBF0105751300805E90E6BA1D
:20111D00E0FFBF060280547582002290E6BAE0703D90E6BCE0F582121015AE82AF83E0FD63
:20113D005305FE8E828F83EDF090E6BCE0FF30E7098F057E004305108D0753071F90E6839C
:20115D00EFF07E0043072090E683EFF0800D7582002290E6B9E0F5820206CC758201229029
:20117D00E6B8E0FF6008BF0202802902120590E6BAE0FFBF020302120E90E6BAE0FFBF0124
:20119D0005751301806B90E6BAE0FFBF060280617582002290E6BAE0704A90E6BCE0F58296
:2011BD00121015AE82AF83EE4F7003F582228E828F83E0FD7C004305018E828F83EDF090DD
:2011DD00E6BCE0FF30E7098F057E004305108D0753071F90E683EFF07E0043072090E68321
:2011FD00EFF0800D7582002290E6B9E0F5820206CC75820122AF827E0110AF027E00EF609B
:20121D000E75141C75153D7516A675173D800C7514A675153D75161C75173DEE1392AF22E7
:20123D0090E6BBE0FFBF01028019BF02028024BF0302802CBF06030212F7BF070302130797
:20125D000213147E007F3D90E6B3EFF090E6B47400F02290E6B3E515F090E6B4E514F0220E
:20127D007DE07E3D7F8090E6BAE0F54C7B008B020BEAB54C0280428D008E018F028D828EDD
:20129D00838FF01213D428F8E439F9880589068A0774012DF9E43EFA8F0489828A838CF075
:2012BD001213D4F9B9030280067D007E007F00ED4E6006C3E54C9B50B5ED4E600F8D038E64
:2012DD000490E6B3ECF090E6B4EDF02290E6A0E0FF43070190E6A0EFF0227E127F3D90E6A6
:2012FD00B3EFF090E6B47412F02290E6B3E517F090E6B4E516F02290E6A0E0FF4307019061
:05131D00E6A0EFF02244
:200066007900E94400601B7A00901767780175923CE493F2A308B800020592D9F4DAF275A2
:0200860092FFE7
:1B13220020F71130F6138883A88220F509F6A8837583002280FEF280F5F022CA
:203F0000020135000214370002142C000201E30002014D0002019800021429000213710044
:203F200002137300021374000213750002137800021436000214380002133D0002133F0019
:203F400002142E00021371000213F00002142A0002142B0002142D0002142F000214300043
:203F60000213D30002137100021371000213710002137200021376000213790002137B0097
:203F80000213770002137A0002137C000213D2000213400002136B0002136D0002136F00B3
:183FA0000213410002136C0002136E000213700002133E00021435008C
:01133D00327D
:01133E00327C
:01133F00327B
:01134000327A
:011341003279
:20008E007800E84400600A790075923CE4F309D8FC7801E84400600C7901903C00E4F0A306
:0400AE00D8FCD9FAA7
:201342007A10E4FBFCE58225E0F582E58333F583EB33FBEC33FCEB954CF5F0EC954D400637
:09136200FCABF0438201DADD224C
:01136B00324F
:01136C00324E
:01136D00324D
:01136E00324C
:01136F00324B
:01137000324A
:011371003249
:011372003248
:011373003247
:011374003246
:011375003245
:011376003244
:011377003243
:011378003242
:011379003241
:01137A003240
:01137B00323F
:01137C00323E
:20137D00AE82AF8390E600E05418C423541F70057CB1FD801C90E600E05418C423541FFB80
:20139D00BB01067A617B0180047AC27B028A048B058C4C8D4D154C74FFB54C02154DE54CA0
:1513BD00454D70F1EE24FFFAEF34FFFB8A068B07EA4B70DD223A
:0113D20032E8
:0113D30032E7
:0D00590075815B121431E5826003020056D0
:1C13D40020F71430F6148883A88220F507E6A88375830022E280F7E49322E02228
:0113F00032CA
:2013F100C2D5E58330E70DD2D5E4C39582F582E49583F583E54D30E70DB2D5E4C3954CF50F
:181411004CE4954DF54D12134230D50BE4C39582F582E49583F583222D
:011429003290
:01142A00328F
:01142B00328E
:01142C00328D
:01142D00328C
:01142E00328B
:01142F00328A
:011430003289
:04143100758200229E
:011435003284
:011436003283
:011437003282
:011438003281
:00000001FF
