:04000000020059326F
:01000B0032C2
:0100130032BA
:01001B0032B2
:0100230032AA
:03002B000201FBD4
:0300330002013295
:01003B003292
:03004300023F0079
:01004B003282
:03005300023F0069
:1C00B200750800750900750A02750B00750CF4750D01750EF4750F01C200C201BD
:0300E000020056C5
:030056000207C2DC
:2000E300AF827401B54C0280157402B54C0280127405B54C02800F740AB54C12800C7E48C6
:2001030080107E24800C7E0080087E6C800475820022EF60067DE07F0080047D1C7F00EDD7
:20012300F4FFE5A05207ED5E4FF5A075820122C2DC32C0E0C082C083D2005391EF90E65D35
:200143007401F0D083D082D0E032C021C0E0C0F0C082C083C007C006C005C004C003C0025F
:20016300C001C000C0D075D0007582001212115391EF90E65D7410F0D0D0D000D001D002CD
:20018300D003D004D005D006D007D083D082D0F0D0E0D02132C021C0E0C0F0C082C083C085
:2001A30007C006C005C004C003C002C001C000C0D075D0007582011212115391EF90E65D38
:2001C3007420F0D0D0D000D001D002D003D004D005D006D007D083D082D0F0D0E0D0213224
:2001E300C0E0C082C083D2015391EF90E65D7408F0D083D082D0E032C0E0C0D0B287E50E0F
:20020300450F6019150E74FFB50E02150FE50E450F700A850C0E850D0FB2A0D2A1C2CFD068
:20022300D0D0E032E582FF30E00BADB17E004305088DB1800353B1F7EF30E408AEB14306ED
:20024300018EB12253B1FE22850A4C754D00905DC01213F0AE82AF83AC097D00C3EC9EEDE8
:2002630064808FF063F08095F0400990E640E053E07FF02290E640E0FF43078090E640EF19
:20028300F02285820A7401B50A0280057402B50A18AF0A74072FF50B90E618F090E61AE5DA
:2002A3000BF012024B758201227582002290E6F574FFF000000000E5BB60FC90E604748076
:2002C300F00000000090E618E4F00000000090E61AE4F00000000090E6047402F000000085
:2002E3000090E6047406F00000000090E618E50BF00000000090E61AE50BF00000000090A9
:20030300E604E4F02290E6F574FFF000000000E50870057E06FF80047E027F0090E648EE18
:20032300F0221202B07EE87F03EE24FFFCEF34FFFD8C068D07EC4D70F0E5BB30E7FB00005F
:20034300000090E6D07428F00000000090E6D1E4F0E50870057E06FF80047E047F008EBBFA
:2003630022AF8290E680E030E7067D1C7E3D80047DA67E3DEF75F010A42416FBE435F0FC3C
:20038300EB2DFDEC3EFC7E80EFF508703590E612E4F090E61474E0F090E6E27401F08D829A
:2003A3008C838EF01213D390E625F074012DFAE43CFB8E078A828B838FF01213D390E624B3
:2003C300F02290E61274D8F090E614E4F090E6D204F08D828C838EF01213D390E621F00D82
:2003E300BD00010C8D828C838EF01213D3FF90E62074075FF08D828C838EF01213D3C423C2
:20040300541F90E64004F002024BAF827E00EE75F005A4FCADF024B8F582ED3416F583E443
:2004230093FBB5070280080EBE14E375820022EC24B8FCED3416FD8C828D83A3A3A3A3E483
:200443009390E601F08C828D83A3E493FDA3E493FEA3E493FF75AF07759DE4759E007C2069
:200463008C031CEB60168D828E838FF01213D3FBA3AD82AE8390E67CEBF080E47F608F0633
:200483001FEE600790E67CE4F080F375820122AF82BF00028064BF0103020529BF02030203
:2004A3000537BF0503020545BF0A03020553BF1403020561BF320302056FBF640302057D72
:2004C300BF69028017BF6A028021BF6E02802BBF78028035BF9602803F02058B750C19750D
:2004E3000D0075CAC075CB6302058F750C1E750D0075CACB75CB7D02058F750C32750D0001
:2005030075CAE075CBB102058F750C64750D0075CAF075CBD802058F750CFA750D0075CAB2
:200523006075CBF08066750CF4750D0175CA3075CBF88058750CE8750D0375CA1875CBFC4A
:20054300804A750CC4750D0975CA7075CBFE803C750C88750D1375CA3875CBFF802E750CD2
:2005630010750D2775CA9C75CBFF8020750CA8750D6175CAD875CBFF8012750C50750DC3FB
:2005830075CAEC75CBFF80047582002275820122AD4CAE4DAF4E8D828E838FF0E508121395
:2005A3002175820122E582700685108212036475820122758200227582012290E6BBE0FE34
:2005C3007F0090E6BAE07C004207EC420690E6BFE0FC7D0090E6BEE07A004205EA4204906D
:2005E300E6A0E020E1F990E6B8E0FBBB40028073BBC00280030206BFED4C70030206C3C39E
:2006030074409DE49C50067A407B0080048D028C0390E6A0E020E1F98A4575460075474063
:200623007548E77549008F438E44758251C007C006C005C004C002120E58D002D004D0059E
:20064300D006D00790E68AE4F00000000090E68BEAF07B00EDC39AFDEC9BFCEA2FFFEB3EB5
:20066300FE8095ED4C605990E68BE4F090E6A0E020E1F990E68BE0FB8B38753900753A4071
:20068300753BE7753C008F368E37758251C007C006C005C004C003120DC3E582D003D00474
:2006A300D005D006D0077003F582227A00EB2FFFEA3EFEEDC39BFDEC9AFC80A775820022E6
:2006C3007582012275820022AF82C007120308D007C2A0D2A1850C0E850D0FBFE0004015EF
:2006E300EF2419401090E68AE4F090E68BF090E6A0E020E1F9BFA2028023BFE0028021BFBF
:20070300E1028028BFE202802FBFE3028033BFE4028046BFE502804ABFE65D80520205BE2E
:2007230090E740E0F54C7582000200E390E740E0F54C7582010200E390E740E0F582020439
:200743000D90E740E0FFBF010CD2A0C2A1E4F50EF50F1203257582012290E740E0F5820203
:20076300028590E740E0F5821202277582012290E740E0F5820204927582002290E613E460
:20078300F090E615F090E6C2F090E6C37480F090E6C0E4F090E6F4F0120308754C0175826C
:2007A300001200E3754C017582011200E375820112040D75820212028575820002036490F5
:2007C300E600E054E74410F01208DE12077FD2E890E668E0FF43070890E668EFF090E65CE9
:2007E300E0FF43070190E65CEFF0E0FF43071090E65CEFF0E0FF43072090E65CEFF0E0FF58
:2008030043070890E65CEFF0D2DDD2AF75CA3075CBF875C800D2ADD2CA90E680E043E00AA0
:20082300F09005DC12137C90E680E053E0F7F090E672E4F090E671F090E670F075B109F536
:20084300A0F58075B6FF75B4FF75B2FFC2A0D2A11000028003120EBC10010280F390E68244
:20086300E043E0C0F090E6817401F0AE877F004306018E8700000000000000E513701C903F
:20088300E682E030E60790E682E020E0D090E682E030E70790E682E020E1C290E682E030AF
:2008A300E60790E682E020E00E90E682E030E7A090E682E030E19990000512137C90E68025
:2008C300E0FF43070190E680EFF090000F12137C90E680E053E0FEF00208537E107F3E75C2
:2008E3004C30754D31754E32754F337550347551357552367553377554387555397556419A
:20090300755742755843755944755A45755B4674182EFCE43FFD90E507E0FB5303F0E4C45F
:20092300CBC4540F6BCB540FCB6BCB30E30244F0EB244CF987038C828D83EBF074162EFC54
:20094300E43FFD90E507E0FB53030FEB244CF987038C828D83EBF074142EFCE43FFD90E59A
:2009630008E0FB5303F0E4C4CBC4540F6BCB540FCB6BCB30E30244F0EB244CF987038C82E2
:200983008D83EBF074122EFCE43FFD90E508E0FB53030FEB244CF987038C828D83EBF07491
:2009A300102EFCE43FFD90E509E0FB5303F0E4C4CBC4540F6BCB540FCB6BCB30E30244F0BE
:2009C300EB244CF987038C828D83EBF0740E2EFCE43FFD90E509E0FB53030FEB244CF987D8
:2009E300038C828D83EBF0740C2EFCE43FFD90E50AE0FB5303F0E4C4CBC4540F6BCB540F5B
:200A0300CB6BCB30E30244F0EB244CF987038C828D83EBF0740A2EFCE43FFD90E50AE0FB90
:200A230053030FEB244CF987038C828D83EBF074082EFCE43FFD90E50BE0FB5303F0E4C468
:200A4300CBC4540F6BCB540FCB6BCB30E30244F0EB244CF987038C828D83EBF074062EFC43
:200A6300E43FFD90E50BE0FB53030FEB244CF987038C828D83EBF074042EFCE43FFD90E585
:200A83000CE0FB5303F0E4C4CBC4540F6BCB540FCB6BCB30E30244F0EB244CF987038C82BD
:200AA3008D83EBF074022EFEE43FFF90E50CE0FD53050FED244CF987058E828F83EDF022BC
:201438000F0E0000000000000200010000000000505555000000000000000000000000007A
:20145800010100000000000002000100000000005055550000000000000000000000000075
:20147800FAFAFAFAFAF9000002000000000001005055555555555500000000000000000028
:20149800C8C8C700000000000200000100000000505555550000000000000000000000008B
:2014B800FAFAF90000000000020000010000000050555555000000000000000000000000D5
:2014D8009695000000000000020001000000000050555500000000000000000000000000CC
:2014F8000201000000000000020001000000000050555500000000000000000000000000D4
:201518004B4A00000000000002000100000000005055550000000000000000000000000021
:201538000100000000000000020100000000000050550000000000000000000000000000EA
:201558001E1D0000000000000200010000000000505555000000000000000000000000003B
:20157800010100000000000002000100000000005055550000000000000000000000000054
:20159800070700000000000002000100000000005055550000000000000000000000000028
:2015B80001000000000000000201000000000000505500000000000000000000000000006A
:2015D8000504000000000000020001000000000050555500000000000000000000000000ED
:2015F800800000000000000003000000000000000000000000000000000000000000000050
:201618000605000000000000020001000000000050555500000000000000000000000000AA
:2016380080000000000000000300000000000000000000000000000000000000000000000F
:20165800030200000000000002000100000000005055550000000000000000000000000070
:20167800020200000000000002000100000000005055550000000000000000000000000051
:20169800030200000000000002000100000000005055550000000000000000000000000030
:2016B80030381680EA1EF81580AA18B81580CA10781580CA0F3815808A0CF81480CA0A5895
:2016D80014808A08981680CA067816808A055816808A04181680CA03D815808A0298158014
:2016F8008A013814808A965815808A781815808A6ED814808A6AB81480CA699814808A66CC
:041718007814808A37
:203D000012010002FFFFFF40B50422600602010203010A0600020000004001000902890020
:203D200001010080FA0904000001FF000000070586020002000904000101FF000100070549
:203D400082010014010904000201FF00010007058201000C010904000301FF000100070502
:203D600082010004010904000401FF000100070582010004020904000501FF0001000705F5
:203D800082010004030904000601FF000100070582010004040904000701FF0001000705CD
:053DA000820100020495
:203DA6000902390002010080FA0904000001FF000000070586024000000904000101FF004D
:193DC600010007058201FF03010904000201FF00010007058201000201AF
:203DE0000403090416034F00700065006E00480061006E00740065006B00160344005300F9
:203E00004F002D003600300032003200420045001A03300030003000300030003000300068
:0C3E2000300030003000300030000000A6
:200AC30085822CE5272522FDE5283523FE752D02903C00E4F0903C00E06004758200229030
:200AE300E678E0FB7A0043038090E678EBF0E030E21090000AC006C00512137CD005D0063E
:200B030080D3E52C25E0FB90E679F090E678E020E006903C00E060F3903C00E060047582B5
:200B2300002290E678E020E2AC90E678E020E14090E678E0FB43034090E678EBF090E678FF
:200B4300E030E606903C00E060F3903C00E0600475820022E52D14FB8B2D7003F5822290F9
:200B6300000AC006C00512137CD005D006020AD87A007B00C3EA9DEB9E4003020C0DC3EADA
:200B83009522EB95235016EA2524F8EB3525F9AC26888289838CF01213D3FC801DEAC395F2
:200BA30022F8EB9523F9E82529F8E9352AF9AF2B888289838FF01213D3FC90E679ECF00AD5
:200BC300BA00010B90E678E020E006903C00E060F3903C00E060047582002290E678E03052
:200BE300E203020AD890E678E020E18890E678E0FF43074090E678EFF090E678E030E606C4
:200C0300903C00E060F37582002290E678E0FF43074090E678EFF090E678E030E606903CDF
:200C230000E060F3903C00E060047582002275820122858233903C00E4F004B52E0814B5A9
:200C43002F0474018001E4FE903C00E06004758200227C007D0090E678E0FB43038090E65F
:200C630078EBF0E030E20C90000AC00612137CD00680D5E53325E0FB3395E0FA4303019063
:200C8300E679EBF090E678E020E006903C00E060F3903C00E060047582002290E678E0202D
:200CA300E2A690E678E020E11E90E678E0FB43034090E678EBF090E678E030E606903C00EE
:200CC300E060F375820022EE600F90E678E0FB7A0043032090E678EBF090E679E0E4F5341A
:200CE300F53574012534F8E43535F9C3E8952EE9952F506C90E678E020E006903C00E06003
:200D0300F3903C00E060047582002290E678E030E203020C4B74022534F8E43535F9E8B5CD
:200D23002E13E9B52F0F90E678E0F8790043002090E678E8F0A834A9350534E4B534020564
:200D430035AC34AD35E82530F8E93531F9AF3290E679E0FB888289838FF0121321020CE5A3
:200D630090E678E020E006903C00E060F3903C00E060047582002290E678E030E203020C83
:200D83004B90E678E0FF43074090E678EFF0EC2530FCED3531FDAF3290E679E08C828D8386
:200DA3008FF012132190E678E030E606903C00E060F3903C00E0600475820022758201223F
:200DC30085823DE4F541F542AB36AC37C3E5419538E54295394003020E547A0090E678E01D
:200DE30030E4067A018C078F3EEA04FFEA243EF98B02A702EF04FAEF243EF9AE41AF420577
:200E030041E4B541020542EE253AFEEF353BFFAD3C8E828F838DF01213D3F78A2275230007
:200E230075243E752500752640E4F527F528F529F52AF52B853D82C004C003120AC3E582D8
:200E4300D003D0047003F582220BBB00010C020DCF75820122AF827E0090E678E030E4067A
:200E63007E01AD448D4AEE04FDEE244AF9AE43A7068D2275230075244A752500752640E4C3
:200E8300F527F528F529F52AF52B8F82C007120AC3E582D0077003F5822285452E85462FC6
:190EA3008547308548318549328F82120C35E5827003F58222758201224B
:06008800E478FFF6D8FD4C
:1200CE007512007513007514A675153D75161C75173DAB
:200EBC0090E6B9E0FF24F45003020FEAEF240A83F582EF241083F583E473EE0AEA26EAEA3A
:200EDC0042EA52698BC50E0F0F0F0F0F0F0F0F0F0F0F12106CE582600302100690E6A0E0A6
:200EFC00FF7E0043070190E6A0EFF0021006121100E582600302100690E6A0E0FF7E004346
:200F1C00070190E6A0EFF002100612117BE582600302100690E6A0E0FF7E0043070190E6EC
:200F3C00A0EFF00210061206C7E582600302100612123C0210061205B6AF8290E740EFF031
:200F5C0090E68AE4F090E68B04F002100690E6BAE0F5821205BAE582600302100690E6A044
:200F7C00E0FF7E0043070190E6A0EFF002100690E6BCE0FF754C11754D00754E408F8212D5
:200F9C000593E582701190E6A0E0FF7E0043070190E6A0EFF0805390E740E511F090E68A92
:200FBC00E4F090E68B04F0804190E6BCE0FF90E6BAE0F5108F821205A8E582702D90E6A07B
:200FDC00E0FF7E0043070190E6A0EFF0801C90E6B9E0F5821206CBE582700F90E6A0E0FF78
:200FFC007E0043070190E6A0EFF090E6A0E0FF43078090E6A0EFF022AF82747F5FFE24F7A5
:20101C005003021068EE240A83F582EE240D83F583E473414558685C6860686410101010EA
:20103C00101010101090E6A022EF30E7067EA27FE680047EA17FE68E828F832290E6A322F4
:20105C0090E6A42290E6A52290E6A6229000002290E6B8E0FFBF80028022BF81028008BF92
:20107C00820280370210F890E740E4F090E741F090E68AF090E68B7402F08064E51325E0A4
:20109C00FFE512420790E740EFF090E741E4F090E68AF090E68B7402F0804590E6BCE0F5B0
:2010BC0082121014AE82AF838E048F05EE4F7003F582228C828D83E0FC30E0067E017F007D
:2010DC0080047E007F0090E740EEF090E741E4F090E68AF090E68B7402F08004758200225E
:2010FC007582012290E6B8E0FF6005BF0264801B90E6BAE0FFBF0105751300805E90E6BA1E
:20111C00E0FFBF060280547582002290E6BAE0703D90E6BCE0F582121014AE82AF83E0FD65
:20113C005305FE8E828F83EDF090E6BCE0FF30E7098F057E004305108D0753071F90E6839D
:20115C00EFF07E0043072090E683EFF0800D7582002290E6B9E0F5820206CB75820122902B
:20117C00E6B8E0FF6008BF0202802902120490E6BAE0FFBF020302120D90E6BAE0FFBF0127
:20119C0005751301806B90E6BAE0FFBF060280617582002290E6BAE0704A90E6BCE0F58297
:2011BC00121014AE82AF83EE4F7003F582228E828F83E0FD7C004305018E828F83EDF090DF
:2011DC00E6BCE0FF30E7098F057E004305108D0753071F90E683EFF07E0043072090E68322
:2011FC00EFF0800D7582002290E6B9E0F5820206CB75820122AF827E0110AF027E00EF609D
:20121C000E75141C75153D7516A675173D800C7514A675153D75161C75173DEE1392AF22E8
:20123C0090E6BBE0FFBF01028019BF02028024BF0302802CBF06030212F6BF07030213069A
:20125C000213137E007F3D90E6B3EFF090E6B47400F02290E6B3E515F090E6B4E514F02210
:20127C007DE07E3D7F8090E6BAE0F54C7B008B020BEAB54C0280428D008E018F028D828EDE
:20129C00838FF01213D328F8E439F9880589068A0774012DF9E43EFA8F0489828A838CF077
:2012BC001213D3F9B9030280067D007E007F00ED4E6006C3E54C9B50B5ED4E600F8D038E66
:2012DC000490E6B3ECF090E6B4EDF02290E6A0E0FF43070190E6A0EFF0227E127F3D90E6A7
:2012FC00B3EFF090E6B47412F02290E6B3E517F090E6B4E516F02290E6A0E0FF4307019062
:05131C00E6A0EFF02245
:200066007900E94400601B7A0090171C780175923CE493F2A308B800020592D9F4DAF275ED
:0200860092FFE7
:1B13210020F71130F6138883A88220F509F6A8837583002280FEF280F5F022CB
:203F0000020135000214360002142B000201E30002014D0002019800021428000213700048
:203F200002137200021373000213740002137700021435000214370002133C0002133E0021
:203F400002142D00021370000213EF000214290002142A0002142C0002142E0002142F004B
:203F60000213D20002137000021370000213700002137100021375000213780002137A009F
:203F8000021376000213790002137B000213D10002133F0002136A0002136C0002136E00BB
:183FA0000213400002136B0002136D0002136F0002133D000214340092
:01133C00327E
:01133D00327D
:01133E00327C
:01133F00327B
:01134000327A
:20008E007800E84400600A790075923CE4F309D8FC7801E84400600C7901903C00E4F0A306
:0400AE00D8FCD9FAA7
:201341007A10E4FBFCE58225E0F582E58333F583EB33FBEC33FCEB954CF5F0EC954D400638
:09136100FCABF0438201DADD224D
:01136A003250
:01136B00324F
:01136C00324E
:01136D00324D
:01136E00324C
:01136F00324B
:01137000324A
:011371003249
:011372003248
:011373003247
:011374003246
:011375003245
:011376003244
:011377003243
:011378003242
:011379003241
:01137A003240
:01137B00323F
:20137C00AE82AF8390E600E05418C423541F70057CB1FD801C90E600E05418C423541FFB81
:20139C00BB01067A617B0180047AC27B028A048B058C4C8D4D154C74FFB54C02154DE54CA1
:1513BC00454D70F1EE24FFFAEF34FFFB8A068B07EA4B70DD223B
:0113D10032E9
:0113D20032E8
:0D00590075815B121430E5826003020056D1
:1C13D30020F71430F6148883A88220F507E6A88375830022E280F7E49322E02229
:0113EF0032CB
:2013F000C2D5E58330E70DD2D5E4C39582F582E49583F583E54D30E70DB2D5E4C3954CF510
:181410004CE4954DF54D12134130D50BE4C39582F582E49583F583222F
:011428003291
:011429003290
:01142A00328F
:01142B00328E
:01142C00328D
:01142D00328C
:01142E00328B
:01142F00328A
:04143000758200229F
:011434003285
:011435003284
:011436003283
:011437003282
:00000001FF
