:040000000201B9320E
:01000B0032C2
:0100130032BA
:01001B0032B2
:0100230032AA
:03002B0002035B72
:0300330002029234
:01003B003292
:01004300328A
:01004B003282
:01005300327A
:01005B003272
:01006300326A
:03006B00020295F9
:0300730002125E18
:03007B00020A5422
:0300830002034332
:03008B000202ADC1
:030093000202F86E
:03009B00020A5105
:0300A3000212B195
:0300AB000212B28C
:0300B3000212B383
:0300BB000212B678
:0300C30002125DC9
:0300CB0002127AA4
:0300D30002127B9B
:0300DB0002127D91
:0300E300020E4BBF
:0300EB0002132FCE
:0300F300020A52AC
:0300FB00020A53A3
:03010300020E4A9F
:03010B00020E4C95
:03011300020E4D8C
:03011B00021312BA
:030123000212AF16
:03012B000212B409
:030133000212B7FE
:03013B000212B9F4
:030143000212B0F5
:03014B000212B5E8
:030153000212B8DD
:03015B000212BAD3
:0301630002131173
:03016B0002127EFF
:030173000212A9CC
:03017B000212ABC2
:030183000212ADB8
:03018B0002127FDE
:030193000212AAAB
:03019B000212ACA1
:0301A3000212AE97
:0301AB0002127CC1
:0301B30002125CD9
:1C021200750800750900750A02750B00750CF4750D01750EF4750F01C200C2015B
:030240000201B602
:0301B60002093DFE
:20024300AF827401B5180280157402B5180280127405B51802800F740AB51812800C7E4834
:2002630080107E24800C7E0080087E6C800475820022EF60067DE07F0080047D1C7F00ED76
:20028300F4FFE5A05207ED5E4FF5A075820122C2DC32C0E0C082C083D2005391EF90E65DD4
:2002A3007401F0D083D082D0E032C021C0E0C0F0C082C083C007C006C005C004C003C002FE
:2002C300C001C000C0D075D0007582001211485391EF90E65D7410F0D0D0D000D001D00236
:2002E300D003D004D005D006D007D083D082D0F0D0E0D02132C021C0E0C0F0C082C083C024
:2003030007C006C005C004C003C002C001C000C0D075D0007582011211485391EF90E65DA0
:200323007420F0D0D0D000D001D002D003D004D005D006D007D083D082D0F0D0E0D02132C2
:20034300C0E0C082C083D2015391EF90E65D7408F0D083D082D0E032C0E0C007C006C0D04C
:2003630075D000B287AE0EAF0F150E74FFB50E02150FEE4F700A850C0E850D0FB2A0D2A147
:20038300C2CFD0D0D006D007D0E032E582FF30E00BADB17E004305088DB1800353B1F7EF42
:2003A30030E408AEB14306018EB12253B1FE22850A18751900905DC0121330AE82AF83ACAB
:2003C300097D00C3EC9EED64808FF063F08095F0400990E640E053E07FF02290E640E0FF67
:2003E30043078090E640EFF02285820A7401B50A0280057402B50A18AF0A74072FF50B906D
:20040300E618F090E61AE50BF01203B2758201227582002290E6F574FFF0000000E5BB60B3
:20042300FC90E6047480F000000090E618E4F000000090E61AE4F000000090E6047402F0B9
:2004430000000090E6047406F000000090E618E50BF000000090E61AE50BF000000090E661
:2004630004E4F02290E6F574FFF0000000E50870057E06FF80047E027F0090E648EEF0228B
:200483001204177EE87F03EE24FFFCEF34FFFD8C068D07EC4D70F0E5BB30E7FB0000009017
:2004A300E6D07428F000000090E6D1E4F0E50870057E06FF80047E047F008EBB22AF829046
:2004C300E680E030E7067D1C7E3D80047DA67E3DEF75F010A42416FBE435F0FCEB2DFDECBD
:2004E3003EFC7E80EFF508703590E612E4F090E61474E0F090E6E27401F08D828C838EF0AD
:2005030012131390E625F074012DFAE43CFB8E078A828B838FF012131390E624F02290E6D6
:200523001274D8F090E614E4F090E6D204F08D828C838EF012131390E621F00DBD00010C9E
:200543008D828C838EF0121313FF90E62074075FF08D828C838EF0121313C423541F90E6C1
:200563004004F00203B2AF827E00EE75F007A4FCADF0246CF582ED3413F583E493FBB50766
:200583000280080EBE12E375820022EC246CFCED3413FD74062CF582E43DF583E49390E6A8
:2005A30001F075AF07759DE4759E008C828D83A3E49390E67CF08C828D83A3A3E49390E6A8
:2005C3007CF07401F0E4F0F0F0F0F08C828D83A3A3A39390E67CF08C828D83A3A3A3A3E4A9
:2005E3009390E67CF07401F0E4F0F0F0F0F08C828D83A3A3A3A3A39390E67CF07444F0F030
:20060300E4F0F0F0F0F0F0F0F0F0F0F0F0F07F0090E67CE4F00FBF600040F575820122AF52
:2006230082BF0002804FBF01028076BF02030206B2BF05030206C0BF0A030206CEBF140368
:200643000206DCBF32030206EABF64030206F8BF69028012BF6E02801CBF78028026BF96EC
:20066300028030020706750C19750D0075CAC075CB6302070A750C32750D0075CAE075CB51
:20068300B102070A750C64750D0075CAF075CBD802070A750CFA750D0075CA6075CBF08086
:2006A30066750CF4750D0175CA3075CBF88058750CE8750D0375CA1875CBFC804A750CC4CA
:2006C300750D0975CA7075CBFE803C750C88750D1375CA3875CBFF802E750C10750D277532
:2006E300CA9C75CBFF8020750CA8750D6175CAD875CBFF8012750C50750DC375CAEC75CB3D
:20070300FF80047582002275820122AD18AE19AF1A8D828E838FF0E50812125F75820122A2
:20072300E58270068510821204C075820122758200227582012290E6BBE0FE7F0090E6BAE1
:20074300E07C004207EC420690E6BFE0FC7D0090E6BEE07A004205EA420490E6A0E020E133
:20076300F990E6B8E0FBBB40028072BBC0028003020839ED4C700302083DC374409DE49CBB
:2007830050067A407B0080048D028C0390E6A0E020E1F98A457546007547407548E7754951
:2007A300008F438E44758251C007C006C005C004C002120DE5D002D004D005D006D00790B6
:2007C300E68AE4F000000090E68BEAF07B00EDC39AFDEC9BFCEA2FFFEB3EFE8096ED4C60C4
:2007E3005990E68BE4F090E6A0E020E1F990E68BE0FB8B38753900753A40753BE7753C0054
:200803008F368E37758251C007C006C005C004C003120D4FE582D003D004D005D006D0072C
:200823007003F582227A00EB2FFFEA3EFEEDC39BFDEC9AFC80A775820022758201227582D5
:200843000022AF82C007120467D007C2A0D2A1750EE8750F03BFE0004015EF241940109060
:20086300E68AE4F090E68BF090E6A0E020E1F9BFA2028023BFE0028021BFE1028028BFE21D
:2008830002802FBFE3028033BFE4028047BFE502804BBFE65E805302073990E740E0F518B4
:2008A30075820002024390E740E0F51875820102024390E740E0F58202056990E740E0FF00
:2008C300BF010DD2A0C2A1850C0E850D0F1204837582012290E740E0F5820203EC90E740CA
:2008E300E0F58212038E7582012290E740E0F5820206227582002290E613E4F090E615F0B8
:2009030090E6C2F090E6C37480F090E6C0E4F090E6F4F0120467751801758200120243755D
:2009230018017582011202437582011205697582021203EC7582000204C090E600E054E78C
:200943004410F01208FAE500D2E890E668E0FF43070890E668EFF090E65CE0FF4307019045
:20096300E65CEFF0E0FF43071090E65CEFF0E0FF43072090E65CEFF0E0FF43070890E65C6C
:20098300EFF0D2DDD2AF75CA3075CBF875C800D2ADD2CA90E680E043E00AF09005DC1212BE
:2009A300BB90E680E053E0F7F090E672E4F090E671F090E670F075B6FF75B4FF75B2FFC2E6
:2009C300A0D2A11000028003120E4E10010280F390E682E043E0C0F090E6817401F0AE873C
:2009E3007F004306018E8700000000000000E513701C90E682E030E60790E682E020E0D0F5
:200A030090E682E030E70790E682E020E1C290E682E030E60790E682E020E00E90E682E08F
:200A230030E7A090E682E030E1999000051212BB90E680E0FF43070190E680EFF090000F72
:0E0A43001212BB90E680E053E0FEF00209C6FE
:20136C00308000030000EA1E8000030000AA180100020140CA100101020040CA0F01000223
:20138C0001408A0C0201020040CA0A01010200408A080302020040CA0602020200408A058F
:2013AC0003020200408A040605020040CA0305040200408A0207070200408A010F0E020061
:1E13CC00408A961E1D0200408A784B4A0200408A6E96950200408A6AFAF90200408A35
:203D000012010002FFFFFF40B50422600302010203010A0600020000004001000902890023
:203D200001010080370904000001FF000000070586020002000904000101FF00010007050C
:203D400082010014010904000201FF00010007058201000C010904000301FF000100070502
:203D600082010004010904000401FF000100070582010004020904000501FF0001000705F5
:203D800082010004030904000601FF000100070582010004040904000701FF0001000705CD
:053DA000820100020495
:203DA6000902390002010080370904000001FF000000070586024000000904000101FF0010
:193DC600010007058201FF03010904000201FF00010007058201000201AF
:203DE000040309040E03480061006E00740065006B001603440053004F002D0036003000B1
:1E3E00003200320042004500140343007500730074006F006D0020004600570000006A
:010A51003272
:010A52003271
:010A53003270
:010A5400326F
:200A5500AF82E5272522F52CE5283523F52D752E02903C00E4F0EF2FFF903C00E0E0600403
:200A75007582002290E678E0FB74804BF0E0FB30E20C90000AC0071212BBD00780DB90E66F
:200A950079EFF090E678E0FB20E007903C00E0E060F1903C00E0E060047582002290E67845
:200AB500E0FB20E2B490E678E0FB20E13B90E678E0FB74404BF090E678E0FB30E607903C21
:200AD50000E0E060F1903C00E0E0600475820022E52E14FB8B2E7003F5822290000AC0079F
:200AF5001212BBD007020A6E7A007B00C3EA952CEB952D4003020B9FC3EA9522EB9523505B
:200B150016EA2524F8EB3525F9AC26888289838CF0121313FC801DEAC39522F8EB9523F914
:200B3500E82529F8E9352AF9AE2B888289838EF0121313FC90E679ECF00ABA00010B90E67F
:200B550078E0FE20E007903C00E0E060F1903C00E0E060047582002290E678E0FE30E2035C
:200B7500020A6E90E678E0FE30E103020B0190E678E0FF74404FF090E678E0FF30E60790BE
:200B95003C00E0E060F17582002290E678E0FF74404FF090E678E0FF30E607903C00E0E0A4
:200BB50060F1903C00E0E060047582002275820122AF82903C00E4F0EF2FFF4307017401FE
:200BD500B52F08E4B5300474018001E4FE903C00E0E06004758200227C007D0090E678E09F
:200BF500FB74804BF0E0FB30E21090000AC007C0061212BBD006D00780D390E679EFF09055
:200C1500E678E0FB20E007903C00E0E060F1903C00E0E060047582002290E678E0FB20E2CE
:200C3500AC90E678E0FB20E11C90E678E0FB74404BF090E678E0FB30E607903C00E0E06083
:200C5500F175820022EE600990E678E0FB74204BF090E679E0E4F534F53574012534F8E4D6
:200C75003535F9C3E8952FE99530506A90E678E0F920E007903C00E0E060F1903C00E0E0EE
:200C950060047582002290E678E0F930E203020BE274022534F8E43535F9E8B52F0DE9B572
:200CB500300990E678E0F9742049F0A834A9350534E4B534020535AC34AD35E82531F8E975
:200CD5003532F9AB3390E679E0FA888289838BF012125F020C6F90E678E0FB20E007903CCB
:200CF50000E0E060F1903C00E0E060047582002290E678E0FB30E203020BE290E678E0FF2B
:200D150074404FF0EC2531FCED3532FDAF3390E679E0FE8C828D838FF012125F90E678E09F
:200D3500FF30E607903C00E0E060F1903C00E0E06004758200227582012285823DE4F54124
:200D5500F542AB36AC37C3E5419538E54295394003020DE17A0090E678E0FF30E4067A01C9
:200D75008C078F3E8A070AEF243EF98B06A7068A070AEF243EF9AE41AF420541E4B54102F4
:200D95000542EE253AFEEF353BFFAD3C8E828F838DF0121313F78A2275230075243E7525E2
:200DB50000752640E4F527F528F529F52AF52B853D82C004C003120A55E582D003D004700F
:200DD50003F582220BBB00010C020D5B75820122AF827E0090E678E0FD30E4067E01AD4407
:200DF5008D4A8E050EED244AF9AC43A7048E2275230075244A752500752640E4F527F528BB
:200E1500F529F52AF52B8F82C007120A55E582D0077003F5822285452F8546308547318557
:150E350048328549338F82120BC6E5827003F5822275820122AC
:010E4A003275
:010E4B003274
:010E4C003273
:010E4D003272
:0601E800E478FFF6D8FDEB
:12022E007512007513007514A675153D75161C75173D49
:200E4E0090E6B9E0FF24F45003020F54EF240A83F582EF241083F583E473809654AC54545C
:200E6E00C254D2E901350E0E0F0E0F0F0E0F0E0E0F0F120FCEE5826003020F6A90E6A0E085
:200E8E00FF74014FF0020F6A12105BE5826003020F6A90E6A0E0FF74014FF0020F6A12100E
:200EAE00C7E5826003020F6A90E6A0E0FF74014FF0020F6A120841E5826003020F6A121131
:200ECE0073020F6A120731AF8290E740EFF090E68AE4F090E68B04F0020F6A90E6BAE0F5BC
:200EEE0082120735E582707490E6A0E0FF74014FF0806990E6BCE0FF751811751900751A6B
:200F0E00408F8212070EE582700B90E6A0E0FF74014FF0804790E740E511F090E68AE4F088
:200F2E0090E68B04F0803590E6BCE0FF90E6BAE0F5108F82120723E582702190E6A0E0FF99
:200F4E0074014FF0801690E6B9E0F582120845E582700990E6A0E0FF74014FF090E6A0E0D5
:200F6E00FF74804FF022AF828F0653067FEE24F75003020FCAEE240A83F582EE240D83F58D
:200F8E0083E473A3A7BACABECAC2CAC60F0F0F0F0F0F0F0F0F90E6A022EF30E7067EA27F57
:200FAE00E680047EA17FE68E828F832290E6A32290E6A42290E6A52290E6A622900000224D
:200FCE0090E6B8E0FFBF8002801FBF81028005BF8273803490E740E4F090E741F090E68AB4
:200FEE00F090E68B7402F08060E51325E0FFE512420790E740EFF090E741E4F090E68AF05E
:20100E0090E68B7402F0804190E6BCE0F582120F74AE82AF838E048F05EE4F7003F58222AB
:20102E008C828D83E0FC30E0047F0180027F0090E740EFF090E741E4F090E68AF090E68B00
:20104E007402F08004758200227582012290E6B8E0FF6005BF0255801190E6BAE0FFBF017D
:20106E0005751300804F7582002290E6BAE0703890E6BCE0F582120F74AE82AF83E0FD5385
:20108E0005FE8E828F83EDF090E6BCE0FF53070F90E6BCE05480C423541FFE90E6832FF070
:2010AE00E0FF74204FF0800D7582002290E6B9E0F5820208457582012290E6B8E0FF600569
:2010CE00BF026A801B90E6BAE0FFBF0202806790E6BAE0FFBF0105751301805A7582002233
:2010EE0090E6BAE0704390E6BCE0F582120F74AE82AF83EE4F7003F582228E828F83E0FD57
:20110E004305018E828F83EDF090E6BCE0FF53070F90E6BCE05480C423541FFE90E6832F99
:20112E00F0E0FF74204FF0800D7582002290E6B9E0F58202084575820122AF82D20210AFA6
:20114E0002C202EF600E75141C75153D7516A675173D800C7514A675153D75161C75173D06
:20116E00A20292AF2290E6BBE0FFBF01028019BF02028029BF03028033BF060302122EBF43
:20118E0007030212430212527E007F3D8F0690E6B3EEF07E007F3D90E6B4EEF022AF1590EC
:2011AE00E6B3EFF0AE1490E6B4EEF0227DE07E3D7F8090E6BAE0F5187B008B020BEAB518BF
:2011CE000280428D008E018F028D828E838FF012131328F8E439F9880589068A0774012D34
:2011EE00F9E43EFA8F0489828A838CF0121313F9B9030280067D007E007F00ED4E6006C352
:20120E00E5189B50B5ED4E600D8E0790E6B3EFF090E6B4EDF02290E6A0E0FF74014FF022EA
:20122E007E127F3D8F0690E6B3EEF07E127F3D90E6B4EEF022AF1790E6B3EFF0AE1690E63A
:0E124E00B4EEF02290E6A0E0FF74014FF02213
:2001C6007900E94400601B7A009013EA780175923CE493F2A308B800020592D9F4DAF275C2
:0201E60092FF86
:01125C00325F
:01125D00325E
:01125E00325D
:1B125F0020F71130F6138883A88220F509F6A8837583002280FEF280F5F0228E
:01127A003241
:01127B003240
:01127C00323F
:01127D00323E
:03004300023F0079
:203F00000202950002125E00020A5400020343000202AD000202F800020A51000212B00020
:203F20000212B1000212B2000212B3000212B60002125D0002127A0002127B0002127D0046
:203F4000020E4B000212B00002132F00020A5200020A5300020E4A00020E4C00020E4D002E
:203F6000021312000212B0000212B0000212B0000212AF000212B4000212B7000212B900AB
:203F80000212B5000212B8000212BA000213110002127E000212A9000212AB000212AD00C9
:183FA00002127F000212AA000212AC000212AE0002127C0002125C0036
:01127E00323D
:01127F00323C
:2001EE007800E84400600A790075923CE4F309D8FC7801E84400600C7901903C00E4F0A3A5
:04020E00D8FCD9FA45
:201280007A10E4FBFCE58225E0F582E58333F583EB33FBEC33FCEB9518F5F0EC9519400662
:0912A000FCABF0438201DADD220F
:0112A9003212
:0112AA003211
:0112AB003210
:0112AC00320F
:0112AD00320E
:0112AE00320D
:0112AF00320C
:0112B000320B
:0112B100320A
:0112B2003209
:0112B3003208
:0112B4003207
:0112B5003206
:0112B6003205
:0112B7003204
:0112B8003203
:0112B9003202
:0112BA003201
:2012BB00AE82AF8390E600E05418C423541FFD70057CB1FD801C90E600E05418C423541F41
:2012DB00FBBB01067A617B0180047AC27B028A048B058C188D19151874FFB518021519E5B8
:1612FB0018451970F1EE24FFFAEF34FFFB8A068B07EA4B70DD2218
:0113110032A9
:0113120032A8
:0D01B90075814B121368E58260030201B6E8
:1C13130020F71430F6148883A88220F507E6A88375830022E280F7E49322E022E9
:01132F00328B
:20133000C2D5E58330E70DD2D5E4C39582F582E49583F583E51930E70DB2D5E4C39518F538
:1813500018E49519F51912128030D50BE4C39582F582E49583F583224E
:041368007582002268
:00000001FF
