:040000000201B9320E
:01000B0032C2
:0100130032BA
:01001B0032B2
:0100230032AA
:03002B0002035875
:0300330002028F37
:01003B003292
:01004300328A
:01004B003282
:01005300327A
:01005B003272
:01006300326A
:03006B00020292FC
:030073000211A0D7
:03007B00020996E1
:0300830002034035
:03008B000202AAC4
:030093000202F571
:03009B00020993C4
:0300A3000211F354
:0300AB000211F44B
:0300B3000211F542
:0300BB000211F837
:0300C30002119F88
:0300CB000211BC63
:0300D3000211BD5A
:0300DB000211BF50
:0300E300020D8D7E
:0300EB000212718D
:0300F3000209946B
:0300FB0002099562
:03010300020D8C5E
:03010B00020D8E54
:03011300020D8F4B
:03011B0002125479
:030123000211F1D5
:03012B000211F6C8
:030133000211F9BD
:03013B000211FBB3
:030143000211F2B4
:03014B000211F7A7
:030153000211FA9C
:03015B000211FC92
:0301630002125332
:03016B000211C0BE
:030173000211EB8B
:03017B000211ED81
:030183000211EF77
:03018B000211C19D
:030193000211EC6A
:03019B000211EE60
:0301A3000211F056
:0301AB000211BE80
:0301B30002119E98
:19021200750800750900750A02750B00750CE8750D03750E00C200C201E1
:03023D000201B605
:0301B600020886B6
:20024000AF827401B5170280157402B5170280127405B51702800F740AB51712800C7E483B
:2002600080107E24800C7E0080087E6C800475820022EF60067DE07F0080047D1C7F00ED79
:20028000F4FFE5A05207ED5E4FF5A075820122C2DC32C0E0C082C083D2005391EF90E65DD7
:2002A0007401F0D083D082D0E032C021C0E0C0F0C082C083C007C006C005C004C003C00201
:2002C000C001C000C0D075D00075820012108A5391EF90E65D7410F0D0D0D000D001D002F8
:2002E000D003D004D005D006D007D083D082D0F0D0E0D02132C021C0E0C0F0C082C083C027
:2003000007C006C005C004C003C002C001C000C0D075D00075820112108A5391EF90E65D62
:200320007420F0D0D0D000D001D002D003D004D005D006D007D083D082D0F0D0E0D02132C5
:20034000C0E0C082C083D2015391EF90E65D7408F0D083D082D0E032C0E0C0D0B287150C82
:2003600074FFB50C02150DE50C450D700A750CF4750D01B2A0D2A1C2CFD0D0D0E032850A09
:2003800017751800905DC0121272AE82AF83AC097D00C3EC9EED64808FF063F08095F040AD
:2003A0000990E640E053E07FF02290E640E0FF43078090E640EFF02285820A7401B50A027D
:2003C00080057402B50A18AF0A74072FF50B90E618F090E61AE50BF012037E7582012275D8
:2003E00082002290E6F574FFF0000000E5BB60FC90E6047480F000000090E618E4F00000CF
:200400000090E61AE4F000000090E6047402F000000090E6047406F000000090E618E50B36
:20042000F000000090E61AE50BF000000090E604E4F02290E6F574FFF0000000E5087005BC
:200440007E06FF80047E027F0090E648EEF0221203E37EE87F03EE24FFFCEF34FFFD8C063A
:200460008D07EC4D70F0E5BB30E7FB00000090E6D07428F000000090E6D1E4F0E50870054E
:200480007E06FF80047E047F008EBB22AF8290E680E030E7067D1C7E3D80047DA67E3DEF20
:2004A00075F010A42416FBE435F0FCEB2DFDEC3EFC7E80EFF508703590E612E4F090E61439
:2004C00074E0F090E6E27401F08D828C838EF012125590E625F074012DFAE43CFB8E078AA5
:2004E000828B838FF012125590E624F02290E61274D8F090E614E4F090E6D204F08D828CCF
:20050000838EF012125590E621F00DBD00010C8D828C838EF0121255FF90E62074075FF08F
:200520008D828C838EF0121255C423541F90E64004F002037EAF827E00EE75F007A4FCADC9
:20054000F024AEF582ED3412F583E493FBB5070280080EBE0CE375820022EC24AEFCED3450
:2005600012FD74062CF582E43DF583E49390E601F075AF07759DE4759E008C828D83A3E4FF
:200580009390E67CF08C828D83A3A3E49390E67CF07401F0E4F0F0F0F0F08C828D83A3A3CC
:2005A000A39390E67CF08C828D83A3A3A3A3E49390E67CF07401F0E4F0F0F0F0F08C828D8C
:2005C00083A3A3A3A3A39390E67CF07444F0F0E4F0F0F0F0F0F0F0F0F0F0F0F0F07F009039
:2005E000E67CE4F00FBF600040F575820122AF82BF0002801EBF01028023BF02028028BF29
:200600000502802DBF0A028032BF14028037BF3248803C75CAE075CBB17582012275CA308F
:2006200075CBF87582012275CA1875CBFC7582012275CA7075CBFE7582012275CA3875CBFD
:20064000FF7582012275CA9C75CBFF7582012275CAD875CBFF7582012275820022AD17AE52
:2006600018AF198D828E838FF0E5081211A175820122E5827006850F8212048C7582012281
:20068000758200227582012290E6BBE0FE7F0090E6BAE07C004207EC420690E6BFE0FC7D02
:2006A0000090E6BEE07A004205EA420490E6A0E020E1F990E6B8E0FBBB40028072BBC002D0
:2006C0008003020788ED4C700302078CC374409DE49C50067A407B0080048D028C0390E68E
:2006E000A0E020E1F98A457546007547407548E77549008F438E44758251C007C006C0055A
:20070000C004C002120D27D002D004D005D006D00790E68AE4F000000090E68BEAF07B00BB
:20072000EDC39AFDEC9BFCEA2FFFEB3EFE8096ED4C605990E68BE4F090E6A0E020E1F99053
:20074000E68BE0FB8B38753900753A40753BE7753C008F368E37758251C007C006C005C0C1
:2007600004C003120C91E582D003D004D005D006D0077003F582227A00EB2FFFEA3EFEEDC1
:20078000C39BFDEC9AFC80A7758200227582012275820022AF82C007120433D007C2A0D2BD
:2007A000A1750CE8750D03BFE0004015EF2419401090E68AE4F090E68BF090E6A0E020E17E
:2007C000F9BFA2028023BFE0028021BFE102801CBFE202802ABFE3028032BFE4028046BFCD
:2007E000E502804EBFE658804D020688EF2420FF90E740E0F5178F82120240758201229006
:20080000E740E0F5821205357582012290E740E0FFBF010DD2A0C2A1750CE8750D031204B8
:200820004F7582012290E740E0F5821203B8758201227582012290E740E0F5820205EE75C8
:2008400082002290E613E4F090E615F090E6C2F090E6C37480F090E6C0E4F090E6F4F01261
:2008600004337517017582001202407517017582011202407582011205357582021203B886
:2008800075820002048C90E600E054E74410F0120843E500D2E890E668E0FF43070890E679
:2008A00068EFF090E65CE0FF43070190E65CEFF0E0FF43071090E65CEFF0E0FF4307209081
:2008C000E65CEFF0E0FF43070890E65CEFF0D2DDD2AF75CA3075CBF875C800D2ADD2CA9056
:2008E000E680E043E00AF09005DC1211FD90E680E053E0F7F090E671E4F090E670F075B45A
:20090000FF75B2FFC2A0D2A11000028003120D9010010280F390E682E043E0C0F090E68171
:200920007401F0AE877F004306018E8700000000000000E512701C90E682E030E60790E651
:2009400082E020E0D090E682E030E70790E682E020E1C290E682E030E60790E682E020E007
:200960000E90E682E030E7A090E682E030E1999000051211FD90E680E0FF43070190E6808D
:13098000EFF090000F1211FD90E680E053E0FEF0020908BC
:2012AE00308000030000EA1E8000030000AA180100020140CA100101020040CA0C020102E3
:2012CE000040CA080302020040CA040605020040CA020C0B020040CA011817020040CA322F
:1412EE00302F020040CA147877020040CA0AF0EF020040CA7D
:203D000012010002FFFFFF40B50422600002010203010A0600020000004001000902890026
:203D200001010080370904000001FF000000070586020002000904000101FF00010007050C
:203D400082010014010904000201FF00010007058201000C010904000301FF000100070502
:203D600082010004010904000401FF000100070582010004020904000501FF0001000705F5
:203D800082010004030904000601FF000100070582010004040904000701FF0001000705CD
:053DA000820100020495
:203DA6000902390002010080370904000001FF000000070586024000000904000101FF0010
:193DC600010007058201FF03010904000201FF00010007058201000201AF
:203DE000040309040E03480061006E00740065006B001603440053004F002D0036003000B1
:1E3E00003200320042004500140343007500730074006F006D0020004600570000006A
:010993003231
:010994003230
:01099500322F
:01099600322E
:20099700AF82E5272522F52CE5283523F52D752E02903C00E4F0EF2FFF903C00E0E06004C2
:2009B7007582002290E678E0FB74804BF0E0FB30E20C90000AC0071211FDD00780DB90E6ED
:2009D70079EFF090E678E0FB20E007903C00E0E060F1903C00E0E060047582002290E67804
:2009F700E0FB20E2B490E678E0FB20E13B90E678E0FB74404BF090E678E0FB30E607903CE0
:200A170000E0E060F1903C00E0E0600475820022E52E14FB8B2E7003F5822290000AC0075D
:200A37001211FDD0070209B07A007B00C3EA952CEB952D4003020AE1C3EA9522EB95235056
:200A570016EA2524F8EB3525F9AC26888289838CF0121255FC801DEAC39522F8EB9523F992
:200A7700E82529F8E9352AF9AE2B888289838EF0121255FC90E679ECF00ABA00010B90E6FD
:200A970078E0FE20E007903C00E0E060F1903C00E0E060047582002290E678E0FE30E2031B
:200AB7000209B090E678E0FE30E103020A4390E678E0FF74404FF090E678E0FF30E60790FB
:200AD7003C00E0E060F17582002290E678E0FF74404FF090E678E0FF30E607903C00E0E063
:200AF70060F1903C00E0E060047582002275820122AF82903C00E4F0EF2FFF4307017401BD
:200B1700B52F08E4B5300474018001E4FE903C00E0E06004758200227C007D0090E678E05D
:200B3700FB74804BF0E0FB30E21090000AC007C0061211FDD006D00780D390E679EFF090D2
:200B5700E678E0FB20E007903C00E0E060F1903C00E0E060047582002290E678E0FB20E28D
:200B7700AC90E678E0FB20E11C90E678E0FB74404BF090E678E0FB30E607903C00E0E06042
:200B9700F175820022EE600990E678E0FB74204BF090E679E0E4F534F53574012534F8E495
:200BB7003535F9C3E8952FE99530506A90E678E0F920E007903C00E0E060F1903C00E0E0AD
:200BD70060047582002290E678E0F930E203020B2474022534F8E43535F9E8B52F0DE9B5EF
:200BF700300990E678E0F9742049F0A834A9350534E4B534020535AC34AD35E82531F8E934
:200C17003532F9AB3390E679E0FA888289838BF01211A1020BB190E678E0FB20E007903C07
:200C370000E0E060F1903C00E0E060047582002290E678E0FB30E203020B2490E678E0FFA7
:200C570074404FF0EC2531FCED3532FDAF3390E679E0FE8C828D838FF01211A190E678E01D
:200C7700FF30E607903C00E0E060F1903C00E0E06004758200227582012285823DE4F541E3
:200C9700F542AB36AC37C3E5419538E54295394003020D237A0090E678E0FF30E4067A0146
:200CB7008C078F3E8A070AEF243EF98B06A7068A070AEF243EF9AE41AF420541E4B54102B3
:200CD7000542EE253AFEEF353BFFAD3C8E828F838DF0121255F78A2275230075243E752560
:200CF70000752640E4F527F528F529F52AF52B853D82C004C003120997E582D003D004708D
:200D170003F582220BBB00010C020C9D75820122AF827E0090E678E0FD30E4067E01AD4484
:200D37008D4A8E050EED244AF9AC43A7048E2275230075244A752500752640E4F527F52879
:200D5700F529F52AF52B8F82C007120997E582D0077003F5822285452F85463085473185D5
:150D770048328549338F82120B08E5827003F582227582012229
:010D8C003234
:010D8D003233
:010D8E003232
:010D8F003231
:0601E800E478FFF6D8FDEB
:12022B007511007512007513A675143D75151C75163D52
:200D900090E6B9E0FF24F45003020E96EF240A83F582EF241083F583E473C2D896EE96964E
:200DB0000496142B43770D0D0E0D0E0E0E0E0E0E0E0E120F10E5826003020EAC90E6A0E03E
:200DD000FF74014FF0020EAC120F9DE5826003020EAC90E6A0E0FF74014FF0020EAC1210C9
:200DF00009E5826003020EAC90E6A0E0FF74014FF0020EAC120790E5826003020EAC12109E
:200E1000B5020EAC120680AF8290E740EFF090E68AE4F090E68B04F0020EAC90E6BAE0F568
:200E300082120684E582707490E6A0E0FF74014FF0806990E6BCE0FF7517107518007519DF
:200E5000408F8212065DE582700B90E6A0E0FF74014FF0804790E740E510F090E68AE4F0FA
:200E700090E68B04F0803590E6BCE0FF90E6BAE0F50F8F82120672E582702190E6A0E0FF0B
:200E900074014FF0801690E6B9E0F582120794E582700990E6A0E0FF74014FF090E6A0E046
:200EB000FF74804FF022AF828F0653067FEE24F75003020F0CEE240A83F582EE240D83F50A
:200ED00083E473E5E9FC0C000C040C080E0E0E0F0F0F0F0F0F90E6A022EF30E7067EA27FC7
:200EF000E680047EA17FE68E828F832290E6A32290E6A42290E6A52290E6A622900000220C
:200F100090E6B8E0FFBF8002801FBF81028005BF8273803490E740E4F090E741F090E68A72
:200F3000F090E68B7402F08060E51225E0FFE511420790E740EFF090E741E4F090E68AF01E
:200F500090E68B7402F0804190E6BCE0F582120EB6AE82AF838E048F05EE4F7003F5822229
:200F70008C828D83E0FC30E0047F0180027F0090E740EFF090E741E4F090E68AF090E68BBF
:200F90007402F08004758200227582012290E6B8E0FF6005BF0255801190E6BAE0FFBF013C
:200FB00005751200804F7582002290E6BAE0703890E6BCE0F582120EB6AE82AF83E0FD5304
:200FD00005FE8E828F83EDF090E6BCE0FF53070F90E6BCE05480C423541FFE90E6832FF02F
:200FF000E0FF74204FF0800D7582002290E6B9E0F5820207947582012290E6B8E0FF6005DA
:20101000BF026A801B90E6BAE0FFBF0202806790E6BAE0FFBF0105751201805A75820022F2
:2010300090E6BAE0704390E6BCE0F582120EB6AE82AF83EE4F7003F582228E828F83E0FDD4
:201050004305018E828F83EDF090E6BCE0FF53070F90E6BCE05480C423541FFE90E6832F58
:20107000F0E0FF74204FF0800D7582002290E6B9E0F58202079475820122AF82D20210AF17
:2010900002C202EF600E75131C75143D7515A675163D800C7513A675143D75151C75163DCD
:2010B000A20292AF2290E6BBE0FFBF01028019BF02028029BF03028033BF0603021170BFC1
:2010D00007030211850211947E007F3D8F0690E6B3EEF07E007F3D90E6B4EEF022AF14902A
:2010F000E6B3EFF0AE1390E6B4EEF0227DE07E3D7F8090E6BAE0F5177B008B020BEAB51781
:201110000280428D008E018F028D828E838FF012125528F8E439F9880589068A0774012DB1
:20113000F9E43EFA8F0489828A838CF0121255F9B9030280067D007E007F00ED4E6006C3CF
:20115000E5179B50B5ED4E600D8E0790E6B3EFF090E6B4EDF02290E6A0E0FF74014FF022AA
:201170007E127F3D8F0690E6B3EEF07E127F3D90E6B4EEF022AF1690E6B3EFF0AE1590E6FB
:0E119000B4EEF02290E6A0E0FF74014FF022D2
:2001C6007900E94400601B7A00901302780175923CE493F2A308B800020592D9F4DAF275AA
:0201E60092FF86
:01119E00321E
:01119F00321D
:0111A000321C
:1B11A10020F71130F6138883A88220F509F6A8837583002280FEF280F5F0224D
:0111BC003200
:0111BD0032FF
:0111BE0032FE
:0111BF0032FD
:03004300023F0079
:203F0000020292000211A00002099600020340000202AA000202F500020993000211F20028
:203F20000211F3000211F4000211F5000211F80002119F000211BC000211BD000211BF003E
:203F4000020D8D000211F200021271000209940002099500020D8C00020D8E00020D8F0026
:203F6000021254000211F2000211F2000211F2000211F1000211F6000211F9000211FB00A3
:203F80000211F7000211FA000211FC00021253000211C0000211EB000211ED000211EF00C1
:183FA0000211C1000211EC000211EE000211F0000211BE0002119E00B0
:0111C00032FC
:0111C10032FB
:2001EE007800E84400600A790075923CE4F309D8FC7801E84400600C7901903C00E4F0A3A5
:04020E00D8FCD9FA45
:2011C2007A10E4FBFCE58225E0F582E58333F583EB33FBEC33FCEB9517F5F0EC9518400623
:0911E200FCABF0438201DADD22CE
:0111EB0032D1
:0111EC0032D0
:0111ED0032CF
:0111EE0032CE
:0111EF0032CD
:0111F00032CC
:0111F10032CB
:0111F20032CA
:0111F30032C9
:0111F40032C8
:0111F50032C7
:0111F60032C6
:0111F70032C5
:0111F80032C4
:0111F90032C3
:0111FA0032C2
:0111FB0032C1
:0111FC0032C0
:2011FD00AE82AF8390E600E05418C423541FFD70057CB1FD801C90E600E05418C423541F00
:20121D00FBBB01067A617B0180047AC27B028A048B058C178D18151774FFB517021518E57B
:16123D0017451870F1EE24FFFAEF34FFFB8A068B07EA4B70DD22D8
:011253003268
:011254003267
:0D01B90075814B1212AAE58260030201B6A7
:1C12550020F71430F6148883A88220F507E6A88375830022E280F7E49322E022A8
:01127100324A
:20127200C2D5E58330E70DD2D5E4C39582F582E49583F583E51830E70DB2D5E4C39517F5F9
:1812920017E49518F5181211C230D50BE4C39582F582E49583F58322CF
:0412AA007582002227
:00000001FF
