:04000000020059326F
:01000B0032C2
:0100130032BA
:01001B0032B2
:0100230032AA
:03002B00020219B5
:0300330002015077
:01003B003292
:03004300023F0079
:01004B003282
:03005300023F0069
:1C00B200750800750900750A02750B00750CF4750D01750EF4750F01C200C201BD
:0300E000020056C5
:030056000207DCC2
:2000E300E582FF30E00543B108800353B1F7EF30E40543B101800353B1FE75820122AF823B
:200103007401B54C0280157402B54C0280127405B54C02800F740AB54C12800C7E48801046
:200123007E24800C7E0080087E6C800475820022EF60067DE07F0080047D1C7F00EDF4FF54
:20014300E5A05207ED5E4FF5A075820122C2DC32C0E0C082C083D2005391EF90E65D740193
:20016300F0D083D082D0E032C021C0E0C0F0C082C083C007C006C005C004C003C002C001F3
:20018300C000C0D075D0007582001212FD5391EF90E65D7410F0D0D0D000D001D002D003AF
:2001A300D004D005D006D007D083D082D0F0D0E0D02132C021C0E0C0F0C082C083C007C071
:2001C30006C005C004C003C002C001C000C0D075D0007582011212FD5391EF90E65D74205F
:2001E300F0D0D0D000D001D002D003D004D005D006D007D083D082D0F0D0E0D02132C0E0F8
:20020300C082C083D2015391EF90E65D7408F0D083D082D0E032C0E0C0D0B287E50E450F3A
:200223006019150E74FFB50E02150FE50E450F700A850C0E850D0FB2A0D2A1C2CFD0D0D0FC
:20024300E032850A4C754D00905DC01216C0AE82AF83AC097D00C3EC9EED64808FF063F0D3
:200263008095F0400990E640E053E07FF02290E640E043E080F02285820A7401B50A0280C1
:20028300057402B50A18AF0A74072FF50B90E618F090E61AE50BF01202457582012275824E
:2002A300002290E6F574FFF000000000E5BB30E7FB90E6047480F00000000090E618E4F0D9
:2002C3000000000090E61AE4F00000000090E6047402F00000000090E6047406F0000000F3
:2002E3000090E618E50BF00000000090E61AE50BF00000000090E604E4F02290E6F574FFCF
:20030300F000000000E50870057E06FF80047E027F0090E648EEF0221202A57EE87F03EE35
:2003230024FFFCEF34FFFD8C068D07EC4D70F0E5BB30E7FB0000000090E6D07428F0000039
:20034300000090E6D1E4F0E50870057E06FF80047E047F008EBB22AF8290E680E030E70686
:200363007D1C7E3D80047DA67E3DEF75F010A42416FBE435F0FCEB2DFDEC3EFC7E80EFF565
:2003830008703590E612E4F090E61474E0F090E6E27401F08D828C838EF01216A390E625C4
:2003A300F074012DFAE43CFB8E078A828B838FF01216A390E624F02290E61274D8F090E6B4
:2003C30014E4F090E6D204F08D828C838EF01216A390E621F00DBD00010C8D828C838EF095
:2003E3001216A3FF90E62074075FF08D828C838EF01216A3C423541F90E64004F00202451C
:20040300AF827E00EE75F005A4FCADF0248CF582ED341AF583E493FBB5070280080EBE1720
:20042300E375820022EC248CFCED341AFD8C828D83A3A3A3A3E49390E601F08C828D83A3A4
:20044300E493FDA3E493FEA3E493FF75AF07759DE4759E007C208C031CEB60168D828E83F8
:200463008FF01216A3FBA3AD82AE8390E67CEBF080E47F608F061FEE600790E67CE4F080D2
:20048300F375820122E582FF70087B64FCFDFE020515EF249B401D8F4C754D00754E00759C
:2004A3004F009003E8E4F5F012143DAB82AC83ADF0FE805EBF670A7B207C007D007E0080AC
:2004C30051EF243740288F017A00E9249CF9EA34FF894CF54D3395E0F54EF54F90000AE489
:2004E300F5F012143DAB82AC83ADF0FE80247A00EF2438FFEA34FF8F4CF54D3395E0F54E2D
:20050300F54F900064E4F5F012143DAB82AC83ADF0FEC3EB9420EC9400ED9400EE648094B4
:2005230080401474A09B74869C74019D74808EF063F08095F0500475820022754C02E4F5BA
:200543004DF54EF54F8B828C838DF0EEC006C005C004C0031214DBA882A983D003D004D05D
:2005630005D006880C890D8B828C838DF0EE120F20AC82AD83AEF0FFC004C005C006C0079A
:2005830090240075F0F474C91215E0AC82AD83AEF0FFE58124FCF5818C828D838EF0EF1273
:2005A3000F4DAC82AD838CCA8DCB75820122AD4CAE4DAF4E8D828E838FF0E50812141F757F
:2005C300820122E582700685108212035A75820122758200227582012290E6BBE0FE7F0035
:2005E30090E6BAE07C004207EC420690E6BFE0FC7D0090E6BEE07A004205EA420490E6A046
:20060300E020E1F990E6B8E0FBBB40028073BBC00280030206DDED4C70030206E1C3744013
:200623009DE49C50067A407B0080048D028C0390E6A0E020E1F98A4575460075474075483A
:20064300E77549008F438E44758251C007C006C005C004C002120E57D002D004D005D00666
:20066300D00790E68AE4F00000000090E68BEAF07B00EDC39AFDEC9BFCEA2FFFEB3EFE80ED
:2006830095ED4C605990E68BE4F090E6A0E020E1F990E68BE0FB8B38753900753A40753B1F
:2006A300E7753C008F368E37758251C007C006C005C004C003120DC2E582D003D004D00530
:2006C300D006D0077003F582227A00EB2FFFEA3EFEEDC39BFDEC9AFC80A7758200227582A4
:2006E300012275820022AF82C0071202FED007C2A0D2A1850C0E850D0FBFE0004015EF24BE
:2007030019401090E68AE4F090E68BF090E6A0E020E1F9BFA2028023BFE0028021BFE102CE
:200723008028BFE202802FBFE3028033BFE4028046BFE502804ABFE659804E0205DC90E764
:2007430040E0F54C75820002010190E740E0F54C75820102010190E740E0F58202040390BF
:20076300E740E0FFBF010CD2A0C2A1E4F50EF50F12031B7582012290E740E0F58202027A0E
:2007830090E740E0F5820200E390E740E0F5820204887582002290E613E4F090E615F09046
:2007A300E6C2F090E6C37480F090E6C0E4F090E6F4F01202FE754C01758200120101754C7D
:2007C3000175820112010175820112040375820212027A75820002035A90E600E054E74446
:2007E30010F01208DD120799D2E890E668E043E008F090E65CE043E001F090E65CE043E01F
:2008030010F090E65CE043E020F090E65CE043E008F0D2DDD2AF75CA3075CBF875C800D23D
:20082300ADD2CA90E680E043E00AF09005DC12153A90E680E053E0F7F090E672E4F090E685
:2008430071F090E670F075B109F5A0F58075B6FF75B4FF75B2FFC2A0D2A110000280031231
:200863000FA810010280F390E682E043E0C0F090E6817401F043870100000000000000E581
:2008830013701C90E682E030E60790E682E020E0D690E682E030E70790E682E020E1C890EC
:2008A300E682E030E60790E682E020E00E90E682E030E7A690E682E030E19F900005121511
:2008C3003A90E680E043E001F090000F12153A90E680E053E0FEF002085D7E107F3E754C87
:2008E30030754D31754E32754F337550347551357552367553377554387555397556417571
:200903005742755843755944755A45755B4674182EFCE43FFD90E507E0FB5303F0E4C4CB09
:20092300C4540F6BCB540FCB6BCB30E30244F0EB244CF987038C828D83EBF074162EFCE43B
:200943003FFD90E507E0FB53030FEB244CF987038C828D83EBF074142EFCE43FFD90E50876
:20096300E0FB5303F0E4C4CBC4540F6BCB540FCB6BCB30E30244F0EB244CF987038C828D5D
:2009830083EBF074122EFCE43FFD90E508E0FB53030FEB244CF987038C828D83EBF074100E
:2009A3002EFCE43FFD90E509E0FB5303F0E4C4CBC4540F6BCB540FCB6BCB30E30244F0EBE3
:2009C300244CF987038C828D83EBF0740E2EFCE43FFD90E509E0FB53030FEB244CF98703C0
:2009E3008C828D83EBF0740C2EFCE43FFD90E50AE0FB5303F0E4C4CBC4540F6BCB540FCB93
:200A03006BCB30E30244F0EB244CF987038C828D83EBF0740A2EFCE43FFD90E50AE0FB5308
:200A2300030FEB244CF987038C828D83EBF074082EFCE43FFD90E50BE0FB5303F0E4C4CBF0
:200A4300C4540F6BCB540FCB6BCB30E30244F0EB244CF987038C828D83EBF074062EFCE42A
:200A63003FFD90E50BE0FB53030FEB244CF987038C828D83EBF074042EFCE43FFD90E50C5D
:200A8300E0FB5303F0E4C4CBC4540F6BCB540FCB6BCB30E30244F0EB244CF987038C828D3C
:1F0AA30083EBF074022EFEE43FFF90E50CE0FD53050FED244CF987058E828F83EDF0224A
:2017AC000F0E00000000000002000100000000005055550000000000000000000000000003
:2017CC000101000000000000020001000000000050555500000000000000000000000000FE
:2017EC00FAFAFAFAFAF90000020000000000010050555555555555000000000000000000B1
:20180C00FAFAF900000000000200000100000000505555550000000000000000000000007D
:20182C00C8C8C70000000000020000010000000050555555000000000000000000000000F3
:20184C00FAFAF900000000000200000100000000505555550000000000000000000000003D
:20186C00969500000000000002000100000000005055550000000000000000000000000034
:20188C00BBBB000000000000020001000000000050555500000000000000000000000000C9
:2018AC0002010000000000000200010000000000505555000000000000000000000000001C
:2018CC004B4A0000000000000200010000000000505555000000000000000000000000006A
:2018EC00252500000000000002000100000000005055550000000000000000000000000095
:20190C00010000000000000002010000000000005055000000000000000000000000000012
:20192C001E1D00000000000002000100000000005055550000000000000000000000000063
:20194C0001010000000000000200010000000000505555000000000000000000000000007C
:20196C00070700000000000002000100000000005055550000000000000000000000000050
:20198C00010000000000000002010000000000005055000000000000000000000000000092
:2019AC00050400000000000002000100000000005055550000000000000000000000000015
:2019CC00800000000000000003000000000000000000000000000000000000000000000078
:2019EC000605000000000000020001000000000050555500000000000000000000000000D3
:201A0C00800000000000000003000000000000000000000000000000000000000000000037
:201A2C00030200000000000002000100000000005055550000000000000000000000000098
:201A4C00020200000000000002000100000000005055550000000000000000000000000079
:201A6C00030200000000000002000100000000005055550000000000000000000000000058
:201A8C00300C1A80EA1ECC1980AA188C1980CA104C1980CA0F0C19808A0CAC1880CA0ACC59
:201AAC0017808A086C1A80CA064C1A808A052C1A808A04EC1980CA03AC19808A026C19802A
:201ACC008A01AC17808A962C19808A8CEC18808A78CC18808A718C1880CA6E6C18808A6AF8
:131AEC004C1880CA692C18808A680C18808A66EC17808A79
:203D000012010002FFFFFF40B50422601002010203010A0600020000004001000902890016
:203D200001010080FA0904000001FF000000070586020002000904000101FF000100070549
:203D400082010014010904000201FF00010007058201000C010904000301FF000100070502
:203D600082010004010904000401FF000100070582010004020904000501FF0001000705F5
:203D800082010004030904000601FF000100070582010004040904000701FF0001000705CD
:053DA000820100020495
:203DA6000902390002010080FA0904000001FF000000070586024000000904000101FF004D
:193DC600010007058201FF03010904000201FF00010007058201000201AF
:203DE0000403090416034F00700065006E00480061006E00740065006B00160344005300F9
:203E00004F002D003600300032003200420045001A03300030003000300030003000300068
:0C3E2000300030003000300030000000A6
:200AC20085822CE5272522FDE5283523FE752D02903C00E4F0903C00E06004758200229031
:200AE200E678E0FB7A0043038090E678EBF0E030E21090000AC006C00512153AD005D0067F
:200B020080D3E52C25E0FB90E679F090E678E020E006903C00E060F3903C00E060047582B6
:200B2200002290E678E020E2AC90E678E020E14090E678E0FB43034090E678EBF090E67800
:200B4200E030E606903C00E060F3903C00E0600475820022E52D14FB8B2D7003F5822290FA
:200B6200000AC006C00512153AD005D006020AD77A007B00C3EA9DEB9E4003020C0CC3EA1D
:200B82009522EB95235016EA2524F8EB3525F9AC26888289838CF01216A3FC801DEAC39520
:200BA20022F8EB9523F9E82529F8E9352AF9AF2B888289838FF01216A3FC90E679ECF00A03
:200BC200BA00010B90E678E020E006903C00E060F3903C00E060047582002290E678E03053
:200BE200E203020AD790E678E020E18890E678E0FF43074090E678EFF090E678E030E606C6
:200C0200903C00E060F37582002290E678E0FF43074090E678EFF090E678E030E606903CE0
:200C220000E060F3903C00E060047582002275820122858233903C00E4F004B52E0814B5AA
:200C42002F0474018001E4FE903C00E06004758200227C007D0090E678E0FB43038090E660
:200C620078EBF0E030E20C90000AC00612153AD00680D5E53325E0FB3395E0FA43030190A4
:200C8200E679EBF090E678E020E006903C00E060F3903C00E060047582002290E678E0202E
:200CA200E2A690E678E020E11E90E678E0FB43034090E678EBF090E678E030E606903C00EF
:200CC200E060F375820022EE600F90E678E0FB7A0043032090E678EBF090E679E0E4F5341B
:200CE200F53574012534F8E43535F9C3E8952EE9952F506C90E678E020E006903C00E06004
:200D0200F3903C00E060047582002290E678E030E203020C4A74022534F8E43535F9E8B5CF
:200D22002E13E9B52F0F90E678E0F8790043002090E678E8F0A834A9350534E4B534020565
:200D420035AC34AD35E82530F8E93531F9AF3290E679E0FB888289838FF012141F020CE4A6
:200D620090E678E020E006903C00E060F3903C00E060047582002290E678E030E203020C84
:200D82004A90E678E0FF43074090E678EFF0EC2530FCED3531FDAF3290E679E08C828D8388
:200DA2008FF012141F90E678E030E606903C00E060F3903C00E06004758200227582012241
:200DC20085823DE4F541F542AB36AC37C3E5419538E54295394003020E537A0090E678E01F
:200DE20030E4067A018C078F3EEA04FFEA243EF98B02A702EF04FAEF243EF9AE41AF420578
:200E020041E4B541020542EE253AFEEF353BFFAD3C8E828F838DF01216A3F78A2275230035
:200E220075243E752500752640E4F527F528F529F52AF52B853D82C004C003120AC2E582DA
:200E4200D003D0047003F582220BBB00010C020DCE75820122AF827E0090E678E030E4067C
:200E62007E01AD448D4AEE04FDEE244AF9AE43A7068D2275230075244A752500752640E4C4
:200E8200F527F528F529F52AF52B8F82C007120AC2E582D0077003F5822285452E85462FC8
:190EA2008547308548318549328F82120C34E5827003F58222758201224D
:200EBB00FB7A20E4FCFDFEFFE5822582F582E58333F583E5F033F5F0EB33FB4017DAE98070
:200EDB0042E5822582F582E58333F583E5F033F5F0EB33FBEC33FCED33FDEE33FEEF33FF9F
:200EFB00EC954CED954DEE954EEF954F4013EC954CFCED954DFDEE954EFEEF954FFF438249
:050F1B0001DABEEB222B
:06008800E478FFF6D8FD4C
:200F2000FCABF0AA83A982749EF582C2D1EC30E716D2D1E9F42401F9EAF43400FAEBF434D0
:0D0F400000FBECF43400FC12177102159058
:200F4D0012140DC3749E95824039790012172E30D126E9F42401F582EAF43400F583EBF413
:200F6D003400F5F0ECF43400700AE582458345F0700122E430E70F22EC20E71489828A837B
:1B0F8D008BF02230D10AE4F582F583F5F074802274FFF582F583F5F0747F2277
:1200CE007512007513007514A675153D75161C75173DAB
:200FA80090E6B9E0FF24F450030210D6EF240A83F582EF241083F583E473DAF6D612D6D6D8
:200FC8002ED63E5577B10F0F10101010101010101010121158E58260030210F290E6A0E04D
:200FE800FF7E0043070190E6A0EFF00210F21211ECE58260030210F290E6A0E0FF7E004395
:20100800070190E6A0EFF00210F2121267E58260030210F290E6A0E0FF7E0043070190E63A
:20102800A0EFF00210F21206E5E58260030210F21213280210F21205D4AF8290E740EFF057
:2010480090E68AE4F090E68B04F00210F290E6BAE0F5821205D8E58260030210F290E6A061
:20106800E0FF7E0043070190E6A0EFF00210F290E6BCE0FF754C11754D00754E408F8212FC
:2010880005B1E582701190E6A0E0FF7E0043070190E6A0EFF0805390E740E511F090E68A87
:2010A800E4F090E68B04F0804190E6BCE0FF90E6BAE0F5108F821205C6E582702D90E6A070
:2010C800E0FF7E0043070190E6A0EFF0801C90E6B9E0F5821206E9E582700F90E6A0E0FF6D
:2010E8007E0043070190E6A0EFF090E6A0E0FF43078090E6A0EFF022AF82747F5FFE24F7B8
:201108005003021154EE240A83F582EE240D83F583E4732D31445448544C545011111111C0
:20112800111111111190E6A022EF30E7067EA27FE680047EA17FE68E828F832290E6A32202
:2011480090E6A42290E6A52290E6A6229000002290E6B8E0FFBF80028022BF81028008BFA5
:20116800820280370211E490E740E4F090E741F090E68AF090E68B7402F08064E51325E0CA
:20118800FFE512420790E740EFF090E741E4F090E68AF090E68B7402F0804590E6BCE0F5C3
:2011A80082121100AE82AF838E048F05EE4F7003F582228C828D83E0FC30E0067E017F00A3
:2011C80080047E007F0090E740EEF090E741E4F090E68AF090E68B7402F080047582002271
:2011E8007582012290E6B8E0FF6005BF0264801B90E6BAE0FFBF0105751300805E90E6BA31
:20120800E0FFBF060280547582002290E6BAE0703D90E6BCE0F582121100AE82AF83E0FD8B
:201228005305FE8E828F83EDF090E6BCE0FF30E7098F057E004305108D0753071F90E683B0
:20124800EFF07E0043072090E683EFF0800D7582002290E6B9E0F5820206E9758201229020
:20126800E6B8E0FF6008BF020280290212F090E6BAE0FFBF02030212F990E6BAE0FFBF0162
:2012880005751301806B90E6BAE0FFBF060280617582002290E6BAE0704A90E6BCE0F582AA
:2012A800121100AE82AF83EE4F7003F582228E828F83E0FD7C004305018E828F83EDF09005
:2012C800E6BCE0FF30E7098F057E004305108D0753071F90E683EFF07E0043072090E68335
:2012E800EFF0800D7582002290E6B9E0F5820206E975820122AF827E0110AF027E00EF6092
:201308000E75141C75153D7516A675173D800C7514A675153D75161C75173DEE1392AF22FB
:2013280090E6BBE0FFBF01028019BF02028024BF0302802CBF06030213E2BF07030213F2D4
:201348000213FF7E007F3D90E6B3EFF090E6B47400F02290E6B3E515F090E6B4E514F02237
:201368007DE07E3D7F8090E6BAE0F54C7B008B020BEAB54C0280428D008E018F028D828EF1
:20138800838FF01216A328F8E439F9880589068A0774012DF9E43EFA8F0489828A838CF0B7
:2013A8001216A3F9B9030280067D007E007F00ED4E6006C3E54C9B50B5ED4E600F8D038EA6
:2013C8000490E6B3ECF090E6B4EDF02290E6A0E0FF43070190E6A0EFF0227E127F3D90E6BA
:2013E800B3EFF090E6B47412F02290E6B3E517F090E6B4E516F02290E6A0E0FF4307019075
:05140800E6A0EFF02258
:200066007900E94400601B7A00901AFF780175923CE493F2A308B800020592D9F4DAF27507
:0200860092FFE7
:12140D00AA82AB83A2F73392D1F5826002D2F7ACF022E4
:1B141F0020F71130F6138883A88220F509F6A8837583002280FEF280F5F022CC
:203F0000020153000217AA000216FB000202010002016B000201B6000216F80002152E00F4
:203F2000021530000215310002153200021535000217A9000217AB0002143A0002143C0035
:203F40000216FD0002152E000216BF000216F9000216FA000216FC000216FE0002172D009D
:203F60000215DF0002152E0002152E0002152E0002152F0002153300021536000215380050
:203F800002153400021537000215390002158F000214AB000214D6000214D8000214DA0007
:183FA0000214AC000214D7000214D90002152D0002143B000217A80015
:01143A00327F
:01143B00327E
:01143C00327D
:20143D00AAF0FBE582854CF0A4FCADF0E583854CF0A42DFDE435F0FEE582854DF0A42DFDA0
:20145D00E5F03EFEE433FFEA854CF0A42EFEE5F03FFFE583854DF0A42EFEE5F03FFFE58246
:20147D00854EF0A42EFEE5F03FFFEB854CF0A42FFFEA854DF0A42FFFE583854EF0A42FFFB0
:0E149D00E582854FF0A42F8EF08D838C822285
:0114AB00320E
:0114AC00320D
:20008E007800E84400600A790075923CE4F309D8FC7801E84400600C7901903C00E4F0A306
:0400AE00D8FCD9FAA7
:2014AD007A10E4FBFCE58225E0F582E58333F583EB33FBEC33FCEB954CF5F0EC954D4006CB
:0914CD00FCABF0438201DADD22E0
:0114D60032E3
:0114D70032E2
:0114D80032E1
:0114D90032E0
:0114DA0032DF
:2014DB00FBC2D530E715D2D5E4C39582F582E49583F583E495F0F5F0E49BFBE54F30E717B9
:2014FB00B2D5E4C3954CF54CE4954DF54DE4954EF54EE4954FF54FEB120EBB30D513FBE4A6
:12151B00C39582F582E49583F583E495F0F5F0E49B220A
:01152D00328B
:01152E00328A
:01152F003289
:011530003288
:011531003287
:011532003286
:011533003285
:011534003284
:011535003283
:011536003282
:011537003281
:011538003280
:01153900327F
:20153A00AE82AF8390E600E05418C423541F70057CB1FD801C90E600E05418C423541FFBC1
:20155A00BB01067A617B0180047AC27B028A048B058C4C8D4D154C74FFB54C02154DE54CE1
:15157A00454D70F1EE24FFFAEF34FFFB8A068B07EA4B70DD227B
:01158F003229
:20159000B98003EA13B34010EA2401FAE43BFBE43CFC50047C800582BC000EBB000BBA009F
:2015B00008E4F5F0F583F58222A2D1E582138CF092F78B838A8222E4F583F58275F080F45F
:0F15D000A2D11322E4F583F58275F0C0747F2257
:0115DF0032D9
:2015E0001216FF30D502B2D1BF0009BC00030215D40215C7BC00030215B1E583B4FF0BE558
:2016000082B4FF030215D40215B1E582B4FF030215C7C395835007247F400B0215B1248058
:201620001450030215C7F582C3ED9AEE9BEF9C40111582C3EA33F9EB33FAEC33FBE433FC8A
:201640008005E4CCCBCAF9C08275F019C3E99DEA9EEB9FEC9400D5F002802D400EE99DF9EB
:20166000EA9EFAEB9FFBEC9400FCC3B3E833F8E58233F582E58333F583C3E933F9EA33FA4B
:20168000EB33FBEC33FC80C4B3E4F938FAE43582FBE43583FCD082500405827C801217711F
:0316A0000215A888
:0D00590075815B1217A4E58260030200565A
:1C16A30020F71430F6148883A88220F507E6A88375830022E280F7E49322E02256
:0116BF0032F8
:2016C000C2D5E58330E70DD2D5E4C39582F582E49583F583E54D30E70DB2D5E4C3954CF53D
:1816E0004CE4954DF54D1214AD30D50BE4C39582F582E49583F58322F0
:0116F80032BF
:0116F90032BE
:0116FA0032BD
:0116FB0032BC
:0116FC0032BB
:0116FD0032BA
:0116FE0032B9
:2016FF00AA82AB83A2F73392D1F5826002D2F7ACF0E58124F9F8E6FD08E6FE0886F008E64E
:0E171F00A2F73392D5F5836002D2F7AFF02225
:01172D003289
:20172E006040F82582500274FFF582E824F8501ECCCBCAF9E4CC24F85014CBCAF9E4CB24C3
:20174E00F8500BCAF9E4CA24F8500379002224086010F8C3EC13FCEB13FBEA13FAE913F976
:03176E00D8F1228D
:201771007804EC7011E58224F8500AF582E4C9CACBFCD8EF22EC7820058220E713D5820177
:1317910022C3E933F9EA33FAEB33FBEC33FCD8EA15822285
:0417A4007582002228
:0117A800320E
:0117A900320D
:0117AA00320C
:0117AB00320B
:00000001FF
