:0A0BF50000010202030304040505D9
:1008AF00E4F52DF52CF52BF52AC20BC208C20AC2AE
:1008BF0009120CB8E4F50AF50BD2A6C2C975CDFC26
:1008CF0075CC2AD2CAD2AFD2AD7508087509077E8A
:1008DF00007F908E0E8F0F7516007517A2750C0086
:1008EF00750DAC7514007515CC7518007519EC9055
:1008FF00E680E030E70E850C10850D11851412850A
:10090F001513800C851410851511850C12850D1388
:10091F00EE54E07003020A3B752E00752F807E00A7
:10092F007F908E308F31C374129FFF74019ECF243E
:10093F0002CF3400FEE48F298E28F527F526F52502
:10094F00F524F523F522AF29AE28AD27AC26AB252C
:10095F00AA24A923A822C3120E17502AE52F252552
:10096F00F582E52E3524F58374CDF0E4FAF9F8E538
:10097F00252401F525EA3524F524E93523F523E867
:10098F003522F52280C0E4F525F524F523F522AFB5
:10099F0029AE28AD27AC26AB25AA24A923A822C3AC
:1009AF00120E175035AE24AF25E5312FF582E53005
:1009BF003EF583E0FDE52F2FF582E52E3EF583ED25
:1009CF00F0E4FAF9F8EF2401F525EA3EF524E935CC
:1009DF0023F523E83522F52280B5852E0E852F0FBE
:1009EF0074902480FF740034FFFEC3E5179FF51742
:1009FF00E5169EF516C3E5119FF511E5109EF5104E
:100A0F00C3E5139FF513E5129EF512C3E50D9FF590
:100A1F000DE50C9EF50CC3E5159FF515E5149EF538
:100A2F0014C3E5199FF519E5189EF518D2E843D8B8
:100A3F002090E668E04409F090E65CE0443DF0D297
:100A4F00AF90E680E020E105D20E1210C490E68050
:100A5F00E054F7F0538EF8C20B300905120616C298
:100A6F0009300B2912124A5024C20B12114B2008C5
:100A7F001690E682E030E704E020E1EF90E682E0B6
:100A8F0030E604E020E0E41210F312124C120BFFD8
:020A9F0080C70E
:010AA1002232
:1006160090E6B9E070030206F114700302079A240B
:10062600FE700302082F24FB70030206EB1470030E
:100636000206E51470030206D91470030206DF24CD
:1006460005600302089B12124E40030208A790E6BB
:10065600BBE024FE602C14604724FD601614603154
:1006660024067065E50E90E6B3F0E50F90E6B4F06B
:100676000208A7E51690E6B3F0E51790E6B4F00297
:1006860008A7E51090E6B3F0E51190E6B4F002088D
:10069600A7E51290E6B3F0E51390E6B4F00208A7DA
:1006A60090E6BAE0FF12111FAA06A9077B01EA49E4
:1006B600600DEE90E6B3F0EF90E6B4F00208A79076
:1006C600E6A0E04401F00208A790E6A0E04401F0AD
:1006D6000208A71212160208A712123A0208A71257
:1006E6000F4E0208A71212040208A7121250400366
:1006F6000208A790E6B8E0247F602B14603C240231
:100706006003020790A208E433FF25E0FFA20AE493
:10071600334F90E740F0E4A3F090E68AF090E68B42
:100726007402F00208A7E490E740F0A3F090E68A8E
:10073600F090E68B7402F00208A790E6BCE0547EC7
:10074600FF7E00E0D3948040067C007D0180047C1F
:10075600007D00EC4EFEED4F24F5F582740B3EF560
:1007660083E493FF3395E0FEEF24A1FFEE34E68F9A
:1007760082F583E0540190E740F0E4A3F090E68A26
:10078600F090E68B7402F00208A790E6A0E0440120
:10079600F00208A712125240030208A790E6B8E03A
:1007A60024FE601D240260030208A790E6BAE0B4A6
:1007B6000105C2080208A790E6A0E04401F002087D
:1007C600A790E6BAE0705990E6BCE0547EFF7E0042
:1007D600E0D3948040067C007D0180047C007D008F
:1007E600EC4EFEED4F24F5F582740B3EF583E49353
:1007F600FF3395E0FEEF24A1FFEE34E68F82F5830A
:10080600E054FEF090E6BCE05480FF131313541F2F
:10081600FFE0540F2F90E683F0E04420F00208A793
:1008260090E6A0E04401F08078121254507390E6EE
:10083600B8E024FE60202402706790E6BAE0B401B6
:1008460004D208805C90E6BAE06402605490E6A0A8
:10085600E04401F0804B90E6BCE0547EFF7E00E071
:10086600D3948040067C007D0180047C007D00ECF2
:100876004EFEED4F24F5F582740B3EF583E493FFAF
:100886003395E0FEEF24A1FFEE34E68F82F583E098
:100896004401F0800C120114500790E6A0E04401D8
:0808A600F090E6A0E04480F0B0
:0108AE002227
:0300330002008C3C
:04008C0053D8EF3224
:03002B00020F13AE
:100F1300C0E0B2A5E509150970021508E509450801
:100F2300701E75080475091FE50B6401450A7006F8
:100F3300B2A6D2A78004B2A7D2A6750A00750B0089
:0B0F430075CDFC75CC23C2CFD0E0328E
:100090001201000200000040B5049020000001029F
:1000A00000010A06000200000040010009022000D1
:1000B000010100A0FA0904000002FF00000007058A
:1000C0000202000200070586020002000902200069
:1000D000010100A0FA0904000002FF00000007056A
:1000E00002024000000705860240000004030904E4
:1000F0000E034F0044004D00200020002000140398
:10010000440053004F002D00320030003900300011
:0401100020000000CB
:03004300020C00AC
:03005300020C009C
:100C00000211A8000211EE000211D8000211C0006A
:100C1000020F8500020FBC0002125600021257009C
:100C2000021258000212590002125A0002125B000E
:100C300002125C0002125D0002125E0002125F00EE
:100C400002126000021257000212610002126200DA
:100C500002126300021264000212650002126600B2
:100C600002126700021257000212570002125700C8
:100C7000021268000212690002126A0002126B007E
:100C800002126C0002126D0002126E0002126F005E
:100C9000021270000212710002127200021273003E
:100CA000021274000212750002127600021277001E
:080CB000021278000212790023
:1010F30090E682E030E004E020E60B90E682E03008
:10110300E119E030E71590E680E04401F07F147EBA
:0C11130000120ECD90E680E054FEF022A9
:10114B0090E682E044C0F090E681F0438701000016
:04115B00000000226E
:1010C400300E0990E680E0440AF0800790E680E064
:1010D4004408F07FDC7E05120ECD90E65D74FFF0CF
:0F10E40090E65FF05391EF90E680E054F7F02232
:02111F00A9071E
:10112100AE18AF198F828E83A3E064037017AD01EF
:1011310019ED7001228F828E83E07C002FFDEC3E41
:09114100FEAF0580DF7E007F0097
:01114A002282
:100ECD008E3C8F3D90E600E054187012E53D2401F4
:100EDD00FFE4353CC313F53CEF13F53D801590E66B
:100EED0000E05418FFBF100BE53D25E0F53DE53C56
:100EFD0033F53CE53D153DAE3C7002153C4E6005AD
:060F0D0012115F80EE22CC
:10115F007400F58690FDA57C05A3E582458370F9A3
:01116F00225D
:100CB80090E600740AF090E6017443F0000000909A
:100CC800E61274A0F0000000E490E613F0000000C3
:100CD80090E61474E0F0000000E490E615F00000DF
:100CE8000090E6047480F00000007402F000000038
:100CF8007406F0000000E4F000000090E60274E6DC
:100D0800F000000090E60374F8F000000090E67030
:100D1800E04440F0000000E490E609F000000043E1
:100D2800B20F90E61804F00000007411F000000003
:100D380090E61A7409F0000000E490E671F090E67D
:100D480072F075B4FF75B6FFC280C20C12124290E1
:070D5800E67AE04401F022FD
:010BFF0022D3
:02124A00D322AD
:02124C00D322AB
:02124E00D322A9
:100F4E0090E680E030E71590E6247402F000000091
:100F5E00E490E625F0000000D20C8013E490E62425
:100F6E00F000000090E6257440F0000000C20C90E6
:070F7E00E6BAE0F51DD322E5
:1012040090E740E51DF0E490E68AF090E68B04F068
:02121400D322E3
:08123A0090E6BAE0F51BD32297
:1012160090E740E51BF0E490E68AF090E68B04F058
:02122600D322D1
:02125000D322A7
:02125200D322A5
:02125400D322A3
:10011400750A00750B0190E678E05410FFC4540F83
:100124004450F51C13E433F51E90E6B9E0245E70E8
:100134000302044A24F0B40A0040030206129001A8
:1001440049F82828730201670201830201C10202EF
:10015400030203030203460203870203C8020409DD
:100164000205D2A20CE43390E740F0E490E68AF072
:1001740090E68B04F090E6A0E04480F0020614E4DC
:1001840090E68AF090E68BF090E6A0E020E1F9900A
:10019400E68BE0753600F53700000090E6047480C5
:1001A400F00000007406F0000000E4F043800BD27D
:1001B40080C28090E6A0E04480F0020614E490E659
:1001C4008AF090E68BF090E6A0E020E1F990E68BCF
:1001D400E0753600F5377F0F7E00120ECD90E745AF
:1001E400E0FF90E747E0FD90E743E0FB90E741E064
:0F01F400F53F120E2890E6A0E04480F0020614BA
:10020300E490E68AF090E68BF090E6A0E020E1F936
:1002130090E68BE0753600F53790E741E0F5B17570
:100223003A0F753BA0E53B153B7002153AE53B647D
:100233000A453A70F090E742E0F5B1753A0F753B25
:10024300A0E53B153B7002153AE53B640A453A705D
:10025300F090E743E0F5B1753A0F753BA0E53B1528
:100263003B7002153AE53B640A453A70F090E74467
:10027300E0F5B1753A0F753BA0E53B153B700215F0
:100283003AE53B640A453A70F090E745E0F5B1750D
:100293003A0F753BA0E53B153B7002153AE53B640D
:1002A3000A453A70F090E746E0F5B1753A0F753BB1
:1002B300A0E53B153B7002153AE53B640A453A70ED
:1002C300F090E747E0F5B1753A0F753BA0E53B15B4
:1002D3003B7002153AE53B640A453A70F0E4F5B128
:1002E300753A0F753BA0E53B153B7002153AE53BAC
:1002F300640A453A70F090E6A0E04480F0020614E8
:10030300E490E68AF090E68BF090E6A0E020E1F935
:1003130090E68BE0753600F53700000090E6047434
:1003230080F0000000C2807406F0000000E4F0904A
:10033300E740E0FF7E00120ECD90E6A0E04480F09F
:10034300020614E490E68AF090E68BF090E6A0E0D3
:1003530020E1F990E68BE0753600F5370000009058
:10036300E6047480F00000007406F0000000E4F07E
:1003730090E740E0FF7E00120ECD90E6A0E04480BF
:10038300F0020614E490E68AF090E68BF090E6A083
:10039300E020E1F990E68BE0753600F537000000C8
:1003A30090E6047480F00000007406F0000000E49E
:1003B300F090E740E0FF7E00120ECD90E6A0E0440F
:1003C30080F0020614E490E68AF090E68BF090E663
:1003D300A0E020E1F990E68BE0753600F5370000E8
:1003E3000090E6047480F00000007406F000000042
:1003F300E4F090E740E0FF7E00120ECD90E6A0E02F
:100403004480F0020614E490E68AF090E68BF090C4
:10041300E6A0E020E1F990E68BE0753600F53700C1
:10042300000090E6047480F00000007406F0000001
:1004330000E4F090E740E0FF7E00120ECD90E6A0CE
:10044300E04480F002061490E6BAE0753200F5331A
:10045300A3E0FEE4EE423290E6BEE0753400F535EB
:10046300A3E0FEE4EE423490E6B8E064C060030229
:10047300053AE5354534700302061490E6A0E02002
:10048300E1F9C3E5359440E53494005008853436EA
:10049300853537800675360075374090E6B9E0B488
:1004A300A335E4F538F539C3E5399537E53895369D
:1004B3005060E5332539F582E5323538F583E0FFC1
:1004C30074402539F582E434E7F583EFF00539E527
:1004D300397002053880D0E4F538F539C3E539952C
:1004E30037E5389536501874402539F582E434E7FA
:1004F300F58374CDF00539E5397002053880DDAD3B
:10050300377AE779407EE77F40AB07AF33AE3212ED
:100513000BAAE490E68AF090E68BE537F02533F5F5
:1005230033E5363532F532C3E5359537F535E53400
:100533009536F53402047590E6B8E0644060030232
:100543000614E53545347003020614E490E68AF098
:1005530090E68BF090E6A0E020E1F990E68BE07561
:100563003600F53790E6B9E0B4A335E4F538F5394C
:10057300C3E5399537E5389536503874402539F554
:1005830082E434E7F583E0FFE5332539F582E5328C
:100593003538F583EFF00539E5397002053880D039
:1005A300AD377AE779407EE77F40AB07AF33AE32B2
:1005B300121029E5372533F533E5363532F532C3E5
:1005C300E5359537F535E5349536F534020545E4DB
:1005D30090E68AF090E68BF090E6A0E020E1F990B7
:1005E300E68BE0753600F53700000090E604748072
:1005F300F00000007406F0000000E4F090E740E033
:10060300FF7E00120ECD90E6A0E04480F08002D37E
:0206130022C300
:0106150022C2
:1011A800C0E0C083C082D2095391EF90E65D74011C
:0811B800F0D082D083D0E032B8
:1011D800C0E0C083C0825391EF90E65D7404F0D004
:0611E80082D083D0E0324A
:1011EE00C0E0C083C0825391EF90E65D7402F0D0F0
:0611FE0082D083D0E03234
:100F8500C0E0C083C08290E680E030E70E850C109B
:100F9500850D11851412851513800C851410851582
:100FA50011850C12850D135391EF90E65D7410F0C9
:070FB500D082D083D0E032AE
:1011C000C0E0C083C082D20B5391EF90E65D7408FB
:0811D000F0D082D083D0E032A0
:100FBC00C0E0C083C08290E680E030E70E850C1064
:100FCC00850D11851412851513800C85141085154B
:100FDC0011850C12850D135391EF90E65D7420F082
:070FEC00D082D083D0E03277
:011256003265
:011257003264
:011258003263
:011259003262
:01125A003261
:01125B003260
:01125C00325F
:01125D00325E
:01125E00325D
:01125F00325C
:01126000325B
:01126100325A
:011262003259
:011263003258
:011264003257
:011265003256
:011266003255
:011267003254
:011268003253
:011269003252
:01126A003251
:01126B003250
:01126C00324F
:01126D00324E
:01126E00324D
:01126F00324C
:01127000324B
:01127100324A
:011272003249
:011273003248
:011274003247
:011275003246
:011276003245
:011277003244
:011278003243
:011279003242
:10122800AD071FED600BE4FEEEC3947850F20E801C
:01123800F7BE
:011239002292
:040D5F00A907AB0530
:100D63007F01121228D2A27F01121228C2A2E4FA32
:100D7300E9A802088002C333D8FCFC5304807F0136
:100D8300121228D2A1BC8004D2A08002C2A07F018B
:100D9300121228C2A10ABA08D7E4FAEBA802088003
:100DA30002C333D8FCFC5304807F01121228D2A162
:100DB300BC8004D2A08002C2A07F01121228C2A16B
:040DC3000ABA08D789
:010DC7002209
:040E2800AE07AC0560
:100E2C00EEC4540F4410FFEEC454F0FDECC4540F48
:100E3C004450F540ECC454F0F541EBC4540F4490CD
:100E4C00F542EBC454F0F543E53FC4540F44D0F5E0
:100E5C0044E53FC454F0F545C2A0C2A1C2A2120D94
:100E6C005FAD41AF40120D5FAD43AF42120D5FADB0
:060E7C0045AF44120D5FBA
:010E8200224D
:060E8300AB07AA06AC0556
:100E8900E4FDE51E6010EA7E000DEE2400F582E423
:100E99003418F583EAF0EBAE050D74002EF582E403
:100EA9003418F583EBF0AF050D74002FF582E434A7
:100EB90018F583ECF07A187B00AF1C12118CAF1C6B
:030EC900120FF312
:010ECC002203
:0A1029008E3C8F3D8D3E8A3F8B40C8
:10103300E4F541E541C3953E5020053DE53DAE3C19
:101043007002053C14FFE5402541F582E4353FF588
:0A10530083E0FD120E83054180D9F1
:01105D002270
:0A0BAA008E3C8F3D8D3E8A3F8B404C
:100BB400E4FDF541E51E6012E53CFF7E000DEE24E8
:100BC40000F582E43418F583EFF0E53DAE050D74CD
:100BD400002EF582E43418F583E53DF07A187B00A5
:100BE400AF1C12118CAB40AA3FAD3EAF1C1211706A
:010BF40022DE
:08124200E4F54BD2E9D2AF2222
:100FF30090E678E020E6F9C2E990E678E04480F0F4
:10100300EF25E090E679F090E678E030E0F990E6BD
:1010130078E04440F090E678E020E6F990E678E066
:0610230030E1D6D2E92203
:10109200A90790E678E020E6F9E54B702390E67820
:1010A200E04480F0E925E090E679F08D46AF03A9AF
:1010B200077547018A488949E4F54A754B01D322ED
:0210C200C32247
:10105E00A90790E678E020E6F9E54B702590E67852
:10106E00E04480F0E925E0440190E679F08D46AF4A
:10107E0003A9077547018A488949E4F54A754B0368
:04108E00D322C32284
:03004B00020AA204
:100AA200C0E0C083C082C085C084C086758600C095
:100AB200D075D000C000C001C002C003C006C0078C
:100AC20090E678E030E206754B06020B8C90E678F1
:100AD200E020E10CE54B64026006754B07020B8CCB
:100AE200E54B24FE605F14603624FE7003020B7D2A
:100AF20024FC7003020B8924086003020B8CAB47B1
:100B0200AA48A949AF4A054A8F82758300120DC8C7
:100B120090E679F0E54A65467070754B05806B90FA
:100B2200E679E0AB47AA48A949AE4A8E82758300AE
:100B3200120DF5754B02E5466401704E90E678E0C1
:100B42004420F08045E54624FEB54A0790E678E069
:100B52004420F0E54614B54A0A90E678E04440F0B5
:100B6200754B0090E679E0AB47AA48A949AE4A8E98
:100B720082758300120DF5054A800F90E678E044F5
:100B820040F0754B008003754B005391DFD007D0C6
:100B920006D003D002D001D000D0D0D086D084D0ED
:080BA20085D082D083D0E0323F
:1011700012105EE54B24FA600E146006240770F32B
:0C118000D322E4F54BD322E4F54BD3223C
:10118C00121092E54B24FA600E146006240770F3DB
:0C119C00D322E4F54BD322E4F54BD32220
:030000000200807B
:0C008000787FE4F6D8FD75814B0208AFD4
:100DC800BB010CE58229F582E5833AF583E02250E0
:100DD80006E92582F8E622BBFE06E92582F8E2222A
:0D0DE800E58229F582E5833AF583E4932244
:100DF500F8BB010DE58229F582E5833AF583E8F034
:100E0500225006E92582C8F622BBFE05E92582C8DF
:020E1500F222C7
:100E1700EB9FF5F0EA9E42F0E99D42F0E89C45F031
:010E270022A8
:00000001FF
